:02000002E0001C
:10C000000000042029C20E0011C20E0013C20E004F
:10C0100015C20E0017C20E0019C20E00000000006B
:10C0200000000000000000000000000049800F0038
:10C030001DC20E00000000001FC20E0021C20E0033
:10C04000D51B0F0023C20E00F11B0F00811E0F0035
:10C05000911E0F0023C20E0021190F0023C20E00F3
:10C0600023C20E0023C20E0023C20E0023C20E0004
:10C0700023C20E0023C20E0023C20E0023C20E00F4
:10C08000B5E70E0023C20E0023C20E0023C20E002D
:10C0900023C20E0023C20E00E57C0F0009D00E0063
:10C0A00025D00E0023C20E0023C20E0023C20E00B4
:10C0B00023C20E0023C20E0000000000000000009A
:10C0C00023C20E0023C20E0023C20E00E51B0F0088
:10C0D0009DE20E0023C20E0023C20E0021340F0089
:10C0E00023C20E0023C20E0023C20E000000000077
:10C0F0000000000023C20E000000000023C20E005A
:10C10000000000000000000000000000000000002F
:10C11000000000000000000000000000000000001F
:10C12000000000000000000000000000000000000F
:10C1300000000000000000000000000000000000FF
:10C1400000000000000000000000000000000000EF
:10C1500000000000000000000000000000000000DF
:10C1600000000000000000000000000000000000CF
:10C1700000000000000000000000000000000000BF
:10C1800000000000000000000000000000000000AF
:10C19000000000000000000000000000000000009F
:10C1A000000000000000000000000000000000008F
:10C1B000000000000000000000000000000000007F
:10C1C000000000000000000000000000000000006F
:10C1D000000000000000000000000000000000005F
:10C1E000000000000000000000000000000000004F
:10C1F000000000000000000000000000000000003F
:04C200004F53452132
:0CC2040046414D56303033300000000041
:10C21000FEE7FEE7FEE7FEE7FEE7FEE7FEE7FEE7F6
:10C22000FEE7FEE700F002B8FFF7FCBF0F484FF053
:10C230000701884385460E4880470E48016841F44F
:10C2400070010160BFF34F8FBFF36F8F00F01AB81A
:10C2500009480A490A4A884207D0521A05D0037889
:10C2600001300B700131013AF9D170470000042010
:10C2700039DA0E0088ED00E0808F0F0008260020DC
:10C280001C260020314932480A1A02D00722914365
:10C290008D46304930480A1A06D00722914381F36F
:10C2A0000988022282F314882C482D492D4A00F077
:10C2B0003CF82D482D492E4A00F037F82D482E49DC
:10C2C0002E4A00F032F82E482E492F4A00F02DF861
:10C2D0002E482F492F4A00F028F82F482F49304A7E
:10C2E00000F023F82F483049304A00F01EF830485B
:10C2F0003049002200F024F82F483049002200F095
:10C300001FF82F4A90471F481F49884205D00268EE
:10C31000043003B4904703BCF7E700208646EC46A0
:10C3200000200021274A9047FEE7884207D0521A92
:10C3300005D0037801300B700131013AF9D1704713
:10C34000884202D002700130FAE7704700000420F2
:10C3500000F80320000004200000042058C70F004C
:10C360001C26002080260020C8C30E00C8C30E0073
:10C37000EC8E0F0058C70F001C2600201C26002042
:10C38000948F0F00948F0F00948F0F00948F0F00E5
:10C39000948F0F00948F0F00948F0F00948F0F00D5
:10C3A00055C70F00BCC70F00802600208026002044
:10C3B000802600207C9900207C9900207C99002018
:08C3C00051C20E009DC70E00E2
:10C3C8001FB5104B1A7902F5FA62ADF800205A79B8
:10C3D8008DF802209A798DF80320DA798DF80420F7
:10C3E80001A91A7A5B7A8DF8052068468DF806301F
:10C3F80000F092FB18B903A902A800F097FB05B05A
:10C408005DF804FB8426002010B586B00446182287
:10C41800002168460CF0DAF815238DF800306846DC
:10C42800034B0194029303F08DFC002006B010BD6D
:10C4380049780F0010B586B00446182200216846D6
:10C448000CF0C4F816238DF800306846034B0194AD
:10C45800029303F077FC002006B010BD49780F0066
:10C46800F0B51B29274C87B0064607D10023236067
:10C4780022680A2A08D90020206003E02368002BDC
:10C48800F6D1002007B0F0BD1F4D531C0D29A9544B
:10C498002360F6D1062B1BD11C490422681C0CF022
:10C4A800C5F8074628B93046FFF7AEFF27600120D8
:10C4B800E8E7681C164904220CF0B8F8054600287D
:10C4C800D9D101F059FF3046FFF7B4FF2560EEE7F8
:10C4D800042BD0D1681C0F4902220CF0A7F805469E
:10C4E8000028C8D10146182268460CF06FF81423BA
:10C4F8008DF800306846084B0196029303F022FC41
:10C50800E4E700BFAC260020A0260020948F0F008F
:10C51800998F0F009E8F0F0049780F003C4B70B524
:10C528001C68012C054619D0032C42D0394A002C2E
:10C5380069D11029106804D180F001001060002032
:10C5480054E00028FBD002291460F8D101221A60B7
:10C55800314B1C60314B12221A60F0E72F4E2D48E8
:10C56800326805684A40102932604FF000020DD148
:10C57800012D09D10260284802680E2A41D8531CAF
:10C588000360274B9954DAE70460D8E75DB10229C4
:10C59800026003D0032908BF0A46DDE71E4B1A6074
:10C5A80012233360CBE71C4802680E2AE7D91D60C6
:10C5B800C5E71A4A1268914219D100221A60164B2F
:10C5C800174C1868012801D122787AB11549144806
:10C5D80003220CF068F840B9E378042B05D128460B
:10C5E800FFF728FF104800F027FD012070BD032940
:10C5F80007D1094A1268012A03D1094A1278002A88
:10C60800DBD00022A8E700211960116097E700BF7E
:10C61800982600209C2600209426002080260020B2
:10C6280084260020A18F0F00C9C30E001F2886BFD3
:10C63800044A00F01F004FF0A04201238340C2F8D3
:10C6480008357047000300507047000008B50B4DCF
:10C65800642445F001054FF47A40A847013CFAD11B
:10C66800BFF34F8F0649074BCA6802F4E0621343D1
:10C67800CB60BFF34F8F00BFFDE700BF70900F0086
:10C6880000ED00E00400FA051F2886BF044A00F008
:10C698001F004FF0A04201238340C2F80C357047B9
:10C6A8000003005008B513460A46014602480BF03D
:10C6B8009FF8FFF7CBFF00BFE88F0F00014608B5D2
:10C6C80002480BF095F8FFF7C1FF00BF1F900F005D
:10C6D800144B10B50C224FF0A04140F20324C3F8CC
:10C6E80024272820C3F82047FFF7A0FFC1F82C47CC
:10C6F8000B20FFF7C9FFC1F83C470F20C1F83847A6
:10C70800FFF794FF0E20FFF791FF0B20FFF78EFF36
:10C718000023C1F8343703230620C1F81837FFF780
:10C7280085FF10BD000300504FF0A042184908B51E
:10C7380040F20323C2F818370620C2F82037C1F8A0
:10C748002437C1F82037C2F83037C2F82C37C2F87E
:10C758003437C2F83837C2F83C37FFF795FF08205E
:10C76800FFF792FF2920FFF78FFF2820FFF78CFFA4
:10C778000C20FFF789FF0B20FFF786FF0D20FFF73E
:10C7880083FF0E20FFF780FF0F20FFF77DFF08BD16
:10C798000003005010B5002004F050FD08B1FFF769
:10C7A8008DFF04F0B3FB0028F9D104F0DDFB04F0A1
:10C7B80061FC0028FBD001F0B1FF4FF4805100204C
:10C7C80001F09AFC0028EAD10B484FF4903101F0AF
:10C7D80093FC0028E3D109480BF00AF8012000F087
:10C7E800E7F8074801F0BAFA04460028D7D1054807
:10C7F8000AF0FEFF2046D2E700C00E003A900F0074
:10C8080051C60E0046900F0003681F2B83BF03F02C
:10C818001F03036001484FF0A04070470003005019
:10C828001FB5019059B9039003A8FFF7EDFF039BCB
:10C8380003F5E07340F8231005B05DF804FB01A888
:10C84800FFF7E2FF019A01239340C0F81835F3E798
:10C8580007B5019001A8FFF7D7FF019A012393407C
:10C86800C0F80C3503B05DF804FB07B5019001A8CA
:10C87800FFF7CAFF019B03F5E073890040F8231016
:10C8880003B05DF804FB000007B5074B1B5C019380
:10C8980001A8FFF7B9FF019A01239340C0F80835B2
:10C8A80003B05DF804FB00BF76900F00014B185CE5
:10C8B800FFF7CEBF76900F0008B50020FFF7F6FF10
:10C8C8000120FFF7F3FF0220FFF7F0FFBDE8084063
:10C8D8000320FFF7EBBF00004FF0804313B5D3F8F8
:10C8E8004036DB072ED54FF01023D3F8043303F07E
:10C8F8000703072B26D11E4A0123C2F80435D2F8B4
:10C908000034002BFBD04FF01021D1F8043323F072
:10C91800070343F00403C1F804330023C2F80435C5
:10C92800134AD2F80034002BFBD0BFF34F8F1149C4
:10C93800114BCA6802F4E0621343CB60BFF34F8F18
:10C9480000BFFDE70D490022032411F8013B0193C4
:10C9580001A8FFF759FF019B013203F5E073042A90
:10C9680040F82340F1D102B0BDE81040FFF7A4BF62
:10C9780000E0014000ED00E00400FA0576900F00A9
:10C9880007B50A4B1B5C019301A8FFF73DFF01990E
:10C99800D0F8043501228A4022EA03011340C0F886
:10C9A8000815C0F80C3503B05DF804FB76900F004D
:10C9B80013B50446FFF790FF01212620FFF730FF4B
:10C9C800002C40F08F802620FFF742FF0121052030
:10C9D800FFF726FF0720FFF723FF0520FFF738FFA3
:10C9E8000720FFF735FF03211B20FFF73EFF00213B
:10C9F8000846FFF715FF0120FFF712FF1A20FFF77F
:10CA08000FFF01211420FFF730FF01211820FFF745
:10CA18002CFF03212120FFF728FF01210420FFF725
:10CA2800FFFE0420FFF714FF1F20FFF7F9FE1F2069
:10CA3800FFF70EFF1020FFF7F3FE1020FFF708FFA7
:10CA480003211220FFF711FF03211520FFF70DFF27
:10CA580003212020FFF709FF03211620FFF705FF18
:10CA680003211720FFF701FF03211320FFF7FDFE25
:10CA780001210620FFF7D4FE0820FFF7D1FE292068
:10CA8800FFF7CEFE2820FFF7CBFE0C20FFF7C8FEED
:10CA98000B20FFF7C5FE0D20FFF7C2FE03210E2075
:10CAA800FFF7E3FE03210F20FFF7DFFE0620FFF765
:10CAB800CFFE0820FFF7CCFE2920FFF7C9FE28206B
:10CAC800FFF7C6FE0C20FFF7C3FE0B20FFF7C0FEE2
:10CAD8000D20FFF7BDFE03210A2002B0BDE810407B
:10CAE800FFF7C3BE262301A80193FFF78DFE019B24
:10CAF8009940C0F8081569E708B5054A054B136061
:10CB08005B689847003818BF0120404208BD00BF45
:10CB1800B0260020B8900F00034B1B680BB1DB68F0
:10CB280018474FF0FF307047B0260020034B1B68B2
:10CB38000BB11B6918474FF0FF307047B026002033
:10CB4800034B1B680BB19B6A18474FF0FF307047C7
:10CB5800B0260020030903EB830300F00F0000EB6D
:10CB68004300C0B270470A21B0FBF1F21301DBB2F7
:10CB780001FB12001843C0B27047000030B50D4BDE
:10CB880085B01B7800250001CDE9025514468DF8C3
:10CB980008006BB10DF109000BF0E2FC631C0648BC
:10CBA8000095DBB202AA322105F024FC05B030BDA5
:10CBB8000320FBE7B4260020F8900F00002310B5EF
:10CBC800084909481A4604F0C7FB044628B101463B
:10CBD80006480AF00DFE204610BD054805F0F6F996
:10CBE800F9E700BFE4900F00F4900F007A900F006F
:10CBF800F8900F0008B5FFF7E1FF08BD014800F005
:10CC08001BBA00BF69CD0E0007B50B460749097866
:10CC180051B100010092322100F0F002044805F001
:10CC2800FCFB03B05DF804FB0320FAE7B426002000
:10CC3800F8900F0007B501220DF107010F20FFF74B
:10CC4800E3FF30B99DF80700C0F3401003B05DF86A
:10CC580004FB0020FAE707B501220DF107010E20B9
:10CC6800FFF7D2FF30B99DF80700C0F3801003B07A
:10CC78005DF804FB0020FAE713B5012204460DF124
:10CC880007010F20FFF7C0FFD8B99DF8073003F060
:10CC980020028CB1C2B943F0200301220DF1070133
:10CCA8000F208DF80730FFF769FF003818BF012003
:10CCB8004442204602B010BD002AFAD003F0DF0338
:10CCC800EBE74FF0FF34F4E70446F2E737B50C46DC
:10CCD80015460DF1030101220E20FFF795FF18B14B
:10CCE8004FF0FF3003B030BD3DB36078FFF73BFF36
:10CCF8008DF804002078FFF736FF02228DF8050032
:10CD080001A90B20FFF73AFF0028E9D19DF803306D
:10CD180003F07F0343F0400301220DF103010E20CD
:10CD28008DF80330FFF72AFF04460028D8D10121E7
:10CD3800212004F085FD2046D4E79DF80330012228
:10CD480003F03F030DF103010E208DF80330FFF7C8
:10CD580015FF04460028C3D1212004F0BBFDEAE7F3
:10CD6800002211461046FFF7B1BF000073B5044614
:10CD7800FFF724FFC0BB2A4E01233370BCB307253D
:10CD880001220DF103010E20FFF73EFF18BB01221F
:10CD980001A90F20FFF738FFE8B99DF804300122F8
:10CDA80003F0200301A90F208DF80430FFF7E6FEF9
:10CDB80088B90B23012201A907208DF80430FFF759
:10CDC800DDFE40B92023012201A90E208DF8043090
:10CDD800FFF7D4FE58B1322000F044F9013DCFD11D
:10CDE8001048357005F028F94FF0FF3015E040F293
:10CDF8000233ADF804309DF806300B4A23F00703E0
:10CE080001A921208DF8063004F08EFC24B10022FF
:10CE180011461046FFF75AFF002002B070BD00BF50
:10CE2800B4260020F8900F0005CC0E0008B50B487A
:10CE380005F002F94FF0A0430422C3F85027C3F8C5
:10CE48006027074B1B7813B1212004F043FD054BE5
:10CE58000C22C3F80427002008BD00BFF8900F007B
:10CE6800B426002000030050FFF7E0BF13B50446C6
:10CE7800807800F03F00FFF776FE8DF804006078B8
:10CE880000F03F00FFF76FFE8DF80500207800F0F6
:10CE98001F00FFF768FE03228DF8060001A9002095
:10CEA800FFF76CFE003818BF0120404202B010BDE9
:10CEB80013B50446C078FFF756FE8DF80400A07835
:10CEC800FFF751FE23888DF80500B3F5FA6F25BFEB
:10CED80060F07F008DF80500A3F16C0003F13000CD
:10CEE800C0B2FFF740FE03228DF8060001A9042016
:10CEF800FFF744FE003818BF0120404202B010BDC1
:10CF080010B504460846FFF7B1FF20B92046FFF7E1
:10CF1800CFFF00B210BD4FF0FF30FBE737B5054635
:10CF2800032269460420FFF76FFE20B14FF0FF345B
:10CF3800204603B030BD032201A90420FFF764FE98
:10CF48000028F3D10322694601A80BF06FFB0446C1
:10CF58000028E5D19DF80200FFF7FCFD9DF901309E
:10CF68009DF80120002B40F26C73B8BF4FF4FA63B0
:10CF780013FA80F0288002F07F00FFF7EBFDA8701D
:10CF88009DF80000FFF7E6FDE870D1E737B50546E4
:10CF9800032269460020FFF737FE20B14FF0FF3427
:10CFA800204603B030BD032201A9FFF72DFE00285B
:10CFB800F4D10322694601A80BF038FB0446002887
:10CFC800E6D19DF80200FFF7C5FD28709DF8010025
:10CFD800FFF7C0FD68709DF80000FFF7BBFDA87063
:10CFE800DEE710B504460846FFF7D0FF20B9204613
:10CFF800FFF794FF00B210BD4FF0FF30FBE70000D1
:10D00800044B0022C3F80021034B1B6803B11847E7
:10D01800704700BF00700140B8260020044B002272
:10D02800C3F80021034B1B6803B11847704700BFC2
:10D0380000800140BC260020074B08491860084BB7
:10D048000122E020C3F8042381F817034FF40000FD
:10D0580008601A60704700BFB826002000E100E0B1
:10D068000070014038B14FF47A735843024B800185
:10D0780043F001031847704710910F000023C0E9DF
:10D0880002328B881A44B1F9063002611A44C0E9A9
:10D09800001142610888003818BF012070474268B3
:10D0A800118870B50346002937D0148A02F110019F
:10D0B80041602CB9C2680168FFF7E0FF204670BDE7
:10D0C800907811891C6900F03006302E13D1957CB8
:10D0D80005F03005302D1AD19188611A19610021A7
:10D0E800908AB2F91620084419690144196111445B
:10D0F80059610120E3E700F0F004202C07D15089A2
:10D108004143002EECD1986801309860E8E700F0C0
:10D11800C000802808BF0421F3E70846CFE770B5B0
:10D12800466804460D4663681A88AA4204D19B786B
:10D1380003F00F03082B07D12046FFF7B0FF636801
:10D14800B342F0D1002070BD0120FCE743681A44C7
:10D15800426011B101399A4201D10120704713F898
:10D16800010B01F8010FF6E770B54568AA7802F0DF
:10D178000F06082E86B003461FD103691C680026D7
:10D188000CB906B070BD236862689D68267329468D
:10D198006846FFF773FF6368049304F10C03059373
:10D1A800AB7803F0C003802B08BF231D684608BF77
:10D1B8000493FFF7D9FFA468E2E712F0C00122D177
:10D1C80002F0300010280CD15A691170072EEC6853
:10D1D80018690BD10146204606B0BDE8704000F042
:10D1E8001AB89006F2D55B691980CAE72A892146E0
:10D1F80024B106B0BDE870400BF0B2B906B0BDE886
:10D2080070400BF0E3B98029BBD100690021920678
:10D218000160B6D5E7E77FB50A4601466846FFF7DD
:10D228002DFF30B16846FFF79FFF6846FFF737FFCD
:10D23800F7E707B05DF804FB836810B504460BB93F
:10D24800002010BD0368012298470028F8D0A36881
:10D25800013BA360F5E72DE9F3410F460DF1070106
:10D268008046FFF7E9FF054620B90025284602B0A9
:10D27800BDE8F0819DF907309DF80740002B13DACF
:10D2880004F07F0407260DF107014046FFF7D4FF9D
:10D298000028EAD09DF8072002F07F03B3401C4322
:10D2A800130606F1070601D43C60DFE7232EEAD116
:10D2B800DBE7000030B5044685B01546A9B9026819
:10D2C800114B9A4211D0102D06D82A46694620469D
:10D2D800FFF7F0FF05B030BD102269462046FFF782
:10D2E800E9FF0028F6D0103DEDE7A368AB4201D274
:10D2F8000020EFE723682A46204698470028F7D001
:10D30800A3685B1BA360E5E755D10E002DE9F34147
:10D318000F4601A980461646FFF79DFFA0B1019C64
:10D32800621C4FF0000504D2BB7803F0C003802BC9
:10D3380001D1284608E03B899342FAD32246314678
:10D348004046FFF7B7FF355502B0BDE8F08173B529
:10D358000D4601A906461446FFF77DFFB0B1019AB4
:10D36800B2F5803F12D2AB7803F0C003802B02F1F4
:10D3780002010BD02B898B4208D32146304621F875
:10D38800022B02B0BDE87040FFF794BF002002B046
:10D3980070BD000010B5034C82600022C0E9004156
:10D3A800C26010BD55D10E002DE9F341002580461D
:10D3B8000E462F462C460DF107014046FFF73CFF6D
:10D3C800C0B19DF807C0A4F120030CF07F02C4F19E
:10D3D800200102FA03F322FA01F10B43A2401CF0E8
:10D3E800800F45EA020547EA030704F1070404D160
:10D3F800C6E9005702B0BDE8F081462CDBD1002019
:10D40800F8E737B50D4669461446FFF7CDFF70B10A
:10D418002B89082B0DD1DDE90032C4E90032DDE9A2
:10D428000001914208BF98420CBF0120002003B0C0
:10D4380030BD042B03D1009B23600022EFE7022BB1
:10D4480003D1009B23809BB2F7E7012B04D1009BFB
:10D45800237003F0FF03F0E70020E8E737B50D4637
:10D4680069461446FFF7A0FF30B12B89082BDDE988
:10D47800001203D1C4E9001203B030BD042B4FEAF7
:10D48800E17009D121600B460246824208BF8B42F7
:10D498000CBF01200020EFE7022B03D10BB2238041
:10D4A800DA17F2E7012B02D14BB22370F8E700201C
:10D4B800E2E7F7B51F4600233B700D460B7013607B
:10D4C80001A904461646FFF7C6FE30B9A36813B98A
:10D4D80001233B70002003B0F0BD019C002CF7D065
:10D4E800E30804F0070433602C70F4E713B504462E
:10D4F800052921D8DFE801F0030F1720201E01229B
:10D5080001A92046FFF7D6FE18B19DF90430002B7B
:10D51800F5DB02B010BD08220021204602B0BDE8AC
:10D528001040FFF7C7BE01A9FFF795FE0028F0D00D
:10D53800019AF1E70422EFE70020EAE773B50D4608
:10D5480001A90446FFF787FE064618B900263046AB
:10D5580002B070BD94E80F0085E80F0001998A4277
:10D56800F4D3A960A3685B1AA360F0E72DE9F04340
:10D578005668B37813F0C00489B007468C46154640
:10D5880003D0402C69D000240CE003F00F0260495E
:10D5980003F03003202B51F8228025D006D8E3B1C0
:10D5A800102B17D0204609B0BDE8F083302BF9D1F5
:10D5B8006B6931881980072A09D12146328928697F
:10D5C8000BF004F86B682969D868FFF724FE2A690C
:10D5D800696840E06B6901221A702A69314643463E
:10D5E80009B0BDE8F0431847BCF1020FD5F8149014
:10D5F80024D1042A22D804A9FFF7A0FF0446002852
:10D60800C1D0069B2BB16968B9F800304A899A42A3
:10D6180005D8059B7B60069B002BC3D0B3E7088920
:10D628002A6903FB002204A8C04728B1B9F80030D2
:10D638000133A9F80030E4E70446EAE7B9F8003016
:10D6480072899A429FD931892A69581C03FB0122A1
:10D65800A9F8000031463846C1E7D2F8108046469E
:10D6680056F8043B23B909B0BDE8F043FFF73EBFC5
:10D67800022914D104A9FFF761FF002883D0D8F844
:10D6880000306968324604A89847044600283FF4E9
:10D698007AAF069B002BF2D1059B7B6082E70129BC
:10D6A80026D005292CD000297FF46DAF0C460DF14A
:10D6B800040901340B2C3FF466AF01224946384671
:10D6C800FFF7F8FD00283FF45EAF19F9013B002B86
:10D6D800EFDB104B049301ABCDE90534002307932E
:10D6E8006968D8F80030324604A89847044659E7D4
:10D6F800082201A9FFF7DEFD08240028E9D142E746
:10D7080004220DEB0201FFF7D5FD0424F5E700BF65
:10D7180018910F0055D10E002DE9F04F91B0044635
:10D72800002604A8CDE90266FFF7A8FCA3683BBB66
:10D73800DDE9053404A89D78FFF7B1FC0028F7D18E
:10D7480015F0300F03D1059B1B8803B10134002C61
:10D7580000F0AD80630902A90022934240F0A08046
:10D7680010AA02EB830304F01F0453F8383CC4F1F9
:10D7780020044FF0FF30E040C31A584258410DE0F2
:10D788000DF1030301AA0DF102012046FFF791FEF6
:10D7980038B99DF80330002BCAD1002011B0BDE87C
:10D7A800F08F019F04A83946FFF7B9FC002850D133
:10D7B800B742C0F08180059D059A937803F00F0366
:10D7C800082B00F0828004A8FFF769FC059B9D42A6
:10D7D800F2D14FF0FF36B7429DF802A06CD3089BF8
:10D7E800D4F808801D684FF00109A368002D60D0A7
:10D7F80098459BD12B68D3F800B0BBF1000F08D037
:10D8080053463A4629462046D8470028C5D0AD6831
:10D81800EBE7D3F808B0BBF800309F42F7D16A684D
:10D8280059460AA8FFF72AFC6B680E9305F10C030A
:10D838000F939BF8023003F0C003802B04BF2B1D0D
:10D848000E930AAA85F80C9051462046FFF78EFEE3
:10D85800DBE7059B9B7813F0300F0FD1069A3F2A20
:10D868000CD8510910AB03EB810102F01F02012310
:10D87800934051F8382C134341F8383CD4F80C80C5
:10D888009DF80250B8F1000F04D004AB2A4639467F
:10D898002046C04704AA29462046FFF767FE10E045
:10D8A80051F8045B01357FF479AF013255E7012067
:10D8B80074E798457FF43AAF9DF802102046FFF7C9
:10D8C80015FE00287FF432AF67E7168883E737B57F
:10D8D8000C460546114620460192FFF79CFC019A2A
:10D8E8002146284603B0BDE83040FFF715BF70B5A4
:10D8F80086B0CE6801920C4602A90546FFF71EFEC7
:10D9080068B1E06858B1A378019A03F03003202B7E
:10D91800314602A805D1FFF7DAFF039B6B6006B01A
:10D9280070BDFFF7F9FEF8E713B50C466946FFF737
:10D938003BFD60B1DDE900134A0842EAC372C9073A
:10D948004FEA530344BFD243DB43C4E9002302B088
:10D9580010BD37B50D4669461446FFF7E5FF70B1AF
:10D968002B89082B0DD1DDE90032C4E90032DDE94D
:10D978000001914208BF98420CBF0120002003B06B
:10D9880030BD042B03D1009B2360DA17EFE7022B8D
:10D9980003D1BDF900302380F7E7012B03D19DF9AE
:10D9A80000302370F1E70020E9E713B504220C46A4
:10D9B8000DEB0201FFF77EFC08B1019B236002B06A
:10D9C80010BD1146FFF7F1BF13B508220C46694692
:10D9D800FFF770FC18B1DDE90023C4E9002302B0A9
:10D9E80010BD1146FFF7F0BF4FF08053D3F8300158
:10D9F800A0F1080358425841704700004FF0805387
:10DA0800D3F83021082A06D1D3F83431052B02D8AF
:10DA1800024AD05C70470020704700BF42910F0057
:10DA2800024AD2F80034002BFBD0704700E00140D6
:10DA380008B5FFF7D9FF40B14FF080430022C3F883
:10DA48000C21C3F81021C3F83825FFF7CDFF0028B3
:10DA580046D04FF08052624BD2F80414C3F8201518
:10DA6800D2F80814C3F82415D2F80C14C3F82815F2
:10DA7800D2F81014C3F82C15D2F81414C3F83015C2
:10DA8800D2F81814C3F83415D2F81C14C3F840158A
:10DA9800D2F82014C3F84415D2F82414C3F8481552
:10DAA800D2F82814C3F84C15D2F82C14C3F8501522
:10DAB800D2F83014C3F85415D2F83414C3F86015EA
:10DAC800D2F83814C3F86415D2F83C14C3F86815B2
:10DAD800D2F84014C3F86C15D2F84424C3F8702562
:10DAE800FFF78CFF18B13F4B3F4AC3F88C26FFF76E
:10DAF80085FF18B13D4BFB22C3F81825FFF77EFFC1
:10DB080070B14FF080414FF08053D1F8E42ED3F834
:10DB1800583222F00F0203F00F031343C1F8E43E1A
:10DB2800FFF76CFF20B1324B4FF40072C3F8402668
:10DB3800FFF75AFF48B14FF08043D3F80024D207CB
:10DB480044BF6FF00102C3F800242A4AD2F8883093
:10DB580043F47003C2F88830BFF34F8FBFF36F8F61
:10DB68004FF08053D3F83021082A0ED1D3F834313E
:10DB7800052B02D8204AD35C3BB14FF01023D3F8D1
:10DB880008224FF08043C3F858254FF01021D1F8F0
:10DB98000C32DB071FD519480123C0F80435FFF7FD
:10DBA8003FFFD1F80C3223F00103C1F80C32FFF724
:10DBB80037FF0023C0F80435FFF732FFBFF34F8F5C
:10DBC8000C490F4BCA6802F4E0621343CB60BFF301
:10DBD8004F8F00BFFDE70B4B0B4A1A6008BD00BF13
:10DBE80000C00040005000404881030000F00040A1
:10DBF8000090024000ED00E03C910F0000E0014081
:10DC08000400FA051C2600200090D003008800F0CC
:10DC18000100704741DF70471F288ABF054B4FF04E
:10DC2800A04300F01F00D3F8103523FA00F000F0ED
:10DC38000100704700030050014B01221A70704721
:10DC4800E12A0020BFF34F8F0549064BCA6802F44A
:10DC5800E0621343CB60BFF34F8F00BFFDE700BF07
:10DC680000ED00E00400FA0508B5054809F0C0FD1C
:10DC7800044B054800221A70BDE8084002F0DEB9DE
:10DC880048910F00E12A00204DDC0E00042810B551
:10DC9800044609D802280DD818D00E4B1B68C3B10A
:10DCA8002046BDE810401847831F012BF5D8FFF721
:10DCB800DBFFF2E7084B094903221A60084B782278
:10DCC8004FF400401A6000F029FBE6E702F0B6F8CE
:10DCD800E3E710BDE42A002020260020EDDC0E003A
:10DCE80024260020154A08B51368002B07DD013BE0
:10DCF800136023B9124809F07BFDFFF7B5FF4FF415
:10DD08000040104900F00AFB1120FFF785FF0E4A7A
:10DD180080B92220FFF780FF60B91368002B0BDD64
:10DD2800013B136043B9064809F062FDBDE80840AD
:10DD3800FFF79ABF0323136008BD00BF2426002005
:10DD48005E910F00EDDC0E002026002008B5024889
:10DD580009F04EFD002008BD72910F002DE9F34136
:10DD68000446B14809F044FDB04B4FF0A0421C6096
:10DD7800AF4BC2F844370020C2F8083A02F074F9F1
:10DD8800002840F04181AB4D6B69012B1FD1AA4897
:10DD980009F02EFD02F08AFD02F0D2FD90B101A932
:10DDA800684602F007FE01280CD102F0CFFD0128D9
:10DDB80008D1DDE9000103F003F8012802D19F48EA
:10DDC80009F016FD00239E486B6102F03DF9112011
:10DDD800FFF722FF80B300239A4E33703378002B6D
:10DDE8005BD14FF08043D3F80034D80355D5FEF704
:10DDF8006FFC00F0D7FB012800F00181022800F039
:10DE0800B780002840F00081337803F0FF07002B2B
:10DE180040F0A3804FF08043D3F80024D10309D405
:10DE2800D3F8202512063BD5D3F8202502F07F022F
:10DE3800C3F82025B84638E02220FFF7EDFE002879
:10DE4800C9D1FEF721FD0120FEF71EFD0220FEF7D5
:10DE58001BFD1120FFF7E0FEC8B17B4EC82446F039
:10DE680001064FF47A40B047013CFAD1FEF724FD91
:10DE78001120FFF7D1FE0028ADD12220FFF7CCFEFC
:10DE88000128A8D1714809F0B3FC0323A4E7222094
:10DE9800FFF7C2FE0028DCD0DFE7FEF745FCA8E765
:10DEA8006B4809F0A5FC4FF0010802F0CBF92B6A8A
:10DEB800012B044607D0674809F09AFC664809F028
:10DEC80097FC032748E04FF440535A68634B9A4243
:10DED8000FD16A6BB8F1000F03D195F86032012BAE
:10DEE80007D05F484FF4805102F0CEFD08B95D4875
:10DEF800E2E702F0A7F9AA690146B8F1000F03D1D9
:10DF080095F8A132012B05D0574802F0BDFD08B99C
:10DF18005648D1E704F500745549042220460AF012
:10DF280085FB40B9534B21791A78914203D1A279E4
:10DF38009B789A4201D05048BEE7504809F058FCF7
:10DF48004FF08042D2F81C3503F0FB03B22B07D107
:10DF58004B4809F04DFC022737704FF400440BE0A2
:10DF6800D2F81C3503F0FB03B32BF5D14548A6E7DF
:10DF7800032333704FF4A0243378002B48D04FF09C
:10DF880080434FF48032C3F800240120FEF7B4FD2B
:10DF9800FEF7D6FDC30702D5022007F00FF900F0FF
:10DFA80013FC394A2021182005F0A6FB08B1FEF71A
:10DFB80085FB4FF08043D3F81C2502F0F802B02A05
:10DFC80002BFD3F81C2502F00702C3F81C25FFF78F
:10DFD800BDFEC8B92D4B2E49782220461A6000F0A4
:10DFE8009DF92C4800F0ACFD70B92B4809F000FCF5
:10DFF80000F028FC05F008FCFFF70CFEF8E7FFF737
:10E0080033FE264809F0F4FB032002B0BDE8F08196
:10E0180002F09EF80028F7D1214B1870084802F04A
:10E028000DF800F03FF8ECE78C910F00E42A00208F
:10E038000C000300BC420020A3910F00C6910F0002
:10E0480041DC0E00E02A002080930F00E1910F00D0
:10E0580000920F0016920F00E6920F00DBE5B15117
:10E068001C45002044920F005D4500207F920F0060
:10E07800A7920F0004C20E00AC920F00D9920F00B5
:10E0880009930F002F930F00C0260020242600209C
:10E09800EDDC0E0095DC0E0067930F005B930F001C
:10E0A800E12A002010B50E4C0E484FF4805109F0BB
:10E0B8009FFBD4F880100C4809F09AFB4FF0FF330F
:10E0C800C4F88030C4F8803101F052FB10B1074821
:10E0D80009F08EFBBDE810404FF4805000F02EB8D8
:10E0E80000E100E086930F00BC930F00E6930F0059
:10E0F80080F3088808470000C1F30B0270B5B2B975
:10E10800B0F57F2F13D80C4E3468072C11D8230193
:10E1180003F1804505F5F0350134C5F80008C5F868
:10E1280004180221C5F808183460104670BD07228B
:10E13800FBE70422F9E700BFE82A002038B54FF4CE
:10E14800983105461948FFF7D7FF044630B1014614
:10E15800174809F04DFB2046FEF7B0FA02F072F8B6
:10E16800144B9B6903F6FF7323F47F6323F00F03BB
:10E1780019180020FFF7C0FF044630B101460E48C9
:10E1880009F036FB2046FEF799FAEFF305830023E2
:10E19800D5E9000183F3148883F3108883F3118889
:10E1A80083F31388BDE83840FFF7A2BF00C00E0014
:10E1B8001B940F00BC42002052940F001FB5184951
:10E1C8000B7853BB4FF08043A024D3F81824D20314
:10E1D8005CBF01229A60134B0022C3F80021D3F8D8
:10E1E800000103900398C3F84021D3F8400102903E
:10E1F8000298C3F84421D3F84401019001980A48D1
:10E2080080F82443102444600220C3F80825012222
:10E218009A601A60C3F804030A7004B010BD00BF06
:10E22800F02A00200040024000E100E037B56FF01E
:10E238007F42154C057BD4F804358A4228BF0A462C
:10E24800891A13444A1E942A23F07F4305F5A872BD
:10E258009BBF963B96314160416044F822300B4B9E
:10E268004FF4F86043F001039847094BAA001344A0
:10E2780000221A601B680193019B4FF48033AB4066
:10E28800C4F8043303B030BD0040024090940F003E
:10E29800404102401C4BD3F804212DE9F34152B10F
:10E2A8001A490A6801320A600022C3F80421D3F827
:10E2B80004310093009B164C164DDFF84C80164E27
:10E2C80000272B6873B12F602B68227B0193019B79
:10E2D8004FF480339340C8F80833616851B1204641
:10E2E800FFF7A4FF0435B54204F11004E9D102B0E8
:10E2F800BDE8F081A16811B12046FFF797FF2368B8
:10E30800002BEFD09847EDE700400240EC2A0020B0
:10E3180028260020404102404841024070B50B4B7E
:10E328001D682A7B4FF480339340094A0E46C2F891
:10E338000833044640B1FFF741FF2E6021462846C6
:10E34800BDE87040FFF772BF70BD00BF48260020CF
:10E358000040024070B5074B1D6804460E46A86091
:10E36800FFF72CFF2E6021462846BDE87040FFF7D6
:10E378005DBF00BF4C260020044B1B681A7B4FF47E
:10E3880080339340024AC2F8083370474C26002075
:10E3980000400240014B01221A707047F12A002008
:10E3A800184BDA6AAC2A70B55E6A9D6C14D15B6B47
:10E3B8001D44F61A1449154833462A4609F018FA36
:10E3C8001148324629460AF031F9044650B9104836
:10E3D80009F00EFA204670BD002DEBD101F046FF82
:10E3E8000546E7E7324629460A4809F001FA00F0EF
:10E3F80029FA3146284601F09DF904460028E9D05B
:10E408000548E5E7BC42002000C00E0096940F00C6
:10E41800CB940F0002950F002F950F0081422DE934
:10E42800F74F05460F46164607D1294809F0E0F987
:10E438000024204603B0BDE8F08FA7EB05084FEA9B
:10E44800183802F6FF7A00F0BFF9B8F1080F28BFB4
:10E458004FF008084FEA08334FEA1A3A01930EB909
:10E468003446E6E7D0452CBFD346C3464FF00002FA
:10E478005946284634BFDDF80490B14601F02CF91E
:10E4880004460028D5D14B462A463946114809F09A
:10E49800AFF909F10302234622F003023946284660
:10E4A80001F0F6F804460028C3D10B4A136B4B441D
:10E4B800136301F0C9FDAAEB0B0AA6EB09064D444C
:10E4C8004F4404460028CAD0044809F091F9B0E73F
:10E4D80049950F0058950F00BC42002079950F0010
:10E4E8002DE9F04101F0D4FE264DD5F848802F6B78
:10E4F8006C6B0646244809F07BF908F500535A6806
:10E50800224B9A4206D0224809F072F90324204689
:10E51800BDE8F0812A6BA242904404D11D4809F05D
:10E5280067F90024F3E7BAB94FF44053197814296E
:10E5380082BF5969184BB1FBF3F108F5005398BF36
:10E5480011461878142888BF5A69144884BF124B9A
:10E55800B2FBF3F209F04CF9E21B02F6FF7222F467
:10E568007F6222F00F024146F019FFF757FF044679
:10E5780018B10B4809F03CF9C9E7BDE8F04101F0D2
:10E5880063BD00BFBC420020B2950F00DBE5B1516E
:10E59800D7950F000B960F0040420F001D960F00F5
:10E5A80046960F002DE9F041484D494809F020F9F9
:10E5B800EB6AAA2B73D009D8012B19D0A52B64D0EC
:10E5C800444809F015F90020BDE8F081AC2BF7D1DB
:10E5D800414809F00DF9414809F00AF9FFF780FFB1
:10E5E8000446002863D03E4809F002F901261CE0E1
:10E5F8003C4809F0FDF86F6AD5F8488001F022FE22
:10E608002C6B0619384809F0F3F82B6B08EB03015B
:10E618008E4214BF3A1B00223046FFF7FFFE044625
:10E6280048B1324809F0E4F80026EA6A3048214641
:10E6380009F0DEF811E001F005FE3946224607F040
:10E6480077FAA96A884206461AD12A4809F0D0F80A
:10E658000123C5E90763AF612646274801F0E8FDB5
:10E66800264B274800221A7001F0EEFC38BB5EB337
:10E678002B6A012B28D1234809F0BAF80220A3E716
:10E688000246214809F0B4F8E6E7204809F0B0F856
:10E69800FFF726FF01260446002CDED0C5E71C48FC
:10E6A80009F0A6F8FFF77CFE00260446F4E7FFF71A
:10E6B80077FE044608B1174896E70126CDE71648C5
:10E6C80009F096F803207FE701207DE7BC4200208F
:10E6D8005F960F006B970F0014970F0022970F009B
:10E6E8003F970F0080960F008A960F0046960F00FE
:10E6F80084970F00A5960F00E0420020F12A002021
:10E708009DE30E00B6970F00BA960F0002970F0010
:10E718000B970F0055970F0012980F0010B50024A3
:10E72800D4F8F83F013304D1084940F6F87002F0F4
:10E73800AFFED4F8FC3F013307D1BDE810404FF4D9
:10E748007E2140F6FC7002F0A3BE10BD00C00E0092
:10E758000A4AD2F800347BB109480023D2F80815D8
:10E76800D940C90748BF03F5C07103F1010348BF89
:10E7780042F82100072BF1D1704700BF000001408B
:10E788003546526E08B5074BD3F8003423B1064816
:10E7980009F02EF8FFF7DCFFBDE808400120FEF77E
:10E7A800EFB800BF000001402C980F00054B002275
:10E7B80082B0C3F80021D3F800310193019B02B065
:10E7C800704700BF0000014038B5174D2B7803BBD8
:10E7D800164BD3F80024EAB1D3F80445144821466F
:10E7E80009F006F840F616539C42B8BF1C46A4F53B
:10E7F8004864FFF7ADFF21460E4808F0F9FF0E49BF
:10E808002046FFF7A7FD0D4B4FF480321A60012315
:10E818002B7038BD08494FF48040FFF79BFD08482E
:10E8280008F0E6FFF3E700BFF22A002000000140ED
:10E838003A980F0053980F008DE70E0000E100E0B2
:10E8480085980F00034BD3F800340BB1FFF780BF56
:10E85800704700BF0000014028B139B10023C1E969
:10E8680000301846704748F21050704748F213506D
:10E87800704730B1036848F240508B4208BF00200F
:10E88800704748F21050704728B148F21150914231
:10E8980008BF0020704748F21050704770B5064610
:10E8A8000C461D46FFF7D8FF50B9B3794AB1AB42C1
:10E8B8000AD11146204600F0FCF808B9044B236041
:10E8C80070BD48F21050FBE748F21150F8E700BF5E
:10E8D8007052464D2DE9F0470C4606460F49204632
:10E8E800DDE9088915461F46FFF7C3FFA0B963682D
:10E8F8005A79494652004046FFF7C6FF60B94DB104
:10E90800CDF820803B462A4621463046BDE8F047F0
:10E9180000F0D7B848F21050BDE8F0877052464D65
:10E9280010B5044638B149B10B684160984708B939
:10E93800044B236010BD48F20150FBE748F2105029
:10E94800F8E700BF6E524648F0B4134648B107686E
:10E95800094EB7420AD161B12AB14368F0BC5B687D
:10E96800184748F201531846F0BC704748F2025362
:10E97800F9E748F21053F6E76E524648F0B460B132
:10E9880007680C4EB7420CD171B143681568DC6852
:10E99800A5420CD3F0BC9B68184748F20150F0BC64
:10E9A800704748F20250FAE748F21350F7E748F286
:10E9B8001450F4E76E524648F7B50446DDE9086797
:10E9C80015460193FFF7ACFF68B9019A294620461E
:10E9D800FFF7BAFF38B93A463146204603B0BDE8DA
:10E9E800F040FFF7CBBF03B0F0BD0000F8B50A4F09
:10E9F8000A4C0B4EE41B0123E40833700025A542A2
:10EA080003D1022333700020F8BD57F835309847FA
:10EA18000028F9D10135F2E7EC8E0F00EC8E0F00DB
:10EA2800F32A002001390144814200D2704703785B
:10EA38000A7800F8012B01F80139F5E7013A024498
:10EA48000139824200D2704711F8013F02F80139BA
:10EA5800F7E770B516460D46FFF7F0FF3246A919DD
:10EA68003044BDE87040FFF7E9BF38B50D460446AD
:10EA7800FFF7D8FF29466019BDE83840FFF7D2BF35
:10EA880013681F2B10B5144607D90022083007F069
:10EA9800FCFC08B92023236010BD48F21450FBE7A2
:10EAA800083007F0CFBC083007F09CBC43689B686F
:10EAB800184708B5436808305A79FFF7CAFF00209D
:10EAC80008BD2DE9F0410C469CB008461F4603924C
:10EAD800FFF7ECFFD4F80480039998F80550BD427D
:10EAE80028BF3D4606462A4604A8FFF7A7FF98F820
:10EAF800052022990CA8FFF7ACFF00960CAB2A461C
:10EB080004A904F1080008F015FC002848F2425056
:10EB180018BF00201CB0BDE8F0810000831F012B46
:10EB280010B5044602D8002001F058FB034B1B68BF
:10EB38001BB12046BDE81040184710BDF42A00203C
:10EB48000C4B10B518600C4808F052FE0020FFF777
:10EB5800E5FF0A4801F018FB044620B9BDE810405B
:10EB6800064801F003B90146054808F041FE204671
:10EB780010BD00BFF42A0020709A0F0025EB0E008C
:10EB8800839A0F006CDF70476DDF704772DF704744
:10EB980073DF704774DF704775DF704776DF704743
:10EBA8007ADF70477CDF70477DDF70477FDF704713
:10EBB80086DF70478FDF704790DF7047A8DF7047A8
:10EBC800AADF7047ADDF7047AEDF7047B0DF704730
:10EBD800B1DF7047B5DF704762DF704766DF7047A7
:10EBE80013DF704707B501460190054808F000FE9D
:10EBF8000199044803B05DF804EB07F0C7B800BFFB
:10EC0800AD9A0F00088F0F0038B51B4D2C6814F013
:10EC1800010428D0194B98422CD0194C194808F0F7
:10EC2800E7FD22884FF6FF739A421ED0164808F077
:10EC3800DFFD2B68208843F0040313212B60FFF7C6
:10EC4800ADFF044678B9114DC82445F001054FF4CD
:10EC58007A40A847013CFAD108F0E6FF044610B90B
:10EC68000B4808F0C5FD204638BD0A4B1878FFF759
:10EC780091FFF1E70024F6E7A03B0020EC8E0F009F
:10EC880052260020BF9A0F00DC9A0F00609F0F00E9
:10EC9800EB9A0F00502600207FB50023CDF80B30EB
:10ECA8008DF80F300A4BADF806109B89ADF8083087
:10ECB80001238DF80A300DF10603CDE90430054B28
:10ECC80002A91888FFF780FF07B05DF804FB00BFB2
:10ECD8006A3B00205226002010B5044686B0002169
:10ECE8000D2202A8019109F071FC2378082B0BD1A1
:10ECF800384A394913880988013B9BB21380F9B116
:10ED0800F3B9032311802370627821788DF80510F8
:10ED18006023012A8DF804308DF8062012D02F4880
:10ED280008F066FD63780B2B12D100F0F9FC8DF822
:10ED38000700002000F0EEFC042101A8FFF7ACFF5B
:10ED480006B010BD062905D0082929D0032927D0E7
:10ED58000321F2E7E1688DF80710D4E90123080AD6
:10ED68008DF80800080C090E8DF80A10110A8DF8A4
:10ED78000B208DF80C10110C120E8DF80E201A0AAB
:10ED88008DF80F308DF810201A0C1B0E8DF80D1011
:10ED98008DF809008DF811208DF812300F21CCE77D
:10EDA800D4E90123110A8DF807208DF80810110CF9
:10EDB800120E8DF80A201A0A8DF80B308DF80C20E7
:10EDC8001A0C1B0E8DF809108DF80D208DF80E30D9
:10EDD8000B21B2E7AA3B0020A83B0020049B0F00B0
:10EDE80008B50A490A48062209F020FC58B106224B
:10EDF8000649084809F01AFC074B044A002808BFCE
:10EE08001346184608BD014BFBE700BF1CB00E00B7
:10EE1800389B0F003F9B0F002B9B0F00007840286A
:10EE280092BF00F00F0000F04F003738704708B568
:10EE38000246FFF7F3FF0346501CFFF7EFFF00EB16
:10EE48000310C0B208BD000070B518228CB00021B4
:10EE58000DEB020009F0BAFB0123282237488DF890
:10EE6800183008928DF82D3008F0C2FC1623ADF842
:10EE78000630FFF7B5FF04463148FFF785FE08B1B5
:10EE8800FDF71CFC2046FFF7D2FF2D498871A01C16
:10EE9800FFF7CDFF4871201DFFF7C9FF0871A01DBE
:10EEA800FFF7C5FFC87004F10800FFF7C0FF8870BE
:10EEB80004F10A00FFF7BBFF0B7848706FF34703B4
:10EEC80008460B70FFF75EFE08B1FDF7F7FB1D4C17
:10EED80002940023CDE9033305930223062223700D
:10EEE8002371592309260125A27063710322FE2389
:10EEF8006570E270A3710DF10601A019ADF80C6000
:10EF0800FFF752FEB8B9BDF8063026725A19E271F9
:10EF1800BDF80C200C4C134402A906AA2046ADF8F3
:10EF28000C30FFF733FE30B92078FFF733FE207836
:10EF38002946FFF72DFE0CB070BD00BF469B0F00A1
:10EF4800142B00207E3B002050260020F0B50388BB
:10EF5800242B8BB0044637D80F2B04D8012B00F094
:10EF68003E810BB0F0BD103B142BFAD801A252F829
:10EF780023F000BF01F00E0031F00E0087F10E0003
:10EF88004DF10E003FF30E006BEF0E006BEF0E001D
:10EF98006BEF0E006BEF0E006BEF0E0053F30E00DD
:10EFA8006BEF0E006BEF0E006BEF0E006BEF0E00B9
:10EFB8006BEF0E006BEF0E00BDF10E00ABF10E0013
:10EFC8001DF10E003DF10E00503B9AB2062AC8D83A
:10EFD800062BC6D801A252F823F000BF5DF00E0040
:10EFE800F3F10E0053F30E006BEF0E006BEF0E0003
:10EFF800CDF00E00D3F10E009748984D08F0F8FBBD
:10F00800A3882B80964B1B680BB101209847954924
:10F018002888FFF7C1FD01460028A2D092480BB00E
:10F02800BDE8F04008F0E4BB8C4B4FF6FF721A8045
:10F038008E4B1B685A0704D4FFF706FF08B1FDF78B
:10F048003DFB874B1B68002B8BD002200BB0BDE823
:10F05800F0401847864EE288B3889A4281D18548A5
:10F0680006F070FE054628B983480BB0BDE8F040AD
:10F0780008F0BEBBF4230146228A804808F0B8FB9A
:10F08800228A04F11201284609F06AFA182200219E
:10F0980004A809F09BFA08238DF81030784B0693E2
:10F0A800784B0596CDE9073504A8238AADF82430B6
:10F0B80000F048FE00283FF454AF6E48294606F099
:10F0C80065FE4EE7E488F62C214621D8E31E9B070F
:10F0D8000DD0E31F9BB2013B5A4202F0030203F03A
:10F0E800030304F1FF3458BF5342E41AA4B266483C
:10F0F800224608F07DFB594B21461888FFF76AFD28
:10F1080000283FF42EAF0BB0BDE8F040FDF7D6BAAB
:10F11800F724ECE75D4808F06BFB0022A08804A9FF
:10F12800CDE90422FFF748FD00283FF41AAFFDF7A8
:10F13800C5FA16E7C289418955480BB0BDE8F040C9
:10F1480008F056BB5348454C08F052FB0223049381
:10F15800208802AB04AA42F605210593FFF732FD89
:10F1680008B1FDF7ABFABDF808104B4808F040FBB2
:10F17800002320881A468521FFF718FDD4E7474861
:10F1880008F036FB6189464808F032FB218945487A
:10F1980008F02EFBA189444808F02AFBE18943487E
:10F1A8003DE7037A427A817A41480BB0BDE8F040E6
:10F1B80008F01EBB3F4808F01BFB0023A088ADF8F1
:10F1C800103004A9FFF7F6FCAEE7A379002B7FF413
:10F1D800C8AE224B13211888FFF7E0FC90E71F4BBD
:10F1E80000211888FFF7FAFC8AE7A379002B3FF47F
:10F1F800B8AE022B7FF4B5AE1D4D2189AA89914284
:10F208007FF4AFAEA27B012A7FF4ABAE4FF480321D
:10F218000592228A114EADF81820628AADF81A209C
:10F2280004F11402079201AF298A3088049302AAD4
:10F2380002930397FFF7C6FC00283DD13846FEF736
:10F24800E5FCC8BB40F2FD133088ADF8143004A9C2
:10F25800FFF7BCFC85E600BF559B0F005226002037
:10F26800A43B0020669F0F005F9B0F00A03B00207F
:10F278006A3B0020088F0F008D9B0F00AC9B0F008E
:10F28800E1EC0E00EDEB0E00CC9B0F00129C0F0082
:10F29800439C0F00819C0F00A99C0F00CC9C0F0081
:10F2A800F39C0F00099D0F001F9D0F00319D0F005B
:10F2B800469D0F00809D0F00002304A93088ADF8FB
:10F2C8001430FFF783FC014600287FF44AAE182269
:10F2D80004A809F07BF9237D214A8DF81030022B10
:10F2E800059506921DD0062B10D0012B10D11D4B71
:10F2F8001A881D4B1A80637DD4F816200893012BB9
:10F30800099205D1194800F069FF01E0637D08936F
:10F3180004A800F017FD014600283FF422AE144867
:10F328007DE6144808F064FA0E4AB4F815301380E4
:10F338000D4A1380ECE7104808F05AFA0023A08819
:10F348001A461946FFF734FCDAE60023A0881A4665
:10F358001946FFF73DFC08B1FDF7B0F9074884E608
:10F36800E1EC0E00A83B0020AA3B0020EC8E0F0029
:10F37800BB9D0F00A99D0F00EF9D0F00159E0F006C
:10F388002DE9F0413C4B94B005464FF6FF721A80C8
:10F3980001204FF659632A4602A98DF80A00ADF8F4
:10F3A8000830FFF70BFC0446002861D1334B04AA50
:10F3B80003F11007164618685968144603C4083341
:10F3C800BB422246F7D1A91C3046FFF705FC04468C
:10F3D80000284DD101461C220DA809F0F7F89DF828
:10F3E80034300C9443F004038DF834300223ADF824
:10F3F8000C30AB788DF80E3003238DF80630F423EB
:10F40800CDE90A44ADF82C302B464FF4885833F830
:10F41800040BADF8048003AF01AE08AA0DA9089744
:10F428000996FFF7CDFB044610BB01461C220DA828
:10F4380009F0CCF818238DF834300123ADF80C30DE
:10F44800AB788DF80E3013238DF806301723CDE9ED
:10F458000A44ADF82C302B4608AA33F80C0B0C9450
:10F468000DA9CDE90876ADF80480FFF7A9FB04469D
:10F47800204614B0BDE8F08152260020489F0F00B6
:10F488007FB54C4D2B6813F00104064640F0908080
:10F49800494808F0ADF9494B49481E6006F03BFC65
:10F4A800029400F058F9044600286ED145494648B0
:10F4B80008F09EF94348FFF793FB0446002864D1FF
:10F4C800424808F095F908F071FB044600285CD121
:10F4D80002A808F03DFC0446002856D13C4808F034
:10F4E80087F902A9012008F03DFC044600284CD108
:10F4F800384808F07DF902A808F0C8FC044600283E
:10F5080043D100F015FE002842D0334800F000FE39
:10F518002B6843F002032B60112302A88DF80430F6
:10F52800FFF732FB044600282FD19DF8093002A8C6
:10F5380001338DF80930FFF725FB044628BB2B68FB
:10F548009A0729D5244C2548A269211D08F050F9AD
:10F55800A269211D92B201A8FFF724FB0446A0B9B5
:10F568001F48FFF71DFB044678B91E48FFF708FF40
:10F57800044650B91C4B1B78DB0713D42B681B4877
:10F5880043F001032B6008F033F9204604B070BD46
:10F59800174808F02DF9BFE7164808F029F9164969
:10F5A8001422D7E7FFF750FC0028E7D00446ECE721
:10F5B8000024EAE7A03B00204C9E0F00A43B00205B
:10F5C800088F0F0000C00E006B9E0F008B9E0F006F
:10F5D800A09E0F00B79E0F00F82A0020E99E0F009A
:10F5E800669F0F006A3B0020E02A0020299F0F0039
:10F5F800CF9E0F000A9F0F00379E0F0037B5426855
:10F608000446007882B9104D10491346012808BFF6
:10F618002946A2680E4808F0EBF8636993B1E068E0
:10F6280003B0BDE830401847074D0849002301934F
:10F6380023690093012808BF2946A368054808F0F4
:10F64800D7F8EAE703B030BD6E9F0F00749F0F0034
:10F658007A9F0F00A09F0F0008B548B1074808F02F
:10F66800C7F807490748BDE80840002206F0A8BBCC
:10F67800054808F0BDF80549F4E700BFDC9F0F0016
:10F6880068B80F000826002002A00F003CB80F0041
:10F69800F7B51F46002304460D4616460093134649
:10F6A8000A460146094808F0A3F821460848009789
:10F6B80033462A4606F088FB044618B10146054839
:10F6C80008F096F8204603B0F0BD00BF2AA00F004E
:10F6D800082600206DA00F0070B5002304460D46D3
:10F6E80016460A460146084808F082F833462A4674
:10F6F8002146064806F06FFB04460146044808F018
:10F7080077F8204670BD00BF9AA00F000826002099
:10F71800D7A00F00014B18700B207047AC3B00209E
:10F72800024B002218781A70704700BFAC3B0020CB
:10F7380018DF704730B585B0054610220C4668467C
:10F74800002108F043FFA408684601950294FFF7DA
:10F75800EFFF05B030BD1FB50023CDE9013303939A
:10F76800684602230093FFF7E3FF05B05DF804FB4A
:10F778004FF000534FF480521A6000207047000089
:10F7880010B5044808F034F8034BBDE810401B6876
:10F798000620184704A10F00B83B00200A2803D907
:10F7A8000B38C0B2FFF7B6BF7047000030B504464B
:10F7B80087B0002006F016FB014660B118211E4AEA
:10F7C800204603F0BDFF014660B31C4807B0BDE802
:10F7D800304008F00DB81822684608F0F7FE0423F8
:10F7E800174D8DF80030174B1A6D2B689A421BD1B4
:10F7F800154807F0FDFF154B2968186801F0E0FA75
:10F808008DF80100FFF7CAFFD4E901138DF8010054
:10F81800684698470E4800F017FC9DF801100D48FF
:10F8280007F0E6FF07B030BD01238DF801306846C8
:10F83800D4E901139847F0E7B5F70E0038A10F0097
:10F84800B03B0020BC42002061A10F00B43B002067
:10F8580089F70E0090A10F00F0B5044687B000218B
:10F868001822684608F0B2FE21788DF800100125AC
:10F878008DF801501B2900F23D82DFE811F01C00D1
:10F88800BC00B000BC00BC003B02BC00A900BC002E
:10F89800A20033004900B4003B023B023B023B029A
:10F8A8003B023B023B029900210021003B023B0244
:10F8B8003B023B022C02AA4807F09AFF8DF804503D
:10F8C8009DF80110A74807F093FFD4E90113684693
:10F8D80098479DF80130012B00F0FD81A24B0520CF
:10F8E8001B68F7E1A14807F083FF4FF08053D3F876
:10F8F80000210192D3F804210292D3F80C2192023C
:10F908000492D3F81021920203921B690593D7E75A
:10F918009748984D07F06CFF217C974807F068FFDF
:10F928004FF440532A6A58689449884214BF012307
:10F938000223012A4FF001028DF80120227C08BF22
:10F94800013352B902238DF80430EB6802938C4BD3
:10F9580003934FF490330493B2E7012A12D18842FB
:10F9680010D100234FF440528DF804301178142937
:10F9780088BF536902934FF4805303934FF4405365
:10F988009B68E8E79A4209D201238DF80430AB68F6
:10F99800029300F07BFCAB690390DCE7794807F041
:10F9A80027FFFF238DF804300023CDE90233D2E787
:10F9B800754807F01DFF75490C2201A808F059FE8B
:10F9C8007EE7734807F014FF237C8DF8043077E74F
:10F9D800704807F00DFF238AADF8043070E76E48D1
:10F9E80007F006FF6CE76D4807F002FF5E4B072043
:10F9F8001B68984764E70629694D01D0012901D1A0
:10FA080023692B702B78012B07D0022B6AD065480D
:10FA180007F0EEFE00232B70FCE0013907293FF6C2
:10FA28004FAF01A353F821F051FA0E00C9F80E00A8
:10FA38006FFA0E00AFFA0E00C9F80E00DFFA0E00DA
:10FA4800C9F80E0081FA0E00574807F0D1FE464B60
:10FA580003201B689847606900F036FFFFF79EFE99
:10FA68008DF801002CE7514807F0C2FE414BDA6BD4
:10FA78001B6C0192029323E74D4807F0B9FEA18A57
:10FA8800206900F039FFFFF789FE3A4B8DF8010035
:10FA9800DA6B1B6C0293E3680192002B3FF410AF02
:10FAA800206998470CE7434807F0A2FE42494348BB
:10FAB80000F080FFFFF772FE01288DF801007FF447
:10FAC800FFAE002000F0C0FA08B93D4888E70A23D5
:10FAD8008DF80130F4E63B4807F08AFE4FF40073D6
:10FAE8000393C3E7013907293FF6EAAE01A353F8A8
:10FAF80021F000BF1DFB0E00C9F80E0091FC0E009E
:10FB0800ABFC0E00C9F80E00E3FC0E00C9F80E00AD
:10FB18002FFC0E002C4807F06BFE00F011FF20B9F7
:10FB28002A4807F065FE0823D2E7616921B9284809
:10FB380007F05EFE0323CBE7C1F30B0343B10D4B84
:10FB48001D4A5B6D12680B44934201D02148EFE7D0
:10FB5800B1F5805F42D9204807F04AFE0423B7E791
:10FB6800B8A10F0090A10F00B83B0020DBA10F0047
:10FB7800FEA10F00BC42002021A20F00DBE5B1511D
:10FB880000C00E003EA20F0055A20F0004C20E00D6
:10FB980079A20F0090A20F00AAA20F00CEA20F0018
:10FBA8005426002066A60F00E6A20F0010A30F003F
:10FBB80034A30F005DA30F00B03B0020B43B00202E
:10FBC80088A30F00ADA30F00D7A30F00FEA30F005B
:10FBD80033A40F004CA40F006DA40F00484D494BEF
:10FBE800686D1B680A189A4204D90246464807F00D
:10FBF800FFFD98E7EB6CAB64444B69641B682865B0
:10FC08002863002201211844FFF766FD20B140480F
:10FC180007F0EEFD05235BE7AB6C2A6D696C3D4888
:10FC280007F0E6FD4CE63C4807F0E2FD00F088FEF0
:10FC380000283FF478AF324DA18AD5E914329B1AD7
:10FC48006A6C0B44934201D9344871E72F4B2F6BF0
:10FC58001B68206905F148021F4405F069FFE36845
:10FC6800A28A216906463846FFF712FD08B1E36803
:10FC780016E7A38A2A6BAE641A442A632A6D029691
:10FC880013442B6501931BE61D4D254807F0B0FD75
:10FC9800AA6C296D234807F0ABFDAB6C02932B6D62
:10FCA800F0E7214807F0A4FD154BD3E91402596C7D
:10FCB800821A8A4203D01D4807F09AFD33E79A6CEE
:10FCC8005865002120465964DA64FFF76FFD184B28
:10FCD8001B680420984707B0F0BD164807F088FD58
:10FCE800074B1548996C1A6D02914FF48053019295
:10FCF800039395E7114807F07BFD0223E8E600BF70
:10FD0800BC420020B03B002091A40F00B43B00206F
:10FD180002A50F0019A50F0054A50F007AA50F0022
:10FD280091A50F00B2A50F00C8A50F00F0A50F0000
:10FD3800B83B002014A60F003BA60F0086A60F00B4
:10FD4800FFF78ABD836810B553B1064A182103F03E
:10FD5800F7FC044610B1044807F04AFD204610BDE0
:10FD68000724FBE749FD0E00A5A60F0038B5054698
:10FD7800C0B10120FFF770FC044648B900F096FDB9
:10FD880000F0DEFD30B9084B00201D60FFF7C2FC13
:10FD9800204638BD0549064800F00CFE0128F2D07F
:10FDA8000324F5E70724F3E7B83B0020B03B002025
:10FDB800B43B00202DE9F04116464FF46072054629
:10FDC80088461F4608F032FC044648B9164807F032
:10FDD8000FFD16B90020BDE8F0812046B047F9E7CD
:10FDE800124807F005FD2946114807F001FD0022D9
:10FDF80001212846FFF770FC20B10E4807F0F8FCF7
:10FE08000320E8E74FF460724146384608F0A8FB43
:10FE180033464FF4607239462846FFF739FC00280C
:10FE2800D8D00548EAE700BFC1A60F000BA70F000E
:10FE38001FA70F003FA70F0062A70F002DE9F04191
:10FE4800524C2368013300F0828000225821201D83
:10FE580005F06EFE27683A1A57425741DFF8588175
:10FE68004B4ED8F800502B68013300F08B800022ED
:10FE78005821281D05F05CFE2B68834269D16C6807
:10FE8800012C0AD00022C32105F5187005F050FE98
:10FE9800D5F85C42231A5C425C41002F5BD03D4898
:10FEA80007F0A6FC39493A484FF4607208F058FB4D
:10FEB8002CB33948394D07F09BFCD8F800301A1D8F
:10FEC80003F11407106851682C4603C40832BA427B
:10FED8002546F7D1324D03F1180203F130071068B7
:10FEE80051682C4603C40832BA422546F7D15A6BEA
:10FEF8002C48726303F51771C82208F031FB776844
:10FF0800012F3DD1284C2948A4F5E47507F070FC71
:10FF18000FCD0FC40FCD0FC40FCD0FC495E80F0040
:10FF280084E80F0004F11005A4F5DC740FCC0FC5AC
:10FF380094E80700002386F8603286F8E232F36915
:10FF480086F8A17285E80700C6F8A23216E00027F5
:10FF580084E70024A1E744B1154807F049FCD8F824
:10FF680000100B484FF46072C7E7124807F040FCD6
:10FF780007484FF46072002108F028FB02237360E1
:10FF8800BDE8F081002FF0D0002488E700F00F00D2
:10FF9800BC42002089A70F009EA70F00C042002086
:10FFA800D442002018450020E045002085A80F0015
:10FFB800C8A70F0021A80F005826002070B50C4CC8
:10FFC800054600225821201D05F0B2FD00222060C0
:10FFD800C32104F5187005F0ABFD2A46C4F85C028D
:10FFE8002146044B0448BDE87040FFF7E3BE00BF5C
:08FFF800BC4200203C3F002048
:02000002F0000C
:1000000000F00F0037B50B4D01900C460A482968E7
:1000100007F0F2FB2146094B019A2868FFF7CEFE54
:10002000014628B1064803B0BDE8304007F0E4BB04
:1000300003B030BD58260020B1A80F00BC3B002003
:10004000DBA80F000149FFF7DDBF00BF00F00F0084
:1000500038B505460020FFF7B5FF044618B9034937
:100060002846FFF7CFFF204638BD00BFBC42002026
:1000700013B504460C4807F0BFFB2046FFF7F0FA23
:1000800030B10146094807F0B7FB032002B010BDAC
:100090000190FFF7D7FE0198FFF7DAFF0028F5D0AF
:1000A00001460348EFE700BF18A90F003BA90F0066
:1000B00066A90F0010B5084C4FF40072FF2104F13F
:1000C0005C0008F087FA2022002104F1380008F0D3
:1000D00081FA0023236310BDBC42002029DF704752
:1000E00038B50C4D0446D5F8643378B101330FD1DF
:1000F00000221821043005F01FFD21462060072250
:1001000005F55970BDE83840FFF7E8BF0E2038BD4F
:100110000820FCE700F00F0050B1064B03F11C0271
:1001200053F8041B40F8041B9342F9D10020704798
:100130000E20704764F30F0010B5064C0022182102
:10014000204605F0F9FC54F8043C1B1A584258416B
:1001500010BD00BF68F30F0010B50B4CD4F824336A
:10016000D4F86423134001330CD0084807F044FB53
:100170004FF47F2001F078F9C92221464FF47F2007
:1001800001F0A0F9002010BDBC420020A0A90F0082
:100190002DE9F041DFF848800E4DA5EB0805ED088C
:1001A000074629460C4807F027FB0026AE4201D13E
:1001B00000240AE058F8363038469847044638B1EB
:1001C00002463146054807F017FB2046BDE8F0819E
:1001D0000136EBE7FC8E0F00C7A90F00EBA90F005B
:1001E000EC8E0F002DE9F0410F4C104D2D1BED084A
:1001F000074629460E4807F0FFFA002604F10408D6
:10020000AE4201D100240AE058F83630384698470B
:10021000044638B102463146064807F0EDFA20465A
:10022000BDE8F0810136EBE7EC8E0F00FC8E0F008D
:1002300017AA0F003CAA0F00034A00230360436083
:1002400083601363704700BFBC4200204FF44053EB
:10025000074A5968914201BF986800F6FF7020F480
:100260007F6020F00F0018BF4FF48050704700BF30
:10027000DBE5B15108B5FFF7E9FF054B9B69184471
:1002800000F6FF7020F47F6020F00F0008BD00BF73
:10029000BC420020FFF7DABF4FF4805070470000E7
:1002A0002DE9F04F87B00646584802920593049115
:1002B00007F0A2FA31465648564FDFF8A081DFF822
:1002C000A0A107F099FA049B5348002B14BF3946AC
:1002D000414607F091FA029B5048002B14BF394663
:1002E000414607F089FA059B4D48002B14BF39465B
:1002F000414607F081FA4FF440534A4859684A4B47
:1003000099420CBF3946414607F076FA474807F054
:1003100073FADAF81820DAF82010454807F06CFA7A
:10032000DAF82420DAF82C10424807F065FA4FF08A
:1003300000095FFA89F3B9F1010F01933FD0022B55
:100340004CD0FFF797FF029B0546002B35D0DAF81B
:100350002040631E5C425C41374B3848A3EB050BE1
:10036000049B4946B34538BF0123039307F044FA81
:100370002946334807F040FAB34534BF3946414671
:10038000304807F039FA002C14BF394641462E4850
:1003900007F032FA039B2D48002B14BF3946414623
:1003A00007F02AFA039BEBB1E4B909F10109B9F1AD
:1003B000030FBED1B34517D31FE0029CCCE7FFF774
:1003C00045FF059B05463BB94FF44052164B546818
:1003D000E41A18BF0124BFE74C46BDE701244FF4DF
:1003E0008055B9E7B34506D2194807F005FA04204D
:1003F00007B0BDE8F08F019B2BB1164807F0FCF960
:100400001548FFF719FF0020F2E700BF71AA0F009F
:100410008FAA0F0066AA0F00A4AA0F00B5AA0F00AA
:10042000C3AA0F00D8AA0F00DBE5B151E8AA0F005C
:10043000F7AA0F0017AB0F0000A00E0037AB0F009C
:1004400041AB0F0056AB0F006BAB0F007EAB0F0044
:100450008FAB0F00BBAB0F00D44200206BAA0F0084
:10046000BC4200202DE9F04F3649374E8A6B374D9C
:10047000DFF8F890DFF8F8A0DFF8F8B085B06F4645
:100480005C313846FCF78AFF97E80F004FF0000810
:1004900086E80F002E4BF3604FF447724146284622
:1004A00089F80080CAF80080CBF8008008F092F844
:1004B00028492A463046FDF70EFA044618B9264860
:1004C00007F09AF90DE099F80090B9F1000F04D007
:1004D00095F86C312C7843B33CB1204807F08CF987
:1004E0000024204605B0BDE8F08F95F87241002C3D
:1004F000F7D0DBF80020DAF800103846FCF74EFFA2
:1005000097E80F0086E80F004FF4B272414605F5F8
:10051000BA7008F05FF8124905F5BA723046FDF777
:10052000DAF9044658B90F48CAE7002CD9D0AC799B
:10053000002CD6D008350C4B4C461D60D1E705F594
:10054000BA75F8E7BC420020884900206C460020BC
:10055000E1050F00009A0F00CDAB0F00FAAB0F00C2
:100560004C990F0019AC0F00444A00206846002047
:10057000644600206046002010B590F8552012F027
:10058000FB0F08D190F864302BB1836E0BB30B6076
:100590000124204610BD12F0010303D090F856301C
:1005A00003B1836D9207F1D590F85C20002AEDD05D
:1005B000006EB0F5903F01D80344E7E701464FF4E1
:1005C0009032054807F018F90424044807F014F99C
:1005D000DFE70F24F9E700BF55AC0F0072AC0F0046
:1005E0005B68DA68104B9A4230B40AD10F4C21682C
:1005F000D0E9013211B90E48016821B10D4B00223A
:100600001A7030BC70471A4413F9015B002DA2EB3D
:100610000301F9DB2360074B0160012230BC06486F
:100620001A7007F0E9B800BF4C990F00644600202B
:100630006046002068460020A3AC0F004FF44053F2
:100640001A4A5B68934210B52DD000F500514C68F2
:10065000A11A4C424C41934223D100F5005042680C
:100660009A421ED14FF440531A78142A82BF5A6915
:100670000F4BB2FBF3F2037898BF0022142B88BF14
:1006800043690C4886BF0A49B3FBF1F300239A4241
:10069000094918BF0146094814BF0124002407F086
:1006A000ABF8204610BD0024D5E700BFDBE5B15113
:1006B00040420F00C0AC0F00C6AC0F00CCAC0F0026
:1006C00000B591B0FEF796F9684608492022FEF77A
:1006D000C4F96A46064907484023FEF7E3F8064B8B
:1006E00001221A7011B05DF804FB00BFA88F0F0043
:1006F00098490020B0980F003C4600202DE9F041B9
:10070000A2B007460C4615461E467822202300213B
:1007100004A80293DDF8A08007F05CFF0023039398
:100720002C4B1B780BB9FFF7CBFF2B4807F064F875
:1007300034B92A4807F060F8132022B0BDE8F081F0
:1007400027B1274807F058F81620F6E74146254814
:1007500007F052F802AB0193234B00932349434621
:10076000324604A8FEF72CF988BB402D2FD1204B30
:10077000214604F140021C4651F8040B43F8040BD7
:100780009142F9D11B4807F037F819482021FEF7AC
:1007900070F94023CDE900431749029B124A03A890
:1007A000FEF79CF8014668B1144807F025F8144894
:1007B00007F022F8134807F01FF8134807F01CF859
:1007C0000520BAE7114807F017F80120B5E70A201D
:1007D000B3E700BF3C4600200CAD0F0034AD0F0066
:1007E00048AD0F005FAD0F00E049002098980F0062
:1007F000004A00207AAD0F00984900208BAD0F0011
:10080000ADAD0F00B8AD0F00BEAD0F00CAAD0F000B
:10081000F0B5ABB005460C4616461F46782220239D
:1008200000210CA8039307F0D5FE1A4B1B780BB9D7
:10083000FFF746FF2FB12946202204A8FEF702F950
:1008400004AD324621461448144F06F0D5FF03ABE1
:10085000019313490097334622460CA8FEF7B0F8DF
:1008600030B101460F4806F0C7FF00202BB0F0BDA5
:1008700020222946384607F0DDFE48B10A4806F036
:10088000BBFF0A4806F0B8FF094806F0B5FFECE7E1
:100890000120EBE73C460020D9AD0F003D4600208B
:1008A00098980F000CAE0F003DAE0F0057AE0F0032
:1008B00069AE0F0008B5044B986B08B1FFF7D2FD85
:1008C000024B187008BD00BFBC420020404A002007
:1008D00010B5044658B1B0F5007F0AD8064B002287
:1008E0001A70FFF7E7FB054B01209C6310BD032046
:1008F000FCE70420FAE700BF404A0020BC42002089
:1009000070B50F4C0646E06BA36B42189A420D4639
:1009100004D90C4806F070FF032070BD5C300A4615
:100920002044314607F020FEE36B04F140022B44E3
:1009300029463046E36305F0FFF820640120ECE728
:10094000BC42002079AE0F00014B1878704700BF01
:10095000404A002037B5144D95F86C2102B395F844
:10096000D802B5F8DA2205F5377105F5B8750F4BE1
:100970001B6800930E4B1B68FFF7C0FE012804465E
:1009800005D1281D00F024FA0128044605D00948A5
:1009900006F032FF084806F02FFF204603B030BDB6
:1009A000114610460435E2E76C4600206046002000
:1009B000644600209CAE0F00B2AE0F002DE9F84354
:1009C0002A4BD3E90E329A4206460D4606D02848F5
:1009D00006F012FF08242046BDE8F883DFF8A48063
:1009E00098F800704FB1FFF745FC224B3060294664
:1009F0001868BDE8F843FFF7BFBDFFF733FD78B3D4
:100A0000FFF7A8FF0128376004462F601BD1DFF8ED
:100A100064902946D9F80000FFF7AEFD012804468E
:100A200011D1D9F8003093F85510012903468CBF35
:100A30000021012128683A46FFF732FC30B10E4808
:100A400006F0DAFE0424FFF735FBC4E7FFF712FCDB
:100A500001463060094806F0CFFE88F80040BAE74A
:100A6000074806F0C9FE0524B5E700BFBC420020D8
:100A7000C0AE0F00444A0020DBAE0F00F6AE0F0000
:100A800012AF0F00404A002001237230FFF7C0BEB2
:100A900013B50446084623781146032B0ED8DFE829
:100AA00003F0240210190022D4F8014005F044F8A4
:100AB00084421AD00E48002106F09EFE002002B0AB
:100AC00010BD0A4600230146601C02B0BDE810407C
:100AD000FFF79EBE034600914022611C0020FFF7F5
:100AE0000DFE431E58425841E9E70120E7E700BFE9
:100AF0002FAF0F002DE9F043A3B005460E46144674
:100B0000002178221F4604A820239DF8AC8003937F
:100B1000DDF8A89007F05EFD41220021284607F08D
:100B200059FDB6F89430A34282BF442303FB04630B
:100B300093F8968085F80080B8F1030F31D8DFE88C
:100B400008F009020F2500224946384604F0F4FF58
:100B5000C5F801004A4639462846FFF799FF12E0DA
:100B600003AB01936B1C00930F494B463A4604A814
:100B7000FDF726FF0028EDD005F090FB01460B485D
:100B800006F03AFE002023B0BDE8F08344235C4326
:100B900033199A34B3F898203119681C07F0E4FC33
:100BA000D8E703484146EBE798980F0052AF0F0093
:100BB00083AF0F002DE9F043764B1D68A5B00446C6
:100BC0000F4690460A4601462846FFF75DFF00287B
:100BD00000F0DE8095F855605EBB4FF00109CDE96D
:100BE000007923463246294613A8FFF783FF0028E1
:100BF0003BD0B8F1000F00F0C780DFF8A0814122A0
:100C000013A908F2A12007F0AFFC6348C8F82C90A4
:100C100006F0F2FD6B68C8F82060C8F808300022C2
:100C20003946204604F088FF5C4B0125C3E9097072
:100C3000A5E04122002102A807F0CCFC06F0010942
:100C40004122002113A806F0020607F0C3FCB9F107
:100C5000000F00F08A8004F50051514A4868AB6DDE
:100C600090420DD04F4806F0C7FD0525B8F1000FA2
:100C700040F08280FFF71EFA284625B0BDE8F083D9
:100C800003F5FF5203F6FF73C3F30B031F32D21AAF
:100C90008B68934201D24448E5E74FF440535A68C9
:100CA00082420ED11A78102A88BF1A690B7898BF31
:100CB0000022102B8CBF0B6900239A4201D03B48C5
:100CC000D1E72046FFF7BAFC28B1394806F094FD79
:100CD0000EB93848C7E701230193AB6D009300229A
:100CE0002346294602A8FFF705FF0028BDD0AA6DBC
:100CF000A318BA1A7EB10021CDE9002113A84A46F3
:100D00002946FFF7F7FE0028AFD09DF84C3013B10D
:100D1000294806F071FDB8F1000F35D0DFF87C806E
:100D2000B9F1000F24D02046FFF788FC18B108F174
:100D30001800FFF781FA2148412202A907F014FCAC
:100D4000002E14BFAC23A523C8F82C30AB6DC8F817
:100D50003430002E3FF463AF1948412213A907F045
:100D600003FC6B68C8F80C3059E73A462346C1E7E4
:100D7000AA23C8F82C30ECE71248FFF75DFAFFF71A
:100D800099F9064B9C6477E7044B01255D6173E795
:100D900017256BE7444A0020A4AF0F00BC42002097
:100DA000DBE5B151CCAF0F001DB00F0086B00F00D6
:100DB000F3B00F0034B10F0075B10F001C450020D7
:100DC0009E450020E04200200122FFF7F3BE000014
:100DD000F8B590F8543063B190F85530032B08D82B
:100DE00090F86E20032A09D02A4806F005FD142049
:100DF000F8BD294806F000FD0F20F9E7027A0AB98C
:100E00002648F7E7C268342A04D0254806F0F4FCE7
:100E10001120EDE74FF4405522496C68028A8C425C
:100E200028D142B1416901B3D2B200F110040021CE
:100E3000CEB2B24204D81C4806F0DEFC1220D7E73E
:100E4000AE8954F8047FB74201F10101F0D1027874
:100E5000D2B1012B1CD9154B4268DB689A4217D8D6
:100E6000134806F0C9FC1020C2E7002BEFD0012B7D
:100E7000EDD1E0E712B14269002ADCD1012BE6D1C5
:100E80000278002AE3D1D6E7012B01D90948B1E75E
:100E90000120ADE7D0B10F00B9B10F00E3B10F00F1
:100EA000F2B10F00DBE5B15105B20F00BC420020EA
:100EB00015B20F0029B20F0042DF704743DF7047C1
:100EC00038B5074C051E04F1080318BF1C462368FB
:100ED0002BB11A6822605B6828469847F7E738BD4F
:100EE000504A002020B9054B01225A70FFF7E8BF95
:100EF000012802D1014A9070F8E77047484A002063
:100F000020B9034B01225A70FFF7DABF704700BFC8
:100F1000484A002038B5104C2378DBB90F4863608D
:100F2000A3602361E36000F003FB054606F0C0FE0A
:100F300008B900F017FB01232370094BD3F80034E4
:100F40000BB10123A370074A0749084806F054FC77
:100F5000284638BD8525F0E7484A0020E50E0F00F9
:100F60000000014046BF0F005BB20F003DB20F0012
:100F700037B5184CA378054603F0FF029BB110B1BA
:100F800043680120984700230DF107008DF80730D2
:100F900004F098FDE3689DF807000133E36004F076
:100FA000B5FD03B030BD0DF107008DF8072004F04A
:100FB00089FD25B1226913463BB92A602561E368A2
:100FC000002BE7D100F0E8FAE4E79D42F7D01B6878
:100FD000F2E700BF484A002037B50D4C00230DF161
:100FE00007008DF8073004F06DFDE368013BE36016
:100FF000E36833B9074BD3F8005415B900F0D9FAB8
:10100000A5709DF8070004F081FD03B030BD00BF5E
:10101000484A002000000140012813B50CD00328E5
:1010200020D038B9134B0122C3F88020BFF34F8F73
:10103000BFF36F8F02B010BD0F4C00230DF10700FE
:101040008DF8073004F03EFD23780BB9FFF762FFFF
:10105000E3689DF807000133E3600123A37004F007
:1010600055FDE7E700F07EFA02B0BDE81040FFF75B
:10107000B3BF00BF00E100E0484A002008B506F019
:1010800017FE28B94FF08043D3F81804C0F300408E
:1010900008BD000037B51B4C6378054603F0FF021E
:1010A0009BB110B143680020984700230DF1070061
:1010B0008DF8073004F006FD63689DF807000133E2
:1010C000636004F023FD03B030BD0DF107008DF81F
:1010D000072004F0F7FC25B1A268134653B92A6033
:1010E000A5606368002BE7D106F0E2FD30B1FFF7A1
:1010F000E3FEE1E79D42F4D01B68EFE700F06AFAF7
:10110000DAE700BF484A002073B50F4C00230DF109
:1011100007008DF8073004F0D5FC6368013B63607D
:10112000666836B906F0C4FD054640B1FFF7C6FE55
:1011300066709DF8070004F0E9FC02B070BD00F095
:1011400055FA6570F5E700BF484A002036DF704762
:101150004DDF70474EDF70474FDF704750DF7047FD
:1011600010B50446FFF7F6FF40B92046FFF7F0FF41
:1011700020B92046BDE81040FFF7EEBF10BD0128A2
:1011800010B5044602D100F08DFC804700F090FCC1
:10119000034668B10A2C07D00B2C07D0092C07D1C5
:1011A0000220BDE8104018470020FAE70120F8E7C8
:1011B00010BD0000012813B5044603D0032820D039
:1011C00002B010BD1D4B1B78002BF9D000230DF190
:1011D00007008DF8073004F075FC00F063FC10B1D7
:1011E0002046FFF7B3FF9DF8070004F08FFC00F0E6
:1011F0005FFC0028E4D0012002B0BDE81040FFF7FA
:10120000AFBF0E4B1B78002BDAD00D4BC02283F8FA
:10121000002301221A6000F045FC20B14FF080430A
:101220000422C3F8042300F043FC0028C8D04FF088
:1012300080434FF46072C3F80423C1E75C4A002086
:1012400000E100E038B50A4D2B78044663B906F09A
:101250002FFD58B90748002C18BF204600F02EFC7F
:1012600008B901232B7038BD8520FCE70820FAE778
:101270005C4A00206EB20F0013B500240DF1070088
:101280008DF8074004F01EFC06F012FD58B1204610
:10129000FFF766FF9DF8070004F038FC02B0BDE8D8
:1012A000104000F041BC00F038FCF3E71FB501909E
:1012B000FFF7E2FF019800F023FC06F0F9FC04467A
:1012C000A0B10120FFF74CFF044660B903A8FFF767
:1012D00045FF044638B9039BDB0704D500F0E8FB63
:1012E000034620469847204604B010BD00F00EFC8F
:1012F000F9E700001FB503788DF800308388ADF85A
:10130000043083688DF80630C3688DF807300369B0
:1013100002934369054A0393054B684653F821300D
:1013200052F82110984705B05DF804FB604A002090
:10133000684A0020024B4FF4807043F001031847C5
:1013400070B20F001F2886BF044A00F01F004FF044
:10135000A04201238340C2F80835704700030050C3
:101360002DE9F047154690F80080374A42F828509A
:10137000364A42F828304B7B06460C4683B3086851
:10138000D1F8049087004FEA890107F1A04701F1E5
:10139000A04140F20C63C7F80037C1F80037FFF7EF
:1013A000D1FF4846FFF7CEFF40F20D63C7F8003784
:1013B000C1F80037FFF7BEFFDFF8989000274FF025
:1013C000010A63681F2B8ABF4A464FF0A04203F010
:1013D0001F03D2F8102522FA03F3DB070BD507BB56
:1013E000002D1B4A434608BF2A462146301DBDE852
:1013F000F04700F055BD23681F2B86BF03F01F0385
:101400004A464FF0A0420AFA03F3C2F80C35FFF740
:1014100091FF01372068FFF795FFFFF78BFF092F3A
:10142000CFD163681F2B86BF0A4903F01F034FF01B
:10143000A041012202FA03F3C1F80C35FFF77AFF4D
:101440006068FFF77FFFCBE7684A0020604A002012
:10145000F5120F0000030050024AD2F80034002BAE
:10146000FBD0704700E001400A4908B50223C1F8EB
:101470000435BFF36F8FBFF34F8FC1F80805FFF737
:10148000EBFF0023C1F80435BFF36F8FBFF34F8F1D
:1014900008BD00BF00E0014010B5094C0123C4F8AD
:1014A0000435BFF36F8FBFF34F8F0160FFF7D4FF99
:1014B0000023C4F80435BFF36F8FBFF34F8F10BD07
:1014C00000E0014070B50E4E01231546C6F8043504
:1014D000BFF36F8FBFF34F8F0024AC4207D10023BF
:1014E000C6F80435BFF36F8FBFF34F8F70BD51F84F
:1014F000243040F82430FFF7AFFF0134EDE700BFA0
:1015000000E0014010B5034653E8000F00EA010275
:1015100043E8002494F0000FF6D110BD00F18040A4
:10152000002382B0036003680193019B02B07047FF
:10153000084A10B5147954B9012194711060918052
:10154000054A0649064806F057F9204610BD85248D
:10155000F6E700BF704A002046BF0F00BBB20F0085
:101560003DB20F00094B1A68D20704D4C02283F899
:10157000002301221A604FF080430022C3F818258F
:10158000034B044801221A7006F036B900E100E06E
:10159000784A002076B20F0008B54FF48270FFF74A
:1015A000BDFF4FF080430222C3F8042301229A605A
:1015B00008BD4FF0804208B50223C2F808334FF44B
:1015C0008270FFF7ABFF0123D360D2F81834DB033E
:1015D000FBD408BD08B54FF48070FFF79FFF4FF0B4
:1015E00080430122C3F804231A6008BD4FF08042F3
:1015F000012108B54FF48070C2F80813FFF78EFF81
:101600005160D2F80C3403F00113B3F1011FF8D08C
:10161000014B00225A7108BD704A00204FF08041F2
:1016200070B5D1F8003163B14FF48070FFF776FFE9
:10163000234B58790122C1F8082310B95A711B684D
:1016400098474FF08042D2F8043153B14FF4827082
:10165000FFF764FF0223C2F80833194B01201B680F
:1016600098474FF08044D4F8103173B14FF488702C
:10167000FFF754FF1349144806F0BEF81023C4F8CE
:1016800008330F4B02201B6898474FF08044D4F872
:101690000C31A3B10025C4F8345C4FF48670FFF719
:1016A0003DFF0A49084806F0A7F80823C4F80833A4
:1016B000034B9D71BDE870401B680320184770BD47
:1016C000704A002086B20F009BB20F00A6B20F0036
:1016D00000F1804000F5C040002382B00360036841
:1016E0000193019B02B0704703681F2B83BF03F077
:1016F0001F03036001484FF0A040704700030050F3
:1017000007B5019001A8FFF7EFFF019B00EB8300F5
:10171000D0F8003723F44033C0F80037D0F8003752
:1017200043EA0141C0F8001703B05DF804FB000074
:10173000F7B5404F3B18044693F92430002B77DA75
:101740008B78C3F34003002B0BBF0825002509202D
:101750000820854208D10424374A3849384806F021
:101760004BF8204603B0F0BD57F82560013647D14D
:1017700038196EB247F8252080F8246013B97B1918
:1017800083F84C408B785A071AD4D8073AD501A869
:101790000194FFF7A9FF019B00EB8300D0F800370D
:1017A00023F00203C0F800372648E20804F0070CD3
:1017B000012303FA0CF310F802C043EA0C0383542C
:1017C0008B780A7813F0020328D0AD0005F180452C
:1017D00005F5C0452402D5F8103523F44F3323F422
:1017E0004073C5F810351204D5F8103504F47C5454
:1017F00002F4403214431C43C5F810450024ABE703
:101800000135A6E701A84A780194FFF76DFF019B17
:1018100003F5E073920040F82320C5E7083E47FA3D
:1018200086F696F8541041EA821286F85420E5E7CD
:10183000082491E77C4A002046BF0F00CBB20F007E
:101840003DB20F00D14A002037B5224D2B18044677
:1018500093F92420072A1DDD083A45FA82F292F80E
:1018600054309B09032B10D1019001A8FFF73CFFD6
:10187000019BD0F81015D94001F00101023120463A
:1018800003B0BDE83040FFF73BBF012B0CBF022186
:101890000321F4E7D3B2072B1AD8930003F1804356
:1018A00003F5C043D3F8100540F00100C3F810055C
:1018B00002F1400040B2800080B2FFF709FF39B169
:1018C00055F8223023B101239340034AC2F8043370
:1018D00003B030BD7C4A0020006000400E4B034442
:1018E00093F92420072A02DD0021FFF709BFD3B2B4
:1018F000072B0FD8930003F1804303F5C043D3F8BF
:10190000101521F00101C3F8101501239340034A7B
:10191000C2F80833704700BF7C4A002000600040D6
:101920002DE9FF410024CDE90244534D4FF480726C
:10193000012102F1804303F5C04390B21B68012BE3
:1019400006D1D5F804330B4202D0FFF7C1FE0C4399
:101950000432B2F5907F4FEA4101EAD1464BD3F809
:101960007C31012B11D14FF4BE70FFF7B1FE4FF067
:10197000A04344F00044D3F820250292C3F8202568
:10198000D3F820280392C3F82028E3B2D3B13B4F09
:1019900001260025344210D0AB0003F1804303F54B
:1019A000C043D3F81005D3F8101557F8253023B1EC
:1019B000C1F30141C0F3052098470135082D4FEAD6
:1019C0004606E7D1002C4EDA2C4E2D4D96F95430B8
:1019D0005A1C3AD0C3F3C20110316944DAB211F88B
:1019E000081C03F03F04012703F0070307FA03F381
:1019F00019422AD001A80194FFF776FE019B03F556
:101A0000E07350F82330C3F30148B8F1020F0CBF64
:101A1000032102212046FFF773FE01A80194FFF77E
:101A200063FE019B9F403319C0F8207593F9243061
:101A300056F823304BB19109032904D0B8F1020FB5
:101A400014D1012901D1204698474FF0A042D2F885
:101A500020350293C2F82035D5F820250392134390
:101A6000C5F82025B2D104B0BDE8F081B8F1030F6C
:101A7000EBD10229E6E700BF006000407C4A00206D
:101A80000003005000F1804382B01A68002A14BF9E
:101A90000120002004D000221A601B680193019BE2
:101AA00002B07047014B1868704700BFD84A002049
:101AB000014B1868704700BFE04A00200E4A1378B7
:101AC000C3B903784FF08041C3F34003C1F88035B8
