:020000021000EC
:10C000000000042039C2010021C2010023C2010046
:10C0100025C2010027C2010029C201000000000062
:10C020000000000000000000000000002BC2010022
:10C030002DC20100000000002FC2010031C201002A
:10C04000B1FC020033C201004D8406005D210300F3
:10C0500033C2010033C2010099F70200C50A030090
:10C0600033C20100D5950600ED95060033C20100EC
:10C0700033C2010033C2010033C2010033C20100E8
:10C080002D230300AD4A030033C2010033C2010077
:10C0900033C2010033C2010089A303006906020014
:10C0A0008D06020033C2010033C2010033C2010019
:10C0B000C506030033C201000000000000000000BC
:10C0C00033C20100DD060300F5060300E58E06001D
:10C0D000F126060033C2010033C20100EDB20600B2
:10C0E00033C2010033C2010033C20100000000006E
:10C0F0000000000033C201000000000033C2010054
:10C10000000000000000000000000000000000002F
:10C11000000000000000000000000000000000001F
:10C12000000000000000000000000000000000000F
:10C1300000000000000000000000000000000000FF
:10C1400000000000000000000000000000000000EF
:10C1500000000000000000000000000000000000DF
:10C1600000000000000000000000000000000000CF
:10C1700000000000000000000000000000000000BF
:10C1800000000000000000000000000000000000AF
:10C19000000000000000000000000000000000009F
:10C1A000000000000000000000000000000000008F
:10C1B000000000000000000000000000000000007F
:10C1C000000000000000000000000000000000006F
:10C1D000000000000000000000000000000000005F
:10C1E000000000000000000000000000000000004F
:10C1F000000000000000000000000000000000003F
:04C200004F53452132
:0CC2040046424E56303132376F000000C9
:10C2100046464E7878787830000000000000000034
:10C22000FEE7FEE7FEE7FEE7FEE7FEE7FEE7FEE7E6
:10C23000FEE7FEE700F002B8FFF7FCBF0F484FF043
:10C240000701884385460E4880470E48016841F43F
:10C2500070010160BFF34F8FBFF36F8F00F01AB80A
:10C2600009480A490A4A884207D0521A05D0037879
:10C2700001300B700131013AF9D170470000042000
:10C28000B9C7010088ED00E0C0810700B027002099
:10C29000602900203A493B480A1A02D007229143FC
:10C2A0008D46394939480A1A06D00722914381F34D
:10C2B0000988022282F3148835483649364A00F04C
:10C2C00041F836483649374A00F03CF83648374995
:10C2D000374A00F037F837483749384A00F032F823
:10C2E00037483849384A00F02DF838483849394A33
:10C2F00000F028F838483949394A00F023F839481D
:10C300003949002200F036F838483949002200F057
:10C3100031F838483849091A5BF0DDFA374A904756
:10C3200025482649884205D00268043003B4904766
:10C3300003BCF7E700208646EC4600200021304A87
:10C340009047FEE7884214D0521A12D003460B439E
:10C3500013430324234206D1036804300B600431E5
:10C36000043AF9D17047037801300B700131013A7A
:10C37000F9D17047884202D002700130FAE7704765
:10C380000000042000E0032000000420000004203E
:10C39000C836080060290020E034002004C40100F1
:10C3A00004C40100587F0700C83608006029002037
:10C3B00060290020708307007083070070830700E6
:10C3C0007083070070830700708307007083070085
:10C3D00070830700C836080048420800E034002097
:10C3E000E0340020E4340020F0B70020E0340020E6
:10C3F000E434002014C8002014E8002061C20100C9
:04C40000E9C9010085
:10C40400BFF34F8F00BF064BDB6803F4E0620449BF
:10C41400044B1343CB60BFF34F8F00BF00BFFDE756
:10C4240000ED00E00400FA0582B0164B1B6801938E
:10C43400154B1B680093019B082B1FD1009B052BF8
:10C444001AD801A252F823F065C4010069C401009E
:10C454006DC4010071C4010075C4010079C40100F8
:10C4640001230CE001230AE0012308E0012306E094
:10C47400012304E0012302E0012300E00023184625
:10C4840002B07047300100103401001082B0164B26
:10C494001B680193154B1B680093019B082B1FD14C
:10C4A400009B052B1AD801A252F823F0C9C401003D
:10C4B400CDC40100D1C40100D5C40100D9C4010018
:10C4C400DDC4010001230CE001230AE0012308E09C
:10C4D400012306E0012304E0012302E0012300E03C
:10C4E4000023184602B070473001001034010010D8
:10C4F40082B0164B1B680193154B1B680093019B7C
:10C50400082B1FD1009B052B1AD801A252F823F047
:10C514002DC5010031C5010035C5010039C5010033
:10C524003DC5010041C5010001230CE000230AE0E0
:10C53400002308E0002306E0002304E0002302E0D7
:10C54400002300E00023184602B0704730010010B9
:10C554003401001082B0164B1B680193154B1B6805
:10C564000093019B082B1FD1009B052B1AD801A215
:10C5740052F823F091C5010095C5010099C5010049
:10C584009DC50100A1C50100A5C5010001230CE062
:10C5940000230AE0002308E0002306E0002304E06F
:10C5A400002302E0002300E00023184602B0704795
:10C5B400300100103401001082B0164B1B68019347
:10C5C400154B1B680093019B082B1FD1009B052B67
:10C5D4001AD801A252F823F0F5C50100F9C50100EB
:10C5E400FDC5010001C6010005C6010009C6010020
:10C5F40001230CE000230AE0002308E0002306E006
:10C60400002304E0002302E0002300E00023184696
:10C6140002B07047300100103401001082B0164B94
:10C624001B680193154B1B680093019B082B1FD1BA
:10C63400009B052B1AD801A252F823F059C6010019
:10C644005DC6010061C6010065C6010069C601003E
:10C654006DC6010001230CE000230AE0002308E07A
:10C66400002306E0002304E0002302E0002300E0AE
:10C674000023184602B07047300100103401001046
:10C6840082B0164B1B680193154B1B680093019BEA
:10C69400082B1FD1009B052B1AD801A252F823F0B6
:10C6A400BDC60100C1C60100C5C60100C9C601005E
:10C6B400CDC60100D1C6010001230CE001230AE02C
:10C6C400012308E0012306E0012304E0012302E042
:10C6D400012300E00023184602B070473001001027
:10C6E4003401001082B0164B1B680193154B1B6874
:10C6F4000093019B082B1FD1009B052B1AD801A284
:10C7040052F823F021C7010025C7010029C7010001
:10C714002DC7010031C7010035C7010000230CE01B
:10C7240000230AE0002308E0002306E0012304E0DC
:10C73400012302E0012300E00023184602B0704701
:10C74400300100103401001008B5FFF7CBFF034699
:10C75400002B07D04FF010234FF08042D3F808325B
:10C76400C2F8583500BF08BD00BF044BD3F80034ED
:10C77400002BFAD000BF00BF704700BF00E00140AB
:10C7840000B583B00190054A019BC2F80435FFF758
:10C79400EBFF00BF03B05DF804FB00BF00E0014005
:10C7A400024B034A1A6000BF704700BF6029002093
:10C7B4000090D00308B5FFF737FE0346002B0ED0D8
:10C7C4004FF080430022C3F80C214FF08043002235
:10C7D400C3F810214FF080430022C3F83825FFF737
:10C7E40055FE0346002B76D04FF08053704AD3F8A1
:10C7F4000434C2F820354FF080536D4AD3F808341E
:10C80400C2F824354FF08053694AD3F80C34C2F887
:10C8140028354FF08053664AD3F81034C2F82C35CB
:10C824004FF08053624AD3F81434C2F830354FF0D5
:10C8340080535F4AD3F81834C2F834354FF080532C
:10C844005B4AD3F81C34C2F840354FF08053584A41
:10C85400D3F82034C2F844354FF08053544AD3F807
:10C864002434C2F848354FF08053514AD3F8283461
:10C87400C2F84C354FF080534D4AD3F82C34C2F8EB
:10C8840050354FF080534A4AD3F83034C2F8543507
:10C894004FF08053464AD3F83434C2F860354FF031
:10C8A4008053434AD3F83834C2F864354FF0805388
:10C8B4003F4AD3F83C34C2F868354FF080533C4AC1
:10C8C400D3F84034C2F86C354FF08053384AD3F86B
:10C8D4004434C2F87035FFF70BFE0346002B02D038
:10C8E400344B354A1A60FFF735FE0346002B03D05C
:10C8F400324BFB22C3F81825FFF75EFE0346002BDC
:10C904000AD02F4B1B6823F00F022E4B1B6803F039
:10C914000F032B4913430B60FFF780FE0346002BE4
:10C9240003D0294B4FF400721A60FFF7A9FE0346A7
:10C93400002B0DD04FF08043D3F8003403F00103F3
:10C94400002B05D04FF080436FF00102C3F80024A0
:10C954001E4BD3F888301D4A43F47003C2F8883064
:10C96400BFF34F8F00BFBFF36F8F00BFFFF7ECFE25
:10C974004FF01023D3F80C3203F00103012B13D131
:10C984000120FFF7FDFE4FF01023D3F80C324FF0D7
:10C99400102223F00103C2F80C32FFF7E5FE002059
:10C9A400FFF7EEFEFFF72CFDFFF7FAFE00BF08BD10
:10C9B40000C000408C5600404881030000F0004055
:10C9C400E40E0040580200104096024000ED00E0E2
:10C9D40000487047D834002008B5012002F09EFDBD
:10C9E40000BF08BD00B587B04FF4804100201CF0A3
:10C9F4007BFC0590059B0493049B002B02D00498B8
:10CA040016F02AF8002011F053FB0590059B0393C0
:10CA1400039B002B02D0039816F01EF811F0E2F8E5
:10CA24000590059B0293029B002B02D0029816F0FE
:10CA340013F8002011F03CF900BF11F0A3F90346EC
:10CA440083F00103DBB2002BF7D116F029FB05902C
:10CA5400059B0193019B002B02D0019815F0FCFF6C
:10CA6400FFF7BAFF00F046F807F05AF90346002B27
:10CA740005D0002004F002F801202CF057FE0F48E6
:10CA840006F0F4FB0E4828F031FC00210E2002F0E1
:10CA9400A7F902F02DFE034603F00103002B03D097
:10CAA400082005F007F802E0002005F003F859F02B
:10CAB40077F90023184607B05DF804FBFD52020025
:10CAC4003153040008B50021102028F01DF906F0A8
:10CAD400D7FA0346002B02D04FF0FF3300E00023C7
:10CAE400184608BD08B50021202028F00DF90023C0
:10CAF400184608BD00B583B000230193414B1B6861
:10CB040003F50173102219463F485AF091FF03F0D0
:10CB1400A3FD06F015FB08F0C3FB07F05BF9034621
:10CB2400002B02D0012008F077FE04F0B5F903468B
:10CB3400002B02D0022008F06FFE03F0E5FE03464E
:10CB4400002B02D00A2008F067FE03F0C7FC04F0B3
:10CB5400A3FF0346002B02D0032008F05DFE4FF034
:10CB6400FF3004F0A7FF06F079FF06F01DF9034635
:10CB740083F00103DBB2002B01D006F0B7F903F018
:10CB84008DFA28F03FF80190019BB3F1FF3F04D1E7
:10CB94004FF0FF311D4807F0F9F921F0F9FA01903F
:10CBA400019BB3F1FF3F02D1052008F035FE00F0F0
:10CBB40075FB0346184608F0AFFE0346002B02D06F
:10CBC4000C2008F029FE28F09DFA1149114808F0BC
:10CBD40049FA114B186800230222002159F0D0FAB7
:10CBE4000E4B186800230222002159F0C9FA0C4B9D
:10CBF400186800230222002159F0C2FA00BF03B0D2
:10CC04005DF804FB14100010F0B70020FF80FF0152
:10CC1400E9CA0100C9CA0100682900206C29002062
:10CC24006429002034DF704700BF184635DF7047A1
:10CC340000BF184600B583B028F08EFC0346002BD5
:10CC440003D028F091FC034604E04FF0FF3004F0D9
:10CC540031FF03460193019B0A2B05D0019B0C2B4A
:10CC640002D0019B0D2B01D1B22300E00D23184605
:10CC740003B05DF804FB0000014B1846704700BF89
:10CC840004C2010000B583B00B4B0193019B1B78D8
:10CC9400FF2B09D0019B1B78002B05D001985AF07B
:10CCA400A6FE0346102B01D9002300E0019B184681
:10CCB40003B05DF804FB00BF10C20100014B18462D
:10CCC400704700BFF0B7002084B0034600918DF890
:10CCD40007309DF807301B098DF80F309DF80F3091
:10CCE400092B01D8302200E037229DF80F3013447D
:10CCF400DAB2009B1A709DF8073003F00F038DF829
:10CD04000F309DF80F30092B01D8302100E0372176
:10CD1400009B01339DF80F200A44D2B21A70009B85
:10CD2400023300221A7000BF04B0704710B588B0F7
:10CD34000390029101920093039B059300230693B1
:10CD4400069B079356E0079B002B2BD0079A009B6A
:10CD5400D118364B83FB01239A10CB17D21A1346F2
:10CD64009B0013445B00CA1A002A1BD1069B5A1C61
:10CD740006921A46019B9C18FFF75CFF034623703A
:10CD8400069B019A134400221A70019805F06FF96A
:10CD9400019B274A106818609188927999809A714A
:10CDA40006230693079A009BD118204B83FB01238B
:10CDB4009A10CB17D21A13469B0013445B00CA1A6D
:10CDC400002A07D0069B5A1C06921A46019B13445C
:10CDD4002D221A70079B059A13441878069B019A12
:10CDE40013441946FFF770FF069B02330693079B13
:10CDF40001330793079A029B9A42A4DB0A9B002BF8
:10CE040009D0069B5A1C06921A46019B9C18FFF7F0
:10CE140011FF03462370069B019A134400221A70E3
:10CE2400019805F024F900BF08B010BD6766666676
:10CE34008483070008B5084B5B7B03F00103DBB276
:10CE4400002B06D000234FF45C624B21032004F036
:10CE5400F5FA00BF08BD00BFDC2E002008B50B4B5F
:10CE64005B7803F00103DBB2002B02D0074B9B7805
:10CE740000E00023054A127BC2F30002D2B211463D
:10CE8400184600F005F800BF08BD00BFDC2E0020E6
:10CE940000B587B003460A468DF80F3013468DF867
:10CEA4000E30314B5B78C3F30313DBB205939DF86B
:10CEB4000E30002B02D0059800F058F82A4B5B780E
:10CEC400C3F34203DBB2042B49D801A252F823F086
:10CED400E9CE0100FDCE010015CF01002DCF0100E8
:10CEE40045CF0100059B58009DF80F1000234FF417
:10CEF400396204F0A3FA32E09DF80F100023009386
:10CF040040F6B9134FF43962059804F097FA26E015
:10CF14009DF80F100023009340F66F734FF43962AD
:10CF2400059804F08BFA1AE09DF80F100023009383
:10CF34004FF4F76340F6A902059804F07FFA0EE077
:10CF44009DF80F100023019340F6B91300934FF49A
:10CF54005C6340F6B912059804F070FA00BF00BF94
:10CF640007B05DF804FB00BFDC2E002000B583B0E1
:10CF7400019001994FF0007007F008F800BF03B06A
:10CF84005DF804FB08B5002000F002F800BF08BDFE
:10CF940000B58BB007902B4B5B78C3F30313DBB264
:10CFA4005B000993274B9B780893264B1B7B03F06C
:10CFB4000103DBB2002B0AD0224B1B7BC3F34303D8
:10CFC400DBB25B0019464FF0007006F0DFFF079BF1
:10CFD400002B06D11B4B5B7803F00103DBB2002B63
:10CFE4002CD0184BDB78C3F30103DBB2012B1CD12B
:10CFF400099B5800089BD9B20023059340F21743BC
:10D00400049347F6FF73039340F21743029347F6E2
:10D01400FF73019340F21743009347F6FF7340F206
:10D02400174204F00BFA00BF08E0099B5800089B64
:10D03400D9B2002340F2174204F000FA00BF0BB04B
:10D044005DF804FBDC2E002008B504F0DBFA03468F
:10D05400002B07D1002340F6B9123221012004F03D
:10D06400EDF900E000BF08BD00B587B00390029160
:10D0740001920093039B059315E0059B1A78019B8D
:10D084001B789A4209D1009A019905985AF08AFCB2
:10D094000346002B01D1059B0AE0059B0133059350
:10D0A400029B013B0293029A009B9A42E5D2002321
:10D0B400184607B05DF804FB00B587B0002304935D
:10D0C4004FF45C63039340F6B913029340F21743A1
:10D0D40001934FF45C63009340F6B91340F2174296
:10D0E4006421052004F0AAF9232006F091F90D4AE1
:10D0F4004FF48053104619464FF480731A465AF081
:10D104009FFD1022002107485AF0CCFD4FF4807295
:10D1140004494FF4805003F003F800BF07B05DF8F2
:10D1240004FB00BFF034002008B54FF4A02003F046
:10D1340061F800BF08BD08B521F056F900BF08BD6D
:10D1440000B583B00190019BB3F1FE3F02D1074BC0
:10D154009B680193019B054A12791146184606F013
:10D1640015FF00BF03B05DF804FB00BFDC2E0020F8
:10D1740000B583B00346ADF80630BDF80620104B69
:10D1840093F821301B020E4991F820100B439A4268
:10D1940011D0BDF80630DAB2094B83F82020BDF86F
:10D1A40006301B0A9BB2DAB2054B83F82120A52076
:10D1B40023F0D4FA00E000BF03B05DF804FB00BF25
:10D1C4003871002000B583B003468DF807300A4B50
:10D1D4005B7F9DF807209A420AD0074A9DF80730E2
:10D1E4005377A42023F0BAFA044821F03DF900E073
:10D1F40000BF03B05DF804FB387100208C83070086
:10D20400014B5B7F184670473871002000B583B02E
:10D2140001900F4901985AF09FFC0346002B13D04C
:10D2240001990B485AF0CCFC019858F0A3FE034630
:10D234001A46084908485AF008F8A42023F08EFA40
:10D24400064821F011F900E000BF03B05DF804FBCB
:10D254003871002090830700487100208C830700F8
:10D2640000B583B0094B019302E0019B01330193A4
:10D27400019B1B78303B092BF7D8019858F07AFEB4
:10D284000346184603B05DF804FB00BF3871002064
:10D29400014B1846704700BF3871002000B583B0B9
:10D2A40001AB1846FFF7BEFC0346002B0BD1019BD4
:10D2B40003F48033002B06D0064B00221A704FF47F
:10D2C4008030FFF7B3FC034B1B78184603B05DF8BE
:10D2D40004FB00BF702900206CDF704700BF1846B4
:10D2E4006DDF704700BF184674DF704700BF1846F3
:10D2F40076DF704700BF184678DF704700BF1846D6
:10D304007ADF704700BF18467CDF704700BF1846BD
:10D3140088DF704700BF18468EDF704700BF18468D
:10D324008FDF704700BF184600B585B00190019BA0
:10D33400002B0AD0074B43F001030393019B9B018D
:10D344000293039B0298984700E000BF05B05DF884
:10D3540004FB00BFF083070000B583B00190019B7C
:10D36400002B0AD04FF47A70FFF7DEFF019B013BDC
:10D374000193019B002BF5D100E000BF03B05DF8E1
:10D3840004FB000000B583B0084A0121084815F0E9
:10D39400C7FE0190019B0093009B002B02D00098D4
:10D3A40015F05AFB00BF03B05DF804FBE5D701009C
:10D3B400E083070000B583B0094B00224FF4A0318D
:10D3C400184615F0D3FE0190019B0093009B002B9F
:10D3D40002D0009815F040FB00BF03B05DF804FBD9
:10D3E400D029002000B583B0084B184615F00BFF78
:10D3F4000190019B0093009B002B02D0009815F034
:10D404002BFB00BF03B05DF804FB00BFD029002054
:10D4140000B585B01DF0E4FA03909DF800306FF379
:10D4240003038DF800309DF800306FF307138DF877
:10D43400003003985AF0DBFA03469AB26B4603991C
:10D444001846FFF761FF0290029B0193019B002B9A
:10D4540002D0019815F000FB029B184605B05DF858
:10D4640004FB00B589B00190FFF7D2FF019B0C2BA0
:10D4740002D0019B0D2B05D14FF47270FFF73CFFD6
:10D48400079003E04020FFF737FF0790079B0693C0
:10D49400069B002B02D0069815F0DEFA03AB082297
:10D4A400002118465AF0FEFB0623ADF80C30182371
:10D4B400ADF80E300623ADF810304FF49673ADF886
:10D4C400123003AB1846FFF71BFF0790079B059329
:10D4D400059B002B02D0059815F0BEFA00BF09B0D9
:10D4E4005DF804FB00B583B00190019815F0B4FA1F
:10D4F40000BF03B05DF804FB00B585B003900B4694
:10D50400ADF80A30BDF80A2003230093044B0399B5
:10D514000E2004F0A5F900BF05B05DF804FB00BFC0
:10D52400082A002000B583B00190019B1B78032BCF
:10D5340031D801A252F823F087D501007DD501002E
:10D544004DD501005BD50100154B1B6843F0050365
:10D55400134A13601FE0124B1B6823F00403104AA4
:10D5640013600F4B1B68012B14D10D4B1B6823F068
:10D5740001030B4A13600DE001210E2005F02BF886
:10D5840009E0019B1A69019B9B8A19461046FFF723
:10D59400B3FF00E000BF00BF03B05DF804FB00BFB1
:10D5A4005837002000B585B00390039B1B78032BEC
:10D5B4004AD801A252F823F00BD6010001D601008B
:10D5C400CDD50100DBD50100214B1B6843F00903D5
:10D5D4001F4A136038E01BF0C1FD1D4B1B6823F08C
:10D5E40008031B4A13601A4B1B68012B2BD1184BE1
:10D5F4001B6823F00103164A136024E00121102064
:10D6040004F0E9FF20E0134B1B68002B10D1039BAF
:10D614001969039B9A8A104B102004F066F9039B46
:10D624001969039B9A8A0C4B102007F05FF90BE0F1
:10D63400039B1969039B9A8A03230093064B1020CA
:10D6440004F00EF900E000BF00BF05B05DF804FB74
:10D654005837002004800020082A002000B585B037
:10D6640000230193094B019301AB1946084809F0C3
:10D6740059FF0390039B0293029B002B02D0029854
:10D6840015F0EAF900BF05B05DF804FBE9D4010028
:10D694004436002010B590B06B463822002118465D
:10D6A4005AF000FB1F4B00931DF00CFA0346ADF833
:10D6B40004301DF00DFA02460DF10603146850689B
:10D6C4009168D2681C6058609960DA601DF006FAAF
:10D6D40002460DF11603146850689168D2681C6004
:10D6E40058609960DA601DF0FFF902460DF12603D7
:10D6F400146850689168D2681C6058609960DA6058
:10D704006B46194608480FF0F7FD0F900F9B0E93D8
:10D714000E9B002B02D00E9815F09EF900BF10B09E
:10D7240010BD00BF29D501007C29002000B585B0BB
:10D734006B460822002118465AF0B4FA0C4B0093A9
:10D744001DF0C0F90346ADF804306B46194609488C
:10D7540010F0B8F80390039B0293029B002B02D0B5
:10D76400029815F079F900BF05B05DF804FB00BF1D
:10D77400A9D50100B029002000B587B0019000911F
:10D78400009B1B78002B02D0012B11D021E0134BFE
:10D7940000224FF4A031184615F0E8FC0590059BD3
:10D7A4000393039B002B11D0039815F055F90DE05A
:10D7B4000A4B184615F027FD0590059B0493049B1E
:10D7C400002B05D0049815F047F901E000BF00E0F4
:10D7D40000BF00BF07B05DF804FB00BFD0290020E4
:10D7E40000B58DB0079003F0EFFA03468DF82F30A3
:10D7F40000F044F80346ADF82C3003F0BDFA0346BC
:10D80400ADF82A30FA23ADF8283003F0E5FA0346E0
:10D814008DF82730BDF82A00BDF82C209DF82F1074
:10D824004FF6FE7304939DF9273003934FF0FF33B3
:10D8340002934FF6FF730193BDF82830009303461B
:10D844000D480DF0A3FB0890089B002B10D0089BFB
:10D85400082B0DD0089B132B0AD0089B112B07D043
:10D86400089B43F20142934202D0089815F0F4F861
:10D8740000BF0DB05DF804FBF835002000B583B09F
:10D8840003F0FEF903468DF8053015F095FD0346C7
:10D894008DF804300023ADF80630BDF8063043F0AF
:10D8A4000103ADF806309DF80430002B05D0BDF817
:10D8B400063043F03003ADF806309DF80530012BF7
:10D8C40006D1BDF8063043F48063ADF806301EE09F
:10D8D4009DF80530022B06D1BDF8063043F4C06331
:10D8E400ADF8063013E09DF80530032B03D09DF806
:10D8F4000530032B0BD1BDF8063043F48053ADF84B
:10D904000630BDF8063023F02003ADF80630BDF82C
:10D914000630184603B05DF804FB000000B58BB078
:10D9240001AB1C22002118465AF0BCF9234B019389
:10D9340001238DF808300023039302238DF810305F
:10D94400FFF79CFF0346ADF8123003F03DFA03469F
:10D95400DBB28DF8113003F00FFA03469BB2ADF839
:10D964001430FA23ADF816304FF6FF73ADF81830C3
:10D974004FF6FF73ADF81A3003F02EFA03465BB28C
:10D984008DF81C3001238DF81D3001238DF81E30D5
:10D9940001238DF81F3001AB194609480DF022FA16
:10D9A4000990099B0893089B002B02D0089815F056
:10D9B40053F800BF0BB05DF804FB00BF7DD7010036
:10D9C400F835002000B595B002238DF8003040F200
:10D9D4005A63ADF802300523ADF804300023ADF8E6
:10D9E400063002AB4022002118465AF05BF902AB24
:10D9F4000C49184609F053F86B46109301238DF82F
:10DA0400443002AB18460DF091FD1390139B129312
:10DA1400129B002B02D0129815F01EF800BF15B00F
:10DA24005DF804FBBC83070000B59BB00C201DF01F
:10DA3400DFF803468DF867301022002166485AF05B
:10DA440031F90822002165485AF02CF908220021F6
:10DA540063485AF027F9604B1893189B08221A80E0
:10DA6400189B01229A70189B0122DA70189B9DF86A
:10DA740067209A71189B9DF867205A71189B9DF82E
:10DA840067201A71574B1893189B20221A80189BF1
:10DA940002229A70189B0122DA70189B9DF8672065
:10DAA4009A71189B01225A71189B9DF867201A716C
:10DAB4004A4B1793179B01221A80179B00229A70D6
:10DAC400179B0222DA70179B9DF867205A71179BE7
:10DAD4009DF867201A71424B1693169B02221A80F6
:10DAE400169B00229A70169B0322DA70169B9DF8EF
:10DAF40067201A71169B9DF867205A7103238DF8CD
:10DB0400573001AB4822002118465AF0CBF8364B67
:10DB14000193364B029301238DF80C3000238DF8CA
:10DB24000D3002238DF80E302B4B049301238DF816
:10DB340014302A4B069301238DF81C30284B08938C
:10DB44005E23ADF828302A4B099340F20113ADF857
:10DB5400343000238DF836309DF857308DF8373047
:10DB640000238DF83A3000230F939DF867308DF829
:10DB740030309DF867308DF838309DF867308DF877
:10DB840048309DF867308DF846309DF867308DF841
:10DB940049309DF867308DF84A309DF867308DF82C
:10DBA40040309DF867308DF841309DF867308DF82E
:10DBB400423001AB19460F480FF001F81490149B42
:10DBC4001393139B002B02D0139814F045FF00BF4E
:10DBD4001BB05DF804FB00BFE4390020F4390020D9
:10DBE400FC390020EC3900202DDF01009DDD01000F
:10DBF400B42B0020242A002000B583B00190FFF745
:10DC0400E1FEFFF78BFE019B0C2B02D0019B0D2B39
:10DC140002D1FFF709FF0DE0019B0E2B08D0019BF9
:10DC24000F2B05D0019B122B02D0019B132B01D18A
:10DC3400FFF730FD019B0E2B0BD0019B0F2B08D05F
:10DC4400019B072B05D0019B102B02D0019B112BAC
:10DC540001D1FFF76BFD00BF03B05DF804FB0000CA
:10DC640000B587B009F062FF0590059B0493049BFF
:10DC7400002B02D0049814F0EFFE6B46052200211D
:10DC840018465AF00FF89DF8003043F001038DF860
:10DC940000309DF800306FF341038DF800309DF89B
:10DCA40000306FF382038DF800309DF800306FF37D
:10DCB400C3038DF800309DF80030032262F306138D
:10DCC4008DF800309DF800306FF3C7138DF80030E5
:10DCD40007238DF8013010238DF802309DF80330AE
:10DCE40043F001038DF803309DF8033043F0020341
:10DCF4008DF803309DF8043043F001038DF80430AF
:10DD04009DF8043043F002038DF804306B46184646
:10DD14000AF010F80590059B0393039B002B02D097
:10DD2400039814F099FE084809F0DCFF0590059B60
:10DD34000293029B002B02D0029814F08DFE00BFC8
:10DD440007B05DF804FB00BF5DE8010000B585B0D5
:10DD54000190019B1B78002B0ED1094B1B883B21A2
:10DD64001846FFF7C5FA0390039B0293029B002B0E
:10DD740002D0029814F070FE00BF05B05DF804FBF9
:10DD8400F829002000B583B00190019814F064FED6
:10DD940000BF03B05DF804FB00B583B001900198A7
:10DDA40014F05AFE00BF03B05DF804FB00B58BB05D
:10DDB40001AB1C220021184659F074FF0023019383
:10DDC4004FF4A03302934FF4F023039303238DF80D
:10DDD40010300023ADF8123000238DF814300A4BB4
:10DDE40006930A4B079301AB184608F05BFC0990B5
:10DDF400099B0893089B002B02D0089814F02CFE72
:10DE040000BF0BB05DF804FB51DD010089DD0100AA
:10DE140000BF704700B585B003900B46ADF80A30DB
:10DE240013468DF8093001F093F80346012B02D014
:10DE34004FF0FF330BE0BDF80A209DF80930009342
:10DE44001346039A04490C2004F0E4FC03461846E4
:10DE540005B05DF804FB00BF242A002000B589B09A
:10DE64000390039B9B79012B12D1039BDB798DF8E3
:10DE740013309DF81330012B4AD1039BD968039BBF
:10DE84005A8903230093244B0C2003F0E9FC3FE060
:10DE9400039B9B79022B3BD1039BDB798DF81F30CD
:10DEA4009DF81F30002B33D11C4B1B889DF81F108D
:10DEB4000DF11202019200930023012218480FF081
:10DEC40065F80690069B0593059B002B02D00598E8
:10DED40014F0C2FD134B1B7883F00103DBB2002B5B
:10DEE40009D09DF8123003F00203002B03D00D4B30
:10DEF40001221A700CE00B4B1B78002B08D09DF804
:10DF0400123003F00203002B02D1064B00221A70D8
:10DF140000BF09B05DF804FB082A0020F82900209E
:10DF2400242A0020E039002000B583B0019000913C
:10DF3400009B1B78042B06D0042B16DC022B06D086
:10DF4400032B0BD011E00098FFF788FF0EE0094B7C
:10DF54001B6843F00203074A136007E0054B1B6884
:10DF640023F00203034A136000E000BF00BF03B0C4
:10DF74005DF804FB5837002000B5BBB003468DF8AC
:10DF84000F309DF80F30082B6DD801A252F823F002
:10DF9400B9DF01006BE001006BE001006BE0010000
:10DFA4006BE001006BE001006BE00100BFDF0100EA
:10DFB40011E00100FFF72CFF5AE0082333930823F4
:10DFC400329332AB12AA33A904A809F01FFF399087
:10DFD400399B3593359B002B02D0359814F03CFDCA
:10DFE400022000F0BFFB339A329B12A804A90093CD
:10DFF4000346214808F0E9F93990399B3493349B5E
:10E00400002B32D0349814F027FD2EE01B4B1B88D4
:10E014004FF6FF7293422AD0184B1B8812AA11465E
:10E0240018460AF01BF93990399B052B1FD0399BF0
:10E034003893389B002B02D0389814F00DFD06203D
:10E0440000F090FB12AB1133379337990A4808F06C
:10E054009EF93990399B3693369B002B07D036981E
:10E0640014F0FAFC03E000BF02E000BF00E000BFD0
:10E0740000BF3BB05DF804FB50360020E2390020BD
:10E0840000B587B00346ADF8063000238DF817308D
:10E0940000238DF816309DF817109DF81620BDF852
:10E0A40006301846FFF734F90490049B0393039B4E
:10E0B400002B02D0039814F0CFFC034B01221A70FA
:10E0C40000BF07B05DF804FB4837002082B0034668
:10E0D4008DF80730124B1B781946124A9DF8073009
:10E0E40053540F4B1B785A1C0F4B83FB021399108C
:10E0F400D317C91A0B469B000B445B00D11ACAB252
:10E10400074B1A70094B1B78092B05D8074B1B7852
:10E114000133DAB2054B1A7000BF02B0704700BF7A
:10E12400563700204C370020676666665737002054
:10E1340000B585B00346ADF806300DF10A020DF1C5
:10E144000B01BDF806301846FFF7E6F80390039B71
:10E15400002B04D19DF90B301846FFF7B7FF00BF21
:10E1640005B05DF804FB000000B589B00190009192
:10E17400019B1B88572B00F0A880572B00F3A78026
:10E18400562B00F08C80562B00F3A180212B2DDC24
:10E19400102BC0F29C80103B112B00F2988001A23E
:10E1A40052F823F0F7E1010029E20100D3E2010073
:10E1B400D3E20100D3E20100D3E20100D3E2010083
:10E1C400D3E20100D3E20100D3E20100D3E2010073
:10E1D400D3E20100C3E20100D3E20100D3E2010073
:10E1E400D3E20100D3E2010055E201003B2B46D00B
:10E1F4006DE0019B9B881846FFF742FF019B9A88BC
:10E20400394B1A80384B1B881946384809F0ACF949
:10E214000790079B0393039B002B5AD0039814F099
:10E224001BFC56E0304B4FF6FF721A80304B1B68D4
:10E234000C2B03D02E4B1B680D2B02D12D4B01222E
:10E244005A712D4B00221A602C4B00221A7047E0A1
:10E2540000238DF8083000238DF80930019B9B883A
:10E2640002AA11461846FFF75BF80790079B049330
:10E27400049B002B2FD0049814F0EEFB2BE0019BA1
:10E284009B8813211846FFF733F80790079B0593E3
:10E29400059B002B21D0059814F0DEFB1DE0019BAB
:10E2A4009B8813211846FFF723F80790079B0693D2
:10E2B400069B002B13D0069814F0CEFB0FE0019BB5
:10E2C4009B881846FFF734FF0AE000BF08E000BF50
:10E2D40006E000BF04E000BF02E000BF00E000BFB2
:10E2E40000BF09B05DF804FBF82900204436002083
:10E2F400F42900205036002058370020E03900204F
:10E3040000B587B01BF05EFF0590059B0493049B4A
:10E31400002B02D0049814F09FFB0023019301AB5F
:10E32400194601201CF058F80590059B0393039BA4
:10E33400002B02D0039814F08FFB01AB18461CF09D
:10E34400D3F80590059B0293029B002B02D0029800
:10E3540014F082FB00BF07B05DF804FB82B00190AB
:10E364000091009B5A88094B1B889A420BD1009B51
:10E374001B8840F67722934205D1009B9B88033B80
:10E384009AB2034B1A8000BF02B07047F8290020EC
:10E39400FA29002000B585B00E490F4808F0BCFFEB
:10E3A4000390039B0293029B002B02D0029814F06B
:10E3B40053FBF721084808F0DAFF0390039B01930D
:10E3C400019B002B02D0019814F046FB00BF05B05E
:10E3D4005DF804FB61E301003036002000B583B032
:10E3E4000190019814F038FB00BF03B05DF804FB02
:10E3F40010B5B6B001901CF0A9FB35901CF062FB7F
:10E404000346ADF8D2309F48FEF76AFF3390339B42
:10E414003293329B002B02D0329814F01DFB3598B6
:10E4240004F007FC03461A46964B9A71359B023357
:10E43400184604F0FEFB03461A46924B5A71359B6C
:10E444000433184604F0F5FB03461A468D4B1A7143
:10E45400359B0633184604F0ECFB03461A46894BF9
:10E46400DA70359B0833184604F0E3FB03461A467A
:10E47400844B9A70359B0A33184604F0DAFB034642
:10E484001A46804B5A7002ABAC220021184659F050
:10E4940009FC019B0C2B02D0019B0D2B15D10223EF
:10E4A4008DF8083001238DF80A3006238DF80B30DF
:10E4B400744BDB7883F00103DAB2724BDA70012318
:10E4C400ADF85430704B16933CE000238DF80830BF
:10E4D40002238DF8443001238DF80A3005238DF88A
:10E4E4000B30019B0E2B08D0019B0F2B05D0019BF9
:10E4F400122B02D0019B132B1FD11CF0E9FA31908F
:10E50400319B1B78002B04D1319B01331B78002BEA
:10E514000DD0319B0D331B781B021AB2319B0C3387
:10E524001B781BB213431BB29AB2584B1A800123B7
:10E53400ADF81030554B059304E00123ADF81030CD
:10E54400534B05934F4A13786FF3470313704D48A9
:10E55400FEF7C2FE3390339B3093309B002B02D0E6
:10E56400309814F079FAFEF753FF339B2F932F9BC7
:10E57400002B02D02F9814F06FFA1CF029FB0346ED
:10E584001C461CF02DFB03469C4203D21CF028FBC6
:10E59400034602E01CF01CFB03462E9300238DF877
:10E5A4008030019B0C2B10D0019B0E2B0DD0019BB6
:10E5B400102B0AD0019B122B07D001981CF018FBDA
:10E5C4000346012B01D0012300E0002303F00103E3
:10E5D400DBB28DF8813001238DF8823000238DF871
:10E5E4008330002322930023239301238DF8853065
:10E5F4004FF4487326932E9B41F2941202FB03F3CB
:10E60400279301238DF88430282324932E9B40F2F2
:10E61400DC5202FB03F325931E4B2B931E4B2C93CE
:10E62400BDF8D230002B17D0BDF8D2301B0A9BB2F4
:10E63400DAB21A4B1A70BDF8D230DAB2174B5A70EC
:10E64400174B40F25A621A80154B144A9A60144BC5
:10E6540002229A80124B0B9302AB1946114807F021
:10E664007EFC3390339B2D932D9B002B02D02D9851
:10E6740014F0F2F901210B4807F064FC00BF36B036
:10E6840010BD00BF60370020FC290020002A0020B4
:10E69400042A00207DDF0100E1E30100043A0020A8
:10E6A400083A00205036002000B587B001900123BD
:10E6B4008DF80F300DF10F031946002000F07EFF96
:10E6C4000590059B0493049B002B02D0049814F03E
:10E6D400C3F99DF80F30022B0CBF01230023DAB2DB
:10E6E400019B1A7000BF07B05DF804FB00B583B04E
:10E6F4001AF0A8FA0190019B0093009B002B02D012
:10E70400009814F0A9F900BF03B05DF804FB00B54C
:10E714008BB003468DF80730082302939DF8073029
:10E7240002A903A84FF6FF7209F04EFC0990099B59
:10E734000893089B002B02D0089814F08DF9029AD4
:10E7440003AB1146184609F049FB0990099B07934E
:10E75400079B002B02D0079814F07EF900BF0BB082
:10E764005DF804FB00B58BB003468DF80730082331
:10E7740002939DF8073002A903A84FF6FF7209F02F
:10E7840023FC0990099B0893089B002B02D008984E
:10E7940014F062F9029A03AB1146184609F066FBBD
:10E7A4000990099B0793079B002B02D0079814F04C
:10E7B40053F900BF0BB05DF804FB00B583B009F05A
:10E7C4007BFD0190019B0093009B002B02D00098DD
:10E7D40014F042F900BF03B05DF804FB00B585B046
:10E7E400034600918DF807300098FFF701FE104AA8
:10E7F400009B13600F4B00221A719DF80730002B09
:10E8040002D0FFF7DAFF0FE00120FFF780FF0321BA
:10E81400084807F079FC0390039B0293029B002BAA
:10E8240002D0029814F018F900BF05B05DF804FB9B
:10E83400F42900205036002000B583B0054B93F82E
:10E8440054301846FEF750FD019000BF03B05DF848
:10E8540004FB00BF5036002000B583B0019001983E
:10E864000AF00CF801980AF01BFC01980AF06CF805
:10E87400019B1B780D2B54D801A252F823F000BF42
:10E88400BDE8010027E9010027E90100CBE8010008
:10E8940019E9010027E9010027E9010027E901003E
:10E8A40027E90100EFE8010027E9010027E9010059
:10E8B40027E90100E1E801001C4B1B6843F0010358
:10E8C4001A4A13602EE0019B9A88194B1A80174B41
:10E8D4001B6843F00103154A136023E0154B1B68C2
:10E8E40019460020FFF77AFF1CE0019B1B7C03F014
:10E8F4000103DBB2002B06D0019B1B7A072B02D14C
:10E904000120FFF704FF094B1B6843F00103074A8A
:10E91400136007E0084B01221A70044B00221A60AE
:10E9240000E000BF00BF03B05DF804FB58370020CF
:10E93400E2390020F42900205D37002000B583B0BF
:10E944000190254A019B136000F002FB0346002B53
:10E9540002D04FF0FF333BE00121019800F040FA70
:10E9640001981CF045F90346012B07D109F0D6FAAA
:10E974000346002B02D0194B01221A70019B0C2B69
:10E9840017D0019B0D2B14D0019B0E2B11D0019B92
:10E994000F2B0ED0019B102B0BD0019B112B08D0F9
:10E9A400019B122B05D0019B132B02D04FF0FF3398
:10E9B4000EE00A4B1B7801991846FFF70FFFFEF78C
:10E9C400F9FC064B00221A70054B00221A70002332
:10E9D400184603B05DF804FBF02900205C370020E2
:10E9E4005D37002000B585B00190124B01221A71E9
:10E9F40000F0AEFA0346012B0CD10F4B1B881321F8
:10EA04001846FEF775FC0390039B002B02D04FF0D1
:10EA1400FF330BE0094B4FF0FF321A60084B002222
:10EA24001A60FFF709FFFEF7DDFC0023184605B066
:10EA34005DF804FB50360020F8290020F02900205E
:10EA44005837002000B583B003460A46ADF80630B7
:10EA54001346ADF80430BDF806300E2B16D0BDF8C1
:10EA640006300F2B12D0BDF80630102B0ED0BDF897
:10EA74000630112B0AD0BDF80630122B06D0BDF893
:10EA84000630132B02D04FF0FF3305E0BDF80430FD
:10EA9400184600F02FF90346184603B05DF804FB4E
:10EAA400044B1B68002B14BF01230023DBB2184660
:10EAB400704700BF58370020054B1B6803F008035C
:10EAC400002B14BF01230023DBB21846704700BF9C
:10EAD40058370020054B1B6803F00403002B14BFB8
:10EAE40001230023DBB21846704700BF58370020CB
:10EAF40000B585B003460A46ADF8063013468DF8D6
:10EB040005300123ADF80E30BDF80E200DF10501DE
:10EB1400BDF80630184600F081F80346184605B0E3
:10EB24005DF804FB82B00346ADF80630BDF806304C
:10EB34000C2B03D0BDF806300D2B01D108231AE0AD
:10EB4400BDF806300E2B13D0BDF806300F2B0FD0B6
:10EB5400BDF80630102B0BD0BDF80630112B07D0B2
:10EB6400BDF80630122B03D0BDF80630132B01D1AB
:10EB7400F42300E00123184602B0704700B583B0C7
:10EB84000346ADF80630BDF806300C2B03D0BDF8B3
:10EB940006300D2B03D1FFF783FF03463AE0BDF89F
:10EBA40006300E2B03D0BDF806300F2B0DD1FFF726
:10EBB40091FF0346002B04D1FFF77EFF0346002B91
:10EBC40001D0012326E0002324E0BDF806300E2BFB
:10EBD4000BD0BDF806300F2B07D0BDF80630122B32
:10EBE40003D0BDF80630132B03D1FFF773FF0346A0
:10EBF40010E0BDF80630072B07D0BDF80630102B07
:10EC040003D0BDF80630112B03D1FFF755FF03469F
:10EC140000E00023184603B05DF804FB00B585B09E
:10EC240003460091ADF806301346ADF80430BDF844
:10EC34000430ADF80E30BDF806300E2B0BD0BDF805
:10EC440006300F2B07D0BDF80630122B03D0BDF8C9
:10EC54000630132B09D1124B1B880DF10E020099BB
:10EC640010480EF0AFFC034616E0BDF80630072B43
:10EC740007D0BDF80630102B03D0BDF80630112B99
:10EC840009D1074B1B880DF10E02009906480EF0BE
:10EC9400D9FE034600E00623184605B05DF804FBE0
:10ECA400F82900207C290020B029002000B583B079
:10ECB4000346ADF80630BDF806300E2B13D0BDF870
:10ECC40006300F2B0FD0BDF80630102B0BD0BDF83B
:10ECD4000630112B07D0BDF80630122B03D0BDF837
:10ECE4000630132B01D100F05DF800BF03B05DF8CE
:10ECF40004FB000000B585B001904FF0FF3303938F
:10ED0400274B1B889AB2264B5B889BB29A422AD126
:10ED1400019B002B02D14FF0FF333CE0002101980E
:10ED240004F0F0FC03468DF80B301D4B1B889AB29F
:10ED34001B4B5B889BB29A420FD19DF90B3018464E
:10ED440004F09AFD0346012BEFD19DF90B301846D0
:10ED540004F05AFD4FF0FF331DE000BF9DF90B3066
:10ED6400184604F051FD0E4B9A680D4B5B889BB21C
:10ED7400591C88B20A49488013441B780393084BF2
:10ED84005B889AB2064B9B889BB29A4202D1044B91
:10ED940000225A80039B184605B05DF804FB00BFAF
:10EDA400082A0020054B00221A740021034B0A464E
:10EDB4005A80024B0A461A8000BF7047082A002076
:10EDC40082B00190024A019BD36000BF02B0704739
:10EDD400082A0020014B1846704700BFD48307005F
:10EDE40000B585B001900B468DF803301D4B1B68B0
:10EDF400019A9A4201D1002330E01A4B1B68B3F107
:10EE0400FF3F05D09DF80330002B01D000F02CF813
:10EE1400144A019B1360FEF7B5FA0DF10F0318466F
:10EE2400FFF742FCFFF762FCFFF76AFA9DF8033034
:10EE340083F00103DBB2002B03D0FEF70FFC1AF0C2
:10EE4400A5F80198FEF70DFBFFF7A4FA0198FEF769
:10EE5400D3FEFEF7ABFFFEF703FF0023184605B011
:10EE64005DF804FBAC2B002000B583B01B4B1B6882
:10EE7400B3F1FF3F01D100232CE0184B4FF0FF32D8
:10EE84001A60174B4FF0FF321A60FEF7ABFA154BBE
:10EE94001B884FF6FF72934211D0124B1B8813212B
:10EEA4001846FEF725FA0190019B0093009B002B66
:10EEB40001D0009B0EE0C820FEF74EFA06E00A4B94
:10EEC40093F854301846FEF70FFA01901BF0CEF970
:10EED40001900023184603B05DF804FBAC2B00201E
:10EEE400F0290020F829002050360020164B1B681A
:10EEF40003F00203002B01D00C2322E0124B1B6809
:10EF040003F00403002B01D00E231AE00E4B1B6800
:10EF140003F00803002B01D0102312E00A4B1B68F6
:10EF240003F00103002B0AD0084B1B680C2B03D001
:10EF3400064B1B680D2B02D1044B1B6801E04FF0FC
:10EF4400FF331846704700BF58370020F0290020CF
:10EF540000B583B02D4B1B680C2B03D02B4B1B68C7
:10EF64000D2B19D12A4B1B880DF1060211461846A8
:10EF740008F0B0FF0346002B05D1BDF806304FF66C
:10EF8400FF72934202D1234B00221A60214B1B686B
:10EF9400002B01D0012334E01E4B1B6803F0010356
:10EFA400002B05D11B4B1B6803F00E03002B01D073
:10EFB400012326E0154B1B680E2B13D0134B1B6843
:10EFC4000F2B0FD0114B1B68102B0BD00F4B1B6852
:10EFD400112B07D00D4B1B68122B03D00B4B1B6856
:10EFE400132B06D10C4B1B78002B02D00B4B0122A8
:10EFF4001A70094B1B78002B02D04FF0FF3300E04E
:10F004000023184603B05DF804FB00BFF02900207C
:10F01400F8290020583700205D3700205C37002095
:10F0240000B583B0FFF794FF0190114B1B68019A60
:10F034009A4204D00E4A019B1360012314E01AF093
:10F0440081F8034683F00103DBB2002B01D00123D6
:10F054000AE0084B1B889AB2064B5B889BB29A4223
:10F0640014BF01230023DBB2184603B05DF804FB90
:10F07400B02B0020082A0020BFF34F8F00BF064B9F
:10F08400DB6803F4E0620449044B1343CB60BFF331
:10F094004F8F00BF00BFFDE700ED00E00400FA055C
:10F0A40082B00190019B1B681F2B02D84FF0A04334
:10F0B40006E0019B1B6803F01F02019B1A60024BD0
:10F0C400184602B0704700BF0003005000B585B079
:10F0D4000190084611461A4603468DF803300B4644
:10F0E4008DF8023013468DF8013001AB1846FFF756
:10F0F400D7FF03909DF803209DF802305B001A436C
:10F104009DF801309B001A439DF818301B0242EA17
:10F1140003019DF81C301B04019A1943039B02F55B
:10F12400E07243F8221000BF05B05DF804FB00B59F
:10F1340085B0039000230193002300930023012250
:10F1440001210398FFF7C2FF00BF05B05DF804FB7F
:10F1540000B585B003900B468DF80B309DF80B304D
:10F164000022019200220092002200210398FFF75E
:10F17400ADFF00BF05B05DF804FB00B585B001909C
:10F1840001AB1846FFF78CFF0390019B012202FAA2
:10F1940003F31946039800F086F800BF05B05DF844
:10F1A40004FB00B585B0019001AB1846FFF778FF6A
:10F1B4000390019B012202FA03F31946039800F01D
:10F1C4007CF800BF05B05DF804FB00B585B0019084
:10F1D40001AB1846FFF764FF0390039BD3F8043593
:10F1E4000293029BDA43019B012101FA03F31A40C3
:10F1F400039BC3F80825019B01229A40029B1A40F5
:10F20400039BC3F80C2500BF05B05DF804FB00B5F3
:10F2140083B001900091009B002B03D10198FFF76C
:10F22400C0FF02E00198FFF7A8FF00BF03B05DF83C
:10F2340004FB00B585B0019001AB1846FFF730FF21
:10F244000390039800F01FF80246019B22FA03F38F
:10F2540003F00103184605B05DF804FB00B585B062
:10F26400019001AB1846FFF71BFF0390039800F0D1
:10F2740012F80246019B22FA03F303F00103184635
:10F2840005B05DF804FB82B00190019BD3F8103502
:10F29400184602B0704782B00190019BD3F8043540
:10F2A400184602B0704782B001900091019B009A09
:10F2B400C3F8082500BF02B0704782B001900091E6
:10F2C400019B009AC3F80C2500BF02B070470000F0
:10F2D40000B585B001900A4A019B13441B78184677
:10F2E400FFF7BCFF0346002B14BF012300238DF856
:10F2F4000F309DF80F30184605B05DF804FB00BFD1
:10F30400F883070000B583B00190064A019B1344BB
:10F314001B7801211846FFF77AFF00BF03B05DF8A0
:10F3240004FB00BFF883070000B583B00190064AD0
:10F33400019B13441B7800211846FFF768FF00BFA8
:10F3440003B05DF804FB00BFF883070000B583B089
:10F354000023019305E00198FFF7E6FF019B0133C9
:10F364000193019B022BF6D900BF00BF03B05DF8E7
:10F3740004FB00B583B00023019305E00198FFF777
:10F38400C1FF019B01330193019B022BF6D900BFFE
:10F3940000BF03B05DF804FB00B583B00190054ADB
:10F3A400019B13441B781846FFF70FFF00BF03B0FF
:10F3B4005DF804FBF883070008B54FF01023D3F879
:10F3C400043303F00703072B21D1124B0122C3F8A6
:10F3D400042500BF0F4BD3F80034002BFAD04FF0B4
:10F3E4001023D3F8043323F007034FF0102243F023
:10F3F4000403C2F80433074B0022C3F8042500BFFA
:10F40400044BD3F80034002BFAD0FFF735FE00BFCD
:10F4140008BD00BF00E0014000B583B04FF0804359
:10F42400D3F8403603F00103002B01D0FFF7C4FFEB
:10F434000023019309E0094A019B13441B781846F1
:10F44400FFF775FE019B01330193019B022BF2D957
:10F45400FFF77CFF00BF03B05DF804FBF8830700EF
:10F4640000B585B001900F4A019B13441B781846E0
:10F47400FFF7DFFE0346002B14BF012300238DF8A2
:10F484000F309DF80F30002B14BF01230023DBB293
:10F4940083F00103DBB203F00103DBB2184605B0CD
:10F4A4005DF804FBFC83070000B583B000230193DF
:10F4B4000AE0094A019B13441B7803211846FFF70D
:10F4C40047FE019B01330193019B022BF1D900BF3D
:10F4D40000BF03B05DF804FBFC83070084B0019017
:10F4E4004FF0FF330293002303930DE00A4A039B7A
:10F4F40013441B781A46019B934202D1039B029347
:10F5040005E0039B01330393039B022BEED9029B7B
:10F51400184604B0704700BFFC83070000B583B0F1
:10F524000190019B03F00103002B01D0FFF774FF4E
:10F53400019B03F00203002B01D0FFF7B5FF00BFCE
:10F5440003B05DF804FB00B583B0019001202DF0F9
:10F5540028FC0346002B03D0019B02221A700CE006
:10F5640000202DF01EFC0346002B03D0019B0B2230
:10F574001A7002E0019B00221A7000BF03B05DF80C
:10F5840004FB000082B001900091019B1B88102BAA
:10F5940002D0112B06D00BE0074B1B680133064A3F
:10F5A400136005E0044B1B68013B034A136000BF72
:10F5B40000BF02B0704700BF183A002000B585B004
:10F5C4000190009100230393064A019B1360009B62
:10F5D400002B02D00098FFF7B6FF039B184605B036
:10F5E4005DF804FB143A002000B583B00190094B88
:10F5F400094A1A60074B1B685B68019898470346E1
:10F60400002B01D1002301E04FF0FF33184603B073
:10F614005DF804FB1C3A00205C84070008B5074B26
:10F624001B68002B05D0054B1B68DB699847034614
:10F6340001E04FF0FF33184608BD00BF1C3A00201C
:10F6440008B5074B1B68002B05D0054B1B681B6ACC
:10F654009847034601E04FF0FF33184608BD00BF4A
:10F664001C3A002000B583B001900091084B1B6840
:10F67400002B07D0064B1B68DB680099019898475C
:10F68400034601E04FF0FF33184603B05DF804FB76
:10F694001C3A002000B583B001900091084B1B6810
:10F6A400002B07D0064B1B681B69009901989847EB
:10F6B400034601E04FF0FF33184603B05DF804FB46
:10F6C4001C3A002000B583B00190084B1B68002B46
:10F6D40006D0064B1B685B6A01989847034601E015
:10F6E4004FF0FF33184603B05DF804FB1C3A0020CA
:10F6F40008B5074B1B68002B05D0054B1B689B6A9C
:10F704009847034601E04FF0FF33184608BD00BF99
:10F714001C3A002084B003468DF807309DF807306A
:10F724001B09DBB21A46920013445B008DF80F30BC
:10F734009DF8073003F00F03DAB29DF80F3013443D
:10F744008DF80F309DF80F30184604B07047000054
:10F7540084B003468DF807309DF807300E4AA2FBAB
:10F764000323DB08DBB21B018DF80F309DF8072063
:10F77400094BA3FB0213D9080B469B000B445B0007
:10F78400D31ADAB29DF80F3013438DF80F309DF879
:10F794000F30184604B07047CDCCCCCC82B0019069
:10F7A400019B1B681F2B02D84FF0A04306E0019B6E
:10F7B4001B6803F01F02019B1A60024B184602B03B
:10F7C400704700BF0003005000B585B001900846A3
:10F7D40011461A4603468DF803300B468DF8023065
:10F7E40013468DF8013001AB1846FFF7D7FF03909D
:10F7F4009DF803209DF802305B001A439DF8013008
:10F804009B001A439DF818301B0242EA03019DF83D
:10F814001C301B04019A1943039B02F5E07243F860
:10F82400221000BF05B05DF804FB00B585B003905D
:10F834000B468DF80B309DF80B300022019200220C
:10F844000092002200210398FFF7BEFF00BF05B01D
:10F854005DF804FB00B583B00190019B04331846A6
:10F8640012F018F800BF03B05DF804FB00B583B0D4
:10F874000190019B0433184612F054F800BF03B002
:10F884005DF804FB00B589B0059003930B468DF831
:10F89400133013468DF8123000230793059B181D6F
:10F8A4009DF828309DF812209DF813100093039BB7
:10F8B40012F0E6FA0790079B184609B05DF804FBBE
:10F8C40000B589B0059003921A460B468DF81330A3
:10F8D40013468DF8123000230793059B181D9DF8DD
:10F8E40012209DF813109DF8283000931346039AB4
:10F8F40012F09EFA0790079B184609B05DF804FBC6
:10F9040000B587B0019000F0C9FA0346002B02D07D
:10F914004FF0FF3359E02F4B01221A70019B002B4B
:10F9240029D0062305930DF10F03012219460E2059
:10F9340000F042FB0490049B002B05D100F050F82A
:10F944000490049B002B09D0322003F097FD059B03
:10F95400013B0593059B002BE5DA00E000BF049B07
:10F96400002B08D01B4B00221A701B48FFF772FFB4
:10F974004FF0FF3329E002238DF80C3000238DF87B
:10F984000D309DF80E306FF300038DF80E309DF8A6
:10F994000E306FF341038DF80E309DF80E306FF387
:10F9A40082038DF80E3003238DF80D3003AB0B4A20
:10F9B40019460A200FF0E8FC019B002B04D000221A
:10F9C4000021002000F0C1F90023184607B05DF8BB
:10F9D40004FB00BF203A0020008407004DFE010014
:10F9E40000B583B00DF10703012219460F2000F082
:10F9F400E3FA0346002B02D048F2012334E09DF8D9
:10FA0400073003F02003DBB28DF807300DF1070354
:10FA1400012219460F2000F0FDFA0346002B02D004
:10FA240048F2012320E00B238DF807300DF1070382
:10FA340001221946072000F0EDFA0346002B02D0FC
:10FA440048F2012310E020238DF807300DF107035D
:10FA5400012219460E2000F0DDFA0346002B02D0E5
:10FA640048F2012300E00023184603B05DF804FBCC
:10FA740008B500F009F80346184608BD08B500F0BB
:10FA84000DFA0023184608BD08B50C48FFF7E2FE3E
:10FA940001212920FFF7C9FE01210C20FFF7C5FE33
:10FAA400074B1B78002B02D00A200FF049FD0321DD
:10FAB4000A20FFF7BAFE0023184608BD0084070099
:10FAC400203A002000B585B00190019B9B7803F09B
:10FAD4003F03DBB21846FFF73BFE03468DF80C30BC
:10FAE400019B5B7803F03F03DBB21846FFF730FE5F
:10FAF40003468DF80D30019B1B7803F01F03DBB226
:10FB04001846FFF725FE03468DF80E3003AB03229B
:10FB14001946002000F07EFA0346002B02D04FF075
:10FB2400FF3300E00023184605B05DF804FB00B580
:10FB340085B00190019BDB781846FFF709FE034668
:10FB44008DF80C30019B9B781846FFF701FE0346A5
:10FB54008DF80D30019B1B88B3F5FA6F12D39DF815
:10FB64000D3063F07F03DBB28DF80D30019B1B88F1
:10FB7400DBB23033DBB21846FFF7EAFD03468DF8FB
:10FB84000E300AE0019B1B88DBB26C3BDBB21846EB
:10FB9400FFF7DEFD03468DF80E3003AB0322194652
:10FBA400042000F037FA0346002B02D04FF0FF3355
:10FBB40000E00023184605B05DF804FB00B583B0EF
:10FBC400019000910098FFF77DFF0346002B02D0BF
:10FBD4004FF0FF3304E00198FFF7A9FF03461BB27F
:10FBE400184603B05DF804FB00B585B0019003AB83
:10FBF40003221946042000F0DFF90346002B02D04B
:10FC04004FF0FF3341E002AB03221946042000F019
:10FC1400D3F90346002B02D04FF0FF3335E003A99C
:10FC240002AB0322184657F0BDFE0346002B00D05A
:10FC3400DDE700BF9DF80E301846FFF76BFD034665
:10FC44001A469DF80D305BB2002B02DA4FF4FA63CA
:10FC540001E040F26C7313449AB2019B1A809DF840
:10FC64000D3003F07F03DBB21846FFF753FD034664
:10FC74001A46019B9A709DF80C301846FFF74AFD0E
:10FC840003461A46019BDA700023184605B05DF856
:10FC940004FB00B585B0019003AB03221946002094
:10FCA40000F08AF90346002B02D04FF0FF3332E014
:10FCB40002AB03221946002000F07EF90346002B14
:10FCC40002D04FF0FF3326E003A902AB032218460B
:10FCD40057F068FE0346002B00D0DDE700BF9DF817
:10FCE4000E301846FFF716FD03461A46019B1A709C
:10FCF4009DF80D301846FFF70DFD03461A46019B8B
:10FD04005A709DF80C301846FFF704FD03461A4656
:10FD1400019B9A700023184605B05DF804FB00B5FA
:10FD240083B0019000910098FFF7B3FF0346002BC6
:10FD340002D04FF0FF3304E00198FFF755FF03466C
:10FD44001BB2184603B05DF804FB00B587B00390FE
:10FD540002911346ADF806300DF113030122194642
:10FD64000E2000F029F90346002B02D04FF0FF3398
:10FD74005EE0BDF80630002B3BD0029B5B78184652
:10FD8400FFF7E6FC03468DF81430029B1B781846F7
:10FD9400FFF7DEFC03468DF8153005AB0222194649
:10FDA4000B2000F037F90346002B02D04FF0FF334D
:10FDB4003EE09DF8133043F04003DBB28DF813307E
:10FDC4009DF8133003F07F03DBB28DF813300DF18F
:10FDD4001303012219460E2000F01CF90346002BE0
:10FDE40002D04FF0FF3323E001210A200FF03CFB47
:10FDF4001DE09DF8133023F04003DBB28DF813307F
:10FE04009DF8133003F07F03DBB28DF813300DF14E
:10FE14001303012219460E2000F0FCF80346002BC0
:10FE240002D04FF0FF3303E00A200FF089FB0023D8
:10FE3400184607B05DF804FB08B500220021002035
:10FE4400FFF783FF00BF08BD00B583B001900B46E8
:10FE54008DF80330034800F029FC00BF03B05DF8BF
:10FE640004FB00BF3DFE010000B583B00DF10703A4
:10FE7400012219460E2000F09FF80346002B01D002
:10FE8400002306E09DF807309B111BB203F0010329
:10FE94001BB2184603B05DF804FB000000B583B044
:10FEA40000230022104911480EF06EFB0190019BC3
:10FEB400002B11D00E4B5B88022B0BD90D4A0E4B35
:10FEC400D31ADB081B0443F00303019A0B491846B9
:10FED40019F09EFC019B03E00448FFF7C7FC0023D4
:10FEE400184603B05DF804FB108407000084070083
:10FEF4000028002088800700388007003484070029
:10FF040000B585B001900DF10F03012219460F20B1
:10FF140000F052F80346002B02D04FF0FF332FE0DD
:10FF2400019B002B0FD09DF80F3003F02003002B12
:10FF340001D0002324E09DF80F3043F02003DBB20E
:10FF44008DF80F300EE09DF80F3003F02003002BE6
:10FF540001D1002314E09DF80F3023F02003DBB21D
:10FF64008DF80F300DF10F03012219460F2000F018
:10FF740051F80346002B02D04FF0FF3300E000237A
:10FF8400184605B05DF804FB00B583B00DF1070316
:10FF9400012219460F2000F00FF80346002B01D070
:10FFA400002304E09DF807305B1103F001031846B9
:10FFB40003B05DF804FB000000B587B0034602916E
:10FFC4008DF80F3013468DF80E30104B1B7883F0EC
:10FFD4000103DBB2002B01D0032312E09DF80F30A4
:10FFE4001B01DAB29DF80E300093029B32210848BF
:0CFFF400FFF748FC0590059B002B01D096
:020000022000DC
:10000000059B00E00023184607B05DF804FB00BF25
:10001000203A00200084070000B589B00346029111
:100020008DF80F3013468DF80E3005AB00221A60A4
:100030005A609DF80F301B01DBB28DF81430164B5F
:100040001B7883F00103DBB2002B01D003231FE0F8
:100050009DF80E30072B01D90C2319E005AB0133B5
:100060009DF80E200299184657F0ECFD9DF80E30D1
:100070000133DBB205AA0021009132210748FFF7C6
:1000800021FC0790079B002B01D0079B00E0002379
:10009000184609B05DF804FB203A002000840700F0
:1000A00000B585B0184B5B88022B0AD9174A184B4C
:1000B000D31ADB081B0443F003031649184619F052
:1000C0009BFB114B5B88022B0AD9104A104BD31AA9
:1000D000DB081B0443F003030F49184619F08CFB9F
:1000E0000E4B0393002203990D4817F0B5FF0290C1
:1000F000029B0193019B002B02D0019812F0AEFCF1
:1001000000BF05B05DF804FB0028002088800700D0
:100110003880070088840700A084070044A30700F4
:10012000B027002000B589B0059004911346ADF8C2
:100130000E302B4B5B88022B0BD92A4A2A4BD31A41
:10014000DB081B0443F00303049A2849184619F0FE
:1001500061FB274B5B685B689AB2BDF80E301344B5
:100160009BB2013BADF80E30BDF80E20204B5B6812
:100170005B68B2FBF3F3ADF80E301D4B5B685B6858
:100180009BB2BDF80E2012FB03F3ADF80E30BDF8A4
:100190000E3000220092049A0599154817F0AEFF20
:1001A0000790079B0693069B002B02D0069812F03F
:1001B00055FC0F4800F0BCF8094B5B88022B0AD9AC
:1001C000084A094BD31ADB081B0443F0030309490F
:1001D000184619F011FB00BF09B05DF804FB00BF21
:1001E000002800208880070038800700D08407009E
:1001F000B0270020E884070000B585B001901A4BB5
:100200005B88022B0BD9194A194BD31ADB081B0444
:1002100043F00303019A1749184619F0FBFA00232B
:1002200001220199144818F06DF80390039B029382
:10023000029B002B02D0029812F010FC0E4800F036
:1002400077F8094B5B88022B0AD9084A084BD31A66
:10025000DB081B0443F003030849184619F0CCFAE5
:1002600000BF05B05DF804FB00280020888007006F
:1002700038800700F0840700B0270020E8840700DA
:1002800000B583B00190019B5B68002B0FD0224B1F
:100290005B88022B38D9214A214BD31ADB081B0477
:1002A00043F003031F49184619F0A6FA2CE0019BFE
:1002B0001B78012B02D0022B13D02AE0164B5B884F
:1002C000022B23D9154A164BD31ADB081B0443F023
:1002D0000300019B1A69019B9B68134919F0ABFA53
:1002E00014E00D4B5B88022B12D90C4A0C4BD31A2D
:1002F000DB081B0443F00300019B1A69019B9B6808
:100300000A4919F098FA03E000BF02E000BF00E0DC
:1003100000BF03B05DF804FB0028002088800700C0
:100320003880070004850700488507007C850700A2
:1003300000B583B0019001E003F00EFB019818F0C6
:100340008FF80346002BF7D100BF00BF03B05DF864
:1003500004FB000082B003468DF807309DF907309A
:10036000002B0CDB9DF8073003F01F0205499DF9B7
:1003700007305B09012000FA02F241F8232000BF98
:1003800002B0704700E100E0044BD3F80034002BCA
:1003900014BF01230023DBB2184670470000014060
:1003A000024BD3F804351846704700BF00000140E7
:1003B00082B003468DF80730084BD3F808259DF826
:1003C000073022FA03F303F00103002B14BF0123CB
:1003D0000023DBB2184602B0704700BF00000140A6
:1003E00082B003468DF80730054A9DF8073003F5C3
:1003F000C073044942F8231000BF02B0704700BF29
:10040000000001403546526E00B583B00190009166
:10041000019B002B01D1054B01930099019811F02C
:1004200099FF0346184603B05DF804FBF08507000A
:1004300008B5FFF7A9FF0346002B01D000F028F80C
:1004400003F00EFC0346012B11D103F047FC0346D9
:10045000012B0CD10D4B1B68013B0C4A13600B4B5D
:100460001B68002B01DC42F0A5F900230CE005F02D
:10047000CFF90346002B01D0FA2301E040F2EE232E
:10048000024A13606FF00103184608BD142C0020C7
:1004900000B583B0FFF778FF0346002B19D0002387
:1004A0008DF8073011E09DF807301846FFF780FF00
:1004B0000346002B04D09DF807301846FFF790FF45
:1004C0009DF8073001338DF807309DF80730062B73
:1004D000E9D900BF03B05DF804FB00BF704700001E
:1004E00000B585B0254B1B78002B42D1244A6B46C2
:1004F00007CA83E807006B4622491846FFF784FFC6
:10050000214811F07BFF11F06BFFFFF73DFF034621
:10051000002B1BD0FFF744FF03901C4B5B88022B82
:100520000BD91B4A1B4BD31ADB081B0443F00303F4
:10053000039A1949184619F06DF9FFF7A9FF1748F2
:1005400002F096FE1020FFF705FF0EE00F4B5B88D0
:10055000022B0AD90E4A0F4BD31ADB081B0443F0B7
:1005600003030F49184619F047F9044B01221A708A
:1005700000E000BF05B05DF804FB00BF223A002098
:10058000E4850700DB040200213A00200028002057
:100590008880070038800700B48507003104020016
:1005A000D085070008B5FFF773FF00BF08BD08B589
:1005B000FFF76EFF00BF08BD08B5024802F0E6FE77
:1005C00000BF08BD3104020008B5024802F050FE29
:1005D00000BF08BD3104020082B003468DF8073029
:1005E0009DF90730002B0CDB9DF8073003F01F024C
:1005F00005499DF907305B09012000FA02F241F834
:10060000232000BF02B0704700E100E082B0034643
:1006100000918DF807309DF90730002B0ADB009B15
:10062000DAB20C499DF907305201D2B20B4483F87B
:1006300000230BE0009BDAB207499DF8073003F076
:100640000F03043B5201D2B20B441A7600BF02B032
:10065000704700BF00E100E000ED00E008B50EF0DB
:1006600025FE00BF08BD000008B5064B0022C3F8F8
:100670000021054B1B68002B02D0034B1B689847D9
:1006800000BF08BD00700140243A002008B5064BA9
:100690000022C3F80021054B1B68002B02D0034B3E
:1006A0001B68984700BF08BD00800140283A002021
:1006B00000B583B001900A4A019B1360094B0122E7
:1006C000C3F8042307211720FFF7A0FF1720FFF727
:1006D00083FF044B01221A6000BF03B05DF804FBE6
:1006E000243A00200070014000B583B001900091D1
:1006F0000A4A019B13600A4B0122C3F804230099A4
:100700001820FFF783FF1820FFF766FF044B012234
:100710001A6000BF03B05DF804FB00BF283A002058
:10072000008001403CDF704700BF18463DDF704746
:1007300000BF184682B00190019B1B681F2B02D896
:100740004FF0A04306E0019B1B6803F01F02019BD2
:100750001A60024B184602B0704700BF00030050F9
:1007600000B585B00190084611461A4603468DF83B
:1007700003300B468DF8023013468DF8013001AB83
:100780001846FFF7D7FF03909DF803209DF802302D
:100790005B001A439DF801309B001A439DF8183006
:1007A0001B0242EA03019DF81C301B04019A194305
:1007B000039B02F5E07243F8221000BF05B05DF81C
:1007C00004FB00B585B003900B468DF80B309DF807
:1007D0000B30002201920022009200220021039897
:1007E000FFF7BEFF00BF05B05DF804FB00B587B0A2
:1007F00003900B468DF80B309DF80B30002B0AD17F
:10080000039800230193002300930023002200217A
:10081000FFF7A6FF0AE003AB1846FFF78BFF059032
:10082000039B01229A40059BC3F8182500BF07B01F
:100830005DF804FB00B585B0019001AB1846FFF7E9
:1008400079FF0390019B012202FA03F319460398F2
:1008500000F047F800BF05B05DF804FB00B585B0B7
:10086000019001AB1846FFF765FF0390019B012241
:1008700002FA03F31946039800F03DF800BF05B0F3
:100880005DF804FB00B583B001900091009B002B44
:1008900003D10198FFF7E2FF02E00198FFF7CAFFDA
:1008A00000BF03B05DF804FB00B585B0019001AB5B
:1008B0001846FFF73FFF0390039800F00AF802463E
:1008C000019B22FA03F303F00103184605B05DF81B
:1008D00004FB82B00190019BD3F81035184602B09A
:1008E000704782B001900091019B009AC3F80825DF
:1008F00000BF02B0704782B001900091019B009A46
:10090000C3F80C2500BF02B07047000000B583B0EB
:10091000224841F009FA01212120FFF767FF032156
:100920002220FFF74EFF00212120FFF7ABFF1C4BD9
:100930001B78DBB2FF2B26D14FF08043D3F8203554
:10094000DBB203F07F038DF807309DF80730002BF2
:1009500003D19DF80730642B02D89DF8073000E0E2
:1009600032230F4A13700E4B1B78DBB2C3F16403C2
:100970000C4A32F813301A460B4B1A60084B1B789E
:10098000DAB20A4B1A700A4802F072FC094802F007
:100990006FFC0346184603B05DF804FBB90902007A
:1009A0006E2D0020A42C0020303A00206F2D002056
:1009B000110A0200B50A020000B583B0019000F0F0
:1009C00061F90346002B13D1019B9BB2184600F03E
:1009D00017FA03461A460C4B1A600B4B1B689BB266
:1009E000184641F0F1F803461A46084B1A7006E023
:1009F000054B1B68002B02D1019B034A136000BF0B
:100A000003B05DF804FB00BF303A00206E2D0020DB
:100A100008B50C4B1B78002B02D16FF001030FE0DF
:100A2000084B1B78013BDAB2064B1A70054B1B785A
:100A3000002B04D1034B32221A7010F037FB002335
:100A4000184608BD702D002008B541F0BDF90448D6
:100A500002F09CFC034802F099FC0346184608BDCE
:100A6000110A0200B50A020008B5FFF7EDFF0346C0
:100A7000184608BD08B5FFF749FF0346184608BDEC
:100A800000B583B003468DF80730084A9DF807305B
:100A90001370064B1B78002B03D10021044803F090
:100AA00077FA00BF03B05DF804FB00BF2C3A0020CA
:100AB00000FFFF0000B585B041F0A3FE034602939E
:100AC000029B002B02D0664A029B136000F0DAF80A
:100AD0000190019B002B02D0019B032B04D100212C
:100AE0002120FFF7CFFE03E001212120FFF7CAFEFE
:100AF000019B002B67D05B4B1B788DF80330019B6B
:100B0000022B03D1574B64221A703AE0002303935F
:100B1000554B1B686FF07F42934204DA524B1B68BF
:100B20000133514A1360002303930AE04F4A039BA9
:100B300013441A784E4B1B789A4206D2039B01331A
:100B40000393039B722BF1D900E000BF464B1B6857
:100B500003F2DC53474A82FB03129211DB17D31ACC
:100B60001A46039B13440393039B722B03D93D4BFB
:100B700063221A7005E03D4A039B13441A78394BEF
:100B80001A70384B1B78DBB29DF803209A420ED0C6
:100B90004FF0FF310120FFF7C9FD324B1B78DBB26C
:100BA00063F07F03DBB219460120FFF7BBFD2D4B3D
:100BB0001B78DBB2C3F164032F4A32F813301A46B4
:100BC0002E4B1A601DE0284B00221A60284B1A7821
:100BD000244B1B78DBB29A4213D0224B1B78DAB23B
:100BE000234B1A704FF0FF310120FFF79FFD1D4B83
:100BF0001B78DBB263F07F03DBB219460120FFF7FD
:100C000091FD1F4B1B78012B25D1019B032B1FD07E
:100C1000019B032B1EDC019B012B03D0019B022BAC
:100C20000BD017E001214FF47F0003F0B1F9002150
:100C30004FF47F4003F0ACF90DE001214FF47F4009
:100C400003F0A6F900214FF47F0003F0A1F902E0C0
:100C500000BF00E000BF0023184605B05DF804FBAC
:100C6000343A00206E2D0020383A0020302C00202D
:100C70006F2D0020F1197605A42C0020303A0020B9
:100C80002C3A002008B512F099FB0346002B3DD00A
:100C900000F0A4F80346002B0FDA2220FFF704FE31
:100CA0000346002B01D1032331E000F097F80346FF
:100CB00013F10A0F01DA032329E000F08FF803464D
:100CC0002C2B19DD2220FFF7EFFD0346002B06D168
:100CD00000F084F803462D2B01DD032317E02220CA
:100CE000FFF7E2FD0346002B06D000F077F803463D
:100CF000412B01DD03230AE02220FFF7D5FD034647
:100D0000002B01D1012302E0022300E0002318465A
:100D100008BD08B5FFF7B6FF0346032B0CBF012340
:100D20000023DBB2184608BD08B512F047FB0346A6
:100D3000002B01D0012300E00023184608BD00006D
:100D400008B5FFF79FFF0346012B04D0FFF79AFF7A
:100D50000346022B01D100230CE0074B1B68002B3C
:100D600007D0054B1B6840F64752934201D8012338
:100D700000E00023184608BD303A002008B5124BA9
:100D80001B68002B07D102E0012002F043FB0E4B51
:100D90001B68002BF8D00C4B1B6840F6475293425F
:100DA0000DD8FFF76FFF0346012B04D0FFF76AFF52
:100DB0000346022B03D1044B40F684521A60024BC7
:100DC0001B68184608BD00BF303A0020024B1B7854
:100DD000DBB21846704700BF6E2D002008B541F009
:100DE00010FD0346184608BD08B5FFF74BFF034644
:100DF000024A52F82330184608BD00BF182C0020C4
:100E000084B00346ADF8063000230393204B1B68E3
:100E10005A1C1F490A601F49BDF8062021F81320FB
:100E20001D4B1B681D2B04DC1B4B1B6801331A4A2E
:100E30001360174B1B681D2B02DD154B00221A6037
:100E4000002302930AE0134A029B32F813301A4639
:100E5000039B13440393029B013302930E4B1B68C5
:100E60001E2BA8BF1E23029A9A42ECDB0A4B1B687A
:100E70001D2B03DC084B1B681A4600E01E22039B57
:100E8000B3FBF2F30393039B9BB2184604B0704785
:100E90003C3A0020403A00207C3A002008B500F09F
:100EA000D4FB064B00221A80054B01221A7005481C
:100EB00002F0DEF90346184608BD00BF803A002064
:100EC000043B0020C90E020000B585B0A84B1B886A
:100ED000ADF80C30A74B1B889BB2002B02D16FF0F2
:100EE00001034CE2A34B1B889BB2013B9AB2A14B7E
:100EF0001A80A04B1B889BB2002B01D000233EE23E
:100F00009D4B1B78DBB2012B40F0738100238DF8E1
:100F10000B309A4B1B889BB21BB2002B10DA00F0EF
:100F200094FB964B00221A80BDF80C300333002B43
:100F300000DA03339B109AB28E4B1A8000231EE214
:100F40008F4B1B685A1C8E490A60DBB2184600F0B2
:100F5000CDFB0346ADF80E303EE0BDF80E301E2B43
:100F600007D19DF90B30DBB20133DBB28DF80B30CA
:100F700026E0BDF80E303E2B07D19DF90B30DBB2D9
:100F8000013BDBB28DF80B301AE0BDF80E305E2B62
:100F900009D17C4B1B785BB2DBB20133DBB25AB2B6
:100FA000784B1A700CE0BDF80E307E2B08D1754BD3
:100FB0001B785BB2DBB2013BDBB25AB2714B1A70E9
:100FC0006F4B1B685A1C6E490A60DBB2184600F072
:100FD0008DFB0346ADF80E30BDF80E3003F01F0355
:100FE0001E2BBAD04CE0664B1B68DBB2184600F0F3
:100FF0007DFB03468DF803309DF80330002B2ED087
:101000005F4B1B68DAB29DF80330013B8DF803306B
:101010009DF803301946104600F01CFB584B1B6826
:10102000DBB20133DBB2184600F060FB03461A4620
:10103000534B1A60524B1B683C2B0CD8504B1B680F
:101040005A1C4F490A60DBB2184600F04FFB0346BA
:10105000ADF80E3014E0FF23ADF80E3010E0484B31
:101060001B680233464A1360454B1B685A1C4449AF
:101070000A60DBB2184600F039FB0346ADF80E30CB
:10108000BDF80E301F2BAED0BDF80E30FF2B09D1AE
:1010900000F0DBFA3A4BFF221A60384BFF221A802D
:1010A00000236CE1BDF80E3003F06003602B12D01A
:1010B000602B16DC202B02D0402B06D011E0BDF8AF
:1010C0000C305B00ADF80C300BE0BDF80C309B0031
:1010D000ADF80C3005E0BDF80C30DB00ADF80C309D
:1010E00000BFBDF80E3003F08003002B0BD0BDF81D
:1010F0000C300133DA0F13445B109AB2BDF80C3098
:101100001344ADF80C301A4B1B889BB29B089BB262
:101110009BB2BDF80C20D31AADF80C30BDF80E30E0
:1011200003F01F03002B02D100F08FFA4DE0BDF851
:101130000E3003F01F03144A32F813300193114BA1
:101140001B785BB21A469DF90B301344002B1DDA55
:101150000C4B1B785BB21A469DF90B3013445B4273
:10116000012202FA03F3019A92FBF3F3019323E0C5
:10117000063B0020803A00200A3B0020083B00206C
:10118000843A00200B3B00205C8607007E4B1B78D6
:101190005BB21A469DF90B301344002B0CDD7A4BE1
:1011A0001B785BB21A469DF90B30134401229A401A
:1011B000019B02FB03F30193019B9BB2734A1278DC
:1011C000D2B21146184600F02BFABDF80E3003F0EB
:1011D0001F036F4A32F813306FEA43436FEA5343F9
:1011E0009AB26C4B1A806C4ABDF80C301380002305
:1011F000C5E0684B1B889BB21BB2002B0FDA00F0D6
:1012000024FA644B1B889AB2644B53409AB2614BE8
:101210001A80614ABDF80C3013800023AFE0604BA8
:101220001B685A1C5E490A605E4A52F82330ADF8CA
:101230000E30BDF80E304FF6FE72934221D1584B5E
:101240001B68584A52F82330002B17D0544B1B68A8
:101250005A1C53490A60534A52F823309BB2BDF8D6
:101260000C2012FB03F3ADF80C304D4B1B68033B15
:101270004C4A52F82330ADF80E3002E00023ADF8AE
:101280000E30BDF80E304FF6FD72934205D0BDF81A
:101290000E304FF6FC7293423CD1414B1B68414AE1
:1012A00052F82330002B26D03D4B1B683D4A52F8A4
:1012B00023304FF6FE72934208D0394B1B689B00D7
:1012C000384A13441A88013A92B21A80BDF80E3097
:1012D0004FF6FC7293420AD1314B1B681D2B06D886
:1012E0002F4B1B6801332F4A52F8233000E00023B4
:1012F0002B4A136004E02A4B1B680133284A136011
:10130000274B1B685A1C26490A60264A52F823308C
:10131000ADF80E30BDF80E30002B09D100F095F974
:101320001F4BFF221A601B4B00221A80002326E06D
:10133000BDF80E3023F4004347F6FF72934202D10A
:1013400000F083F912E0134B1B889BB2BDF80E200E
:101350009A420BD0BDF80E30C3F30E039BB20B4A7A
:101360001278D2B21146184600F05AF9094ABDF86F
:101370000E301380084ABDF80C3013800023184645
:1013800005B05DF804FB00BF0B3B0020053B0020CF
:101390005C860700083B0020803A00200080FFFFA9
:1013A000843A0020883A002082B003460A468DF82D
:1013B00007301346ADF804309DF80730002B31D0CC
:1013C000BDF8043047F6FF7293422BD19DF80730E9
:1013D000013B1A4A52F8233003F40043002B21D179
:1013E0009DF80730012B0DD09DF80730023B134AC2
:1013F00052F823304FF6FE72934213D00F4B5B68C6
:10140000002B0FD09DF80730013B0C4A52F82320E7
:101410009DF80730013B42F40042084941F823207F
:10142000002307E09DF80730BDF80420034941F888
:1014300023200123184602B0704700BF883A0020DD
:101440000EB400B588B001903D4B1B78002B01D144
:10145000FFF724FD3B4B00221A803B4B00221A7001
:101460009DF82430002B65D0002307930AAB03932B
:101470009DF92430002B3EDA039B1A1D03921B6852
:101480000693069B1B781B029BB2069A01321278C8
:101490001343ADF8163019E0079BDBB2BDF81620F8
:1014A00011461846FFF780FF03461A46079B134470
:1014B0000793069B1B781B029BB2069A0132127897
:1014C0001343ADF81630069B02330693BDF8163071
:1014D000002B1BD0079B1D2BDEDD17E0079BDBB22B
:1014E000049A92B211461846FFF75EFF03461A4669
:1014F000079B13440793039B1A1D03921B680493D5
:10150000049B002B02D0079B1D2BE7DD0F4A079B96
:10151000002142F82310019BDBB21A460C4B1A80C3
:101520000C4A9DF8243013700B4B00221A60054BB7
:1015300001221A8000BF08B05DF804EB03B07047C9
:10154000043B0020803A00200A3B0020883A00201B
:10155000063B0020053B0020843A00200FB400B574
:1015600085B0214B1B78002B01D1FFF797FC1F4B57
:1015700000221A801E4B00221A7000F066F81D4BE4
:101580009B78002B2AD00023039307AB019306E03E
:10159000039B5A1C0392029A174941F82320019B8E
:1015A0001A1D01921B680293029B002B02D0039B21
:1015B0001D2BEDDD104A039B002142F82310069BF2
:1015C000DBB21A460D4B1A800A4B9A780C4B1A70F4
:1015D0000C4B00221A60054B01221A8000BF05B097
:1015E0005DF804EB04B07047043B0020803A002013
:1015F0000A3B0020DC2E0020883A0020063B002019
:10160000053B0020843A0020044B1B889BB2002B32
:1016100014BF01230023DBB218467047803A002034
:1016200000B583B003460A46ADF8063013468DF880
:1016300005309DF80520BDF806301146184640F0EB
:10164000B7FC00BF03B05DF804FB08B540F02EFD09
:1016500000BF08BD82B003460A468DF80730134626
:101660008DF806309DF8073003F00103002B1CD1E4
:101670009DF807305B08DAB211461B4B53F8213056
:10168000114603F47F43184A42F821309DF8073091
:101690005B08D9B20A46144B53F822209DF8063055
:1016A0001343114A42F821301BE09DF807305B08D4
:1016B000DAB211460C4B53F821301146DBB20A4A1C
:1016C00042F821309DF807305B08D9B20A46064B34
:1016D00053F822209DF806301B021343024A42F8B9
:1016E000213000BF02B07047883A002082B0034624
:1016F0008DF807309DF8073003F00103002B09D166
:101700009DF807305B08DBB21A46094B53F82230CC
:10171000DBB209E09DF807305B08DBB21A46044BE8
:1017200053F822301B0ADBB2184602B0704700BFE4
:10173000883A00200CB400B587B001900091FFF703
:1017400084FF344B00221A80009B002B5BD0324B6D
:1017500001221A70089B5AB2304B1A7000238DF880
:10176000173009AB0293009B03F08003002B27D0B6
:10177000029B1A1D02921B6804930DE09DF817301E
:101780005A1C8DF81720049A127811461846FFF754
:1017900061FF049B01330493049B1B78FF2B1BD038
:1017A0009DF817303C2BE9D916E09DF817305A1CEC
:1017B0008DF81720039AD2B211461846FFF74AFF58
:1017C000029B1A1D02921B680393039BFF2B03D0FD
:1017D0009DF817303C2BE8D99DF81730FF211846AB
:1017E000FFF738FF019B9AB20D4B1A80009BDBB2CA
:1017F00003F07F03DAB20B4B1A700B4B00221A6016
:10180000044B01221A8000BF07B05DF804EB02B060
:10181000704700BF803A00200A3B00200B3B0020AD
:10182000063B0020053B0020843A002000B583B031
:1018300001900B4A019B1360094B1B6818462AF064
:1018400015FA074B1B6818462BF0C8F8044B1B68A9
:101850001846FDF7B7FA00BF03B05DF804FB00BF00
:10186000103B002010B586B0039002910093134600
:10187000ADF806300023ADF816302EE0BDF8163076
:10188000029A1A44009B9968009B1B889BB2581CC3
:1018900084B2009804800B4412781A70009B1B8855
:1018A0009AB2009B9B889BB29A4202D1009B002275
:1018B0001A80009BDB68002B0AD0009BDB68BDF818
:1018C000162002990A4411789DF820200398984721
:1018D000BDF816300133ADF81630BDF81620BDF84E
:1018E00006309A42CAD30023184606B010BD00B590
:1018F00087B00390029100931346ADF806300023A1
:10190000ADF8163012E0009BDB68002B09D0009B7D
:10191000DB68BDF8162002990A4411780122039869
:101920009847BDF816300133ADF81630BDF81620D3
:10193000BDF806309A42E6D300BF00BF07B05DF89D
:1019400004FB000008B5FDF7D3FA0346B3F1FF3FEF
:1019500003D0FDF7CDFA034608E0054B1B68002BCA
:1019600002DA4FF0FF3301E0014B1B68184608BD57
:101970000C3B002084B003468DF80730454B1B78A4
:10198000022B07D0434B1B78032B03D0414B1B7812
:10199000012B7BD14FF0FF3303939DF80730063BBB
:1019A0000F2B6ED801A252F823F000BFED190200F0
:1019B000831A0200831A0200831A0200831A0200AB
:1019C000831A0200831A0200831A0200831A02009B
:1019D000831A0200831A0200191A0200571A020021
:1019E0006D1A0200831A0200031A02002A4B1B78A8
:1019F000DBB243F00103DAB2274B1A7000230393E2
:101A00003FE0254B1B78DBB243F01003DAB2224BE8
:101A10001A700023039334E01F4B1B78DBB203F0F2
:101A20000803002B0CD01B4B1B78012B08D11A4B41
:101A30001B78DBB223F00803DAB2174B1A7007E009
:101A4000154B1B78DBB243F00403DAB2124B1A7069
:101A50000023039315E0104B1B78DBB243F0020325
:101A6000DAB20D4B1A70002303930AE00A4B1B787D
:101A7000DBB243F00803DAB2074B1A70002303937A
:101A800000BF039B002B01D1002300E00123184677
:101A900004B07047143B0020163B0020044B4FF06D
:101AA000FF321A60034B00221A7000231846704759
:101AB0000C3B0020163B002000B585B00190FFF7DD
:101AC00041FF0390019BB3F1FF3F01D1039BA2E0D3
