:020000021000EC
:10C000000000042039C2010021C2010023C2010046
:10C0100025C2010027C2010029C201000000000062
:10C020000000000000000000000000002BC2010022
:10C030002DC20100000000002FC2010031C201002A
:10C04000A5F4060033C20100B5F4060009B80500E6
:10C0500033C2010033C2010075920500699A0500E0
:10C0600033C2010055A805006DA8050033C20100C8
:10C0700033C2010033C2010033C2010033C20100E8
:10C0800089E10500F104020033C2010033C201005E
:10C0900033C2010033C201009D1C020001C604002E
:10C0A00025C6040033C2010033C2010033C20100BF
:10C0B00095F5010033C201000000000000000000FF
:10C0C00033C20100ADF50100C5F501004DFF0600CA
:10C0D000E1C1040033C2010033C2010009D50500EB
:10C0E00033C2010033C2010033C20100000000006E
:10C0F0000000000033C201000000000033C2010054
:10C10000000000000000000000000000000000002F
:10C11000000000000000000000000000000000001F
:10C12000000000000000000000000000000000000F
:10C1300000000000000000000000000000000000FF
:10C1400000000000000000000000000000000000EF
:10C1500000000000000000000000000000000000DF
:10C1600000000000000000000000000000000000CF
:10C1700000000000000000000000000000000000BF
:10C1800000000000000000000000000000000000AF
:10C19000000000000000000000000000000000009F
:10C1A000000000000000000000000000000000008F
:10C1B000000000000000000000000000000000007F
:10C1C000000000000000000000000000000000006F
:10C1D000000000000000000000000000000000005F
:10C1E000000000000000000000000000000000004F
:10C1F000000000000000000000000000000000003F
:04C200004F53452132
:0CC2040046424E56303132376F000000C9
:10C2100046464E7878787830000000000000000034
:10C22000FEE7FEE7FEE7FEE7FEE7FEE7FEE7FEE7E6
:10C23000FEE7FEE700F002B8FFF7FCBF0F484FF043
:10C240000701884385460E4880470E48016841F43F
:10C2500070010160BFF34F8FBFF36F8F00F01AB80A
:10C2600009480A490A4A884207D0521A05D0037879
:10C2700001300B700131013AF9D170470000042000
:10C28000DD32030088ED00E0D0810700B0270020F8
:10C29000602900203A493B480A1A02D007229143FC
:10C2A0008D46394939480A1A06D00722914381F34D
:10C2B0000988022282F3148835483649364A00F04C
:10C2C00041F836483649374A00F03CF83648374995
:10C2D000374A00F037F837483749384A00F032F823
:10C2E00037483849384A00F02DF838483849394A33
:10C2F00000F028F838483949394A00F023F839481D
:10C300003949002200F036F838483949002200F057
:10C3100031F838483849091A5BF0E5FA374A90474E
:10C3200025482649884205D00268043003B4904766
:10C3300003BCF7E700208646EC4600200021304A87
:10C340009047FEE7884214D0521A12D003460B439E
:10C3500013430324234206D1036804300B600431E5
:10C36000043AF9D17047037801300B700131013A7A
:10C37000F9D17047884202D002700130FAE7704765
:10C380000000042000E0032000000420000004203E
:10C39000C036080060290020E834002004C40100F1
:10C3A00004C40100687F0700C0360800602900202F
:10C3B00060290020808307008083070080830700B6
:10C3C0008083070080830700808307008083070045
:10C3D00080830700C036080048420800E834002087
:10C3E000E8340020EC340020F0B70020E8340020CE
:10C3F000EC34002014C8002014E8002061C20100C1
:04C400007D5507005F
:10C4040000B599B00CAB2A22002118465BF052FC0F
:10C4140004AB2022002118465BF04CFC0123089356
:10C42400292309930CAB0493FA21012001F046FF60
:10C4340041F27071062001F041FF012008F048FF2D
:10C444000346002B02DA5F4809F01AF85E4809F047
:10C4540017F804AB18460BF093FE0346002B40F08C
:10C46400AE8000231793069BF02B66D15DE0179BEB
:10C47400002B06D004AB18460BF082FE0346002BBB
:10C4840053D104AB184609F02BFD1790179B0133C9
:10C49400062B4AD801A252F823F000BF2DC5010093
:10C4A4002FC50100BDC40100D9C4010001C50100AC
:10C4B40011C501002FC50100002301934FF45C63F3
:10C4C400009340F6B9134FF45C626421052000F038
:10C4D40053FB2AE0002301934FF45C63009340F67E
:10C4E400B9134FF45C626421052000F045FB192068
:10C4F40000F0B8FE354808F0C3FF16E0002340F210
:10C50400174264210A2000F037FB0EE00023019358
:10C514004FF45C63009340F6B9134FF45C626421FA
:10C52400052000F029FB00E000BF179B022B46D03A
:10C53400179BB3F1FF3F9AD141E0069BF22B2AD11E
:10C5440004AB184609F0CCFC1790179B032B03D0BF
:10C55400179B042B08D032E0002340F217426421D9
:10C564000A2000F009FB2AE0002302934FF45C63E5
:10C57400019340F6B91300934FF45C6340F6B9128B
:10C584006421052000F0F8FA192000F06BFE0F4832
:10C5940008F076FF13E00A214FF47F4001F0EAF936
:10C5A400002300934FF45C6340F6B9126421052024
:10C5B40000F0E2FA049B1946054805F0AFF801F0D3
:10C5C400F3F846E780830700848307008883070025
:10C5D4008C83070008B500F0D4FB064B00221A80B8
:10C5E400054B01221A70054800F06AFD03461846FF
:10C5F40008BD00BFEC3400207035002005C60100E2
:10C6040000B585B0A84B1B88ADF80C30A74B1B8830
:10C614009BB2002B02D16FF001034CE2A34B1B88A9
:10C624009BB2013B9AB2A14B1A80A04B1B889BB2D0
:10C63400002B01D000233EE29D4B1B78DBB2012B83
:10C6440040F0738100238DF80B309A4B1B889BB20A
:10C654001BB2002B10DA00F094FB964B00221A80D8
:10C66400BDF80C300333002B00DA03339B109AB26D
:10C674008E4B1A8000231EE28F4B1B685A1C8E4976
:10C684000A60DBB2184600F0CDFB0346ADF80E306D
:10C694003EE0BDF80E301E2B07D19DF90B30DBB206
:10C6A4000133DBB28DF80B3026E0BDF80E303E2BA3
:10C6B40007D19DF90B30DBB2013BDBB28DF80B30B7
:10C6C4001AE0BDF80E305E2B09D17C4B1B785BB2AF
:10C6D400DBB20133DBB25AB2784B1A700CE0BDF80E
:10C6E4000E307E2B08D1754B1B785BB2DBB2013B5D
:10C6F400DBB25AB2714B1A706F4B1B685A1C6E49ED
:10C704000A60DBB2184600F08DFB0346ADF80E302C
:10C71400BDF80E3003F01F031E2BBAD04CE0664B5D
:10C724001B68DBB2184600F07DFB03468DF803302E
:10C734009DF80330002B2ED05F4B1B68DAB29DF8B6
:10C744000330013B8DF803309DF803301946104641
:10C7540000F01CFB584B1B68DBB20133DBB21846FC
:10C7640000F060FB03461A46534B1A60524B1B6899
:10C774003C2B0CD8504B1B685A1C4F490A60DBB247
:10C78400184600F04FFB0346ADF80E3014E0FF23CB
:10C79400ADF80E3010E0484B1B680233464A136074
:10C7A400454B1B685A1C44490A60DBB2184600F02A
:10C7B40039FB0346ADF80E30BDF80E301F2BAED05A
:10C7C400BDF80E30FF2B09D100F0DBFA3A4BFF2203
:10C7D4001A60384BFF221A8000236CE1BDF80E303A
:10C7E40003F06003602B12D0602B16DC202B02D0E8
:10C7F400402B06D011E0BDF80C305B00ADF80C30D6
:10C804000BE0BDF80C309B00ADF80C3005E0BDF832
:10C814000C30DB00ADF80C3000BFBDF80E3003F077
:10C824008003002B0BD0BDF80C300133DA0F134416
:10C834005B109AB2BDF80C301344ADF80C301A4BAF
:10C844001B889BB29B089BB29BB2BDF80C20D31AE9
:10C85400ADF80C30BDF80E3003F01F03002B02D1ED
:10C8640000F08FFA4DE0BDF80E3003F01F03144AB8
:10C8740032F813300193114B1B785BB21A469DF9C1
:10C884000B301344002B1DDA0C4B1B785BB21A4699
:10C894009DF90B3013445B42012202FA03F3019A1F
:10C8A40092FBF3F3019323E072350020EC34002073
:10C8B4007635002074350020F034002077350020D0
:10C8C400908307007E4B1B785BB21A469DF90B30B0
:10C8D4001344002B0CDD7A4B1B785BB21A469DF98E
:10C8E4000B30134401229A40019B02FB03F3019392
:10C8F400019B9BB2734A1278D2B21146184600F0DB
:10C904002BFABDF80E3003F01F036F4A32F81330D0
:10C914006FEA43436FEA53439AB26C4B1A806C4AF2
:10C92400BDF80C3013800023C5E0684B1B889BB214
:10C934001BB2002B0FDA00F024FA644B1B889AB266
:10C94400644B53409AB2614B1A80614ABDF80C3073
:10C9540013800023AFE0604B1B685A1C5E490A60D9
:10C964005E4A52F82330ADF80E30BDF80E304FF663
:10C97400FE72934221D1584B1B68584A52F8233017
:10C98400002B17D0544B1B685A1C53490A60534A56
:10C9940052F823309BB2BDF80C2012FB03F3ADF820
:10C9A4000C304D4B1B68033B4C4A52F82330ADF816
:10C9B4000E3002E00023ADF80E30BDF80E304FF615
:10C9C400FD72934205D0BDF80E304FF6FC729342CF
:10C9D4003CD1414B1B68414A52F82330002B26D0EE
:10C9E4003D4B1B683D4A52F823304FF6FE7293428A
:10C9F40008D0394B1B689B00384A13441A88013A03
:10CA040092B21A80BDF80E304FF6FC7293420AD1EE
:10CA1400314B1B681D2B06D82F4B1B6801332F4A43
:10CA240052F8233000E000232B4A136004E02A4B21
:10CA34001B680133284A1360274B1B685A1C26497C
:10CA44000A60264A52F82330ADF80E30BDF80E3095
:10CA5400002B09D100F095F91F4BFF221A601B4BE4
:10CA640000221A80002326E0BDF80E3023F4004390
:10CA740047F6FF72934202D100F083F912E0134BA0
:10CA84001B889BB2BDF80E209A420BD0BDF80E3025
:10CA9400C3F30E039BB20B4A1278D2B21146184666
:10CAA40000F05AF9094ABDF80E301380084ABDF85F
:10CAB4000C3013800023184605B05DF804FB00BF5A
:10CAC40077350020713500209083070074350020ED
:10CAD400EC3400200080FFFFF0340020F434002008
:10CAE40082B003460A468DF807301346ADF8043089
:10CAF4009DF80730002B31D0BDF8043047F6FF72A3
:10CB040093422BD19DF80730013B1A4A52F8233047
:10CB140003F40043002B21D19DF80730012B0DD0E5
:10CB24009DF80730023B134A52F823304FF6FE7249
:10CB3400934213D00F4B5B68002B0FD09DF8073046
:10CB4400013B0C4A52F823209DF80730013B42F484
:10CB54000042084941F82320002307E09DF80730EC
:10CB6400BDF80420034941F823200123184602B0EC
:10CB7400704700BFF43400200EB400B588B00190B3
:10CB84003D4B1B78002B01D1FFF724FD3B4B0022CA
:10CB94001A803B4B00221A709DF82430002B65D07C
:10CBA400002307930AAB03939DF92430002B3EDA4C
:10CBB400039B1A1D03921B680693069B1B781B029A
:10CBC4009BB2069A013212781343ADF8163019E07D
:10CBD400079BDBB2BDF8162011461846FFF780FF0D
:10CBE40003461A46079B13440793069B1B781B02B4
:10CBF4009BB2069A013212781343ADF81630069BA5
:10CC040002330693BDF81630002B1BD0079B1D2B57
:10CC1400DEDD17E0079BDBB2049A92B21146184698
:10CC2400FFF75EFF03461A46079B13440793039BD3
:10CC34001A1D03921B680493049B002B02D0079BCC
:10CC44001D2BE7DD0F4A079B002142F82310019BAF
:10CC5400DBB21A460C4B1A800C4A9DF82430137030
:10CC64000B4B00221A60054B01221A8000BF08B04A
:10CC74005DF804EB03B0704770350020EC340020FD
:10CC840076350020F4340020723500207135002000
:10CC9400F03400200FB400B585B0214B1B78002B75
:10CCA40001D1FFF797FC1F4B00221A801E4B002274
:10CCB4001A7000F066F81D4B9B78002B2AD00023D5
:10CCC400039307AB019306E0039B5A1C0392029A59
:10CCD400174941F82320019B1A1D01921B680293F6
:10CCE400029B002B02D0039B1D2BEDDD104A039BFE
:10CCF400002142F82310069BDBB21A460D4B1A8022
:10CD04000A4B9A780C4B1A700C4B00221A60054B94
:10CD140001221A8000BF05B05DF804EB04B070472F
:10CD240070350020EC34002076350020D82900200E
:10CD3400F43400207235002071350020F0340020D6
:10CD4400044B1B889BB2002B14BF01230023DBB2CE
:10CD540018467047EC34002000B583B003460A46F9
:10CD6400ADF8063013468DF805309DF80520BDF862
:10CD74000630114618462EF037FD00BF03B05DF8AB
:10CD840004FB08B52EF0AEFD00BF08BD82B003461B
:10CD94000A468DF8073013468DF806309DF80730A3
:10CDA40003F00103002B1CD19DF807305B08DAB2B5
:10CDB40011461B4B53F82130114603F47F43184AA4
:10CDC40042F821309DF807305B08D9B20A46144B6B
:10CDD40053F822209DF806301343114A42F82130BB
:10CDE4001BE09DF807305B08DAB211460C4B53F890
:10CDF40021301146DBB20A4A42F821309DF807304F
:10CE04005B08D9B20A46064B53F822209DF8063037
:10CE14001B021343024A42F8213000BF02B070479C
:10CE2400F434002082B003468DF807309DF80730B3
:10CE340003F00103002B09D19DF807305B08DBB236
:10CE44001A46094B53F82230DBB209E09DF807304B
:10CE54005B08DBB21A46044B53F822301B0ADBB2E0
:10CE6400184602B0704700BFF43400200CB400B57B
:10CE740087B001900091FFF784FF344B00221A80A1
:10CE8400009B002B5BD0324B01221A70089B5AB2D4
:10CE9400304B1A7000238DF8173009AB0293009BB6
:10CEA40003F08003002B27D0029B1A1D02921B68FB
:10CEB40004930DE09DF817305A1C8DF81720049A3E
:10CEC400127811461846FFF761FF049B013304935F
:10CED400049B1B78FF2B1BD09DF817303C2BE9D902
:10CEE40016E09DF817305A1C8DF81720039AD2B219
:10CEF40011461846FFF74AFF029B1A1D02921B684F
:10CF04000393039BFF2B03D09DF817303C2BE8D9E8
:10CF14009DF81730FF211846FFF738FF019B9AB29E
:10CF24000D4B1A80009BDBB203F07F03DAB20B4B8C
:10CF34001A700B4B00221A60044B01221A8000BFA6
:10CF440007B05DF804EB02B0704700BFEC3400207A
:10CF540076350020773500207235002071350020A9
:10CF6400F034002000B585B00190019B002B0AD05D
:10CF7400074B43F001030393019B9B010293039B23
:10CF84000298984700E000BF05B05DF804FB00BFBD
:10CF9400D083070000B583B0002301931FE030491C
:10CFA400019A13465B0013449B000B4400221A6051
:10CFB4002B49019A13465B0013449B000B44043332
:10CFC40000221A602649019A13465B0013449B0011
:10CFD4000B44083300221A60019B01330193019B27
:10CFE400272BDCDD002300931DE01E4A009B1B0160
:10CFF400134400221A701B4A009B1B01134408337C
:10D0040000221A60174A009B1B01134404330022B8
:10D014001A60144A009B1B0113440C3300221A604B
:10D02400009B01330093009B132BDEDD14210A20A7
:10D034002EF066FE0C4B00221A600C4B4FF6FF726A
:10D044001A600B4A137843F001031370084A1378EB
:10D0540043F00203137000BF03B05DF804FB00BF8C
:10D064008C3500207C37002080350020602900208A
:10D074007837002008B514210A202EF041FE054A15
:10D08400137843F002031370034800F019F800BF4B
:10D0940008BD00BF78370020B1E1010008B52EF0CB
:10D0A4009BFE054A13786FF341031370034800F0A5
:10D0B40095F800BF08BD00BF78370020B1E101003A
:10D0C40084B001900023ADF80E3012E0BDF80E20BC
:10D0D400294913465B0013449B000B441B68019AC7
:10D0E4009A4201D1002344E0BDF80E300133ADF87B
:10D0F4000E30BDF80E30272BE8D90023ADF80E30E2
:10D1040031E0BDF80E201C4913465B0013449B001C
:10D114000B441B68002B21D1BDF80E201649134681
:10D124005B0013449B000B44019A1A60BDF80E2067
:10D13400114913465B0013449B000B440433002243
:10D144001A60BDF80E200C4913465B0013449B0083
:10D154000B44083300221A6000230AE0BDF80E30A5
:10D164000133ADF80E30BDF80E30272BC9D94FF07E
:10D17400FF33184604B070478C35002082B000237A
:10D184000193002300930FE00B49009A13465B00C0
:10D1940013449B000B441B68002B02D0019B0133FA
:10D1A4000193009B01330093009B272BECDD019B33
:10D1B400184602B0704700BF8C35002082B0019041
:10D1C4000549019A13465B0013449B000B441B68FA
:10D1D400184602B0704700BF8C35002084B001901F
:10D1E4000023ADF80E3032E0BDF80E201C49134682
:10D1F4005B0013449B000B441B68019A9A4221D1A3
:10D20400BDF80E20164913465B0013449B000B44E3
:10D2140000221A60BDF80E20114913465B00134426
:10D224009B000B44043300221A60BDF80E200C4905
:10D2340013465B0013449B000B44083300221A601E
:10D2440000230AE0BDF80E300133ADF80E30BDF80E
:10D254000E30272BC8D94FF0FF33184604B070475F
:10D264008C35002000B583B00190019B0F4A1360F8
:10D274000F4B1B7803F00203DBB2002B07D001E055
:10D2840000F092FA094B1B68002BF9D109E0019BCD
:10D294009BB21A46920013449B009BB2184600F0BE
:10D2A40009F800BF03B05DF804FB00BF803500201F
:10D2B4007837002000B583B00346ADF80630BDF8DA
:10D2C400063018462EF0E8FC00BF03B05DF804FBFE
:10D2D40000B583B00346ADF80630BDF806304FF410
:10D2E4007A7202FB03F31846FFF73CFE00BF03B05B
:10D2F4005DF804FB054B1B68002B04D0034B002294
:10D304001A60012300E0002318467047843500208A
:10D3140008B52EF075FD034683F00103DBB2002B44
:10D3240001D0002301E0024B1B68184608BD00BF72
:10D334008835002000B585B0002302937C4B1B6820
:10D34400002B40F0F1807A4B01221A602EF070FC21
:10D3540003461A46774B1A60774B1B680133764AAB
:10D364001360764B1B889BB201339AB2734B1A80BD
:10D374000023039344E0724A039B1B0113441B786C
:10D38400012B3AD16E4A039B1B01134408331B68DB
:10D39400002B32D06A4A039B1B01134408331B68D9
:10D3A4004FF6FF72934228D001230293644A039BF1
:10D3B4001B01134408331B685A1E6149039B1B015C
:10D3C4000B4408331A605E4A039B1B011344083361
:10D3D4001B68002B11D15A4A039B1B0113440C33C5
:10D3E4001B68002B06D0564A039B1B0113440C33C5
:10D3F4001B689847534B01221A60039B0133039324
:10D40400039B132BB7DD504B1B68002B0BD04E4BEB
:10D414001B68013B4C4A1360002B02D1494B01228B
:10D424001A6001230293494B1B68002B11D0474B10
:10D434001B684FF6FF7293420BD0444B1B68013BB1
:10D44400424A1360002B02D13E4B01221A60012391
:10D45400029300230193002303935BE03C49039A66
:10D4640013465B0013449B000B441B68002B4ED0F7
:10D474002EF0DEFB034601933549039A13465B0005
:10D4840013449B000B441B6898470090009B13F1C6
:10D49400020F3CD001230293009B012B02D1294BA4
:10D4A40001221A602EF0C4FB03461A46019BD11ACE
:10D4B4002748039A13465B0013449B000344043338
:10D4C40019602349039A13465B0013449B000B44E1
:10D4D400043319681E48039A13465B0013449B00E7
:10D4E400034408331B68994211D31949039A13461C
:10D4F4005B0013449B000B44043319681448039ADB
:10D5040013465B0013449B00034408331960039BD8
:10D5140001330393039B272BA0DD0E4A029B136068
:10D52400034B00221A6000E000BF05B05DF804FB65
:10D53400C0380020BC380020783500207C3500201D
:10D544007C370020843500208035002060290020AD
:10D554008C3500208835002000B585B001900091FD
:10D56400002303933EE0244A039B1B0113441B78CE
:10D57400012B34D0204A039B1B01134401221A704F
:10D584001D4A039B1B0113440833019A1A601A4A6B
:10D59400039B1B0113440433019A1A60164A039B2C
:10D5A4001B0113440C33009A1A60134A039B1B019A
:10D5B400134408331B68002B0ED10F4A039B1B0135
:10D5C40013440C331B68002B06D00B4A039B1B012E
:10D5D40013440C331B689847039B5BB207E0039B1F
:10D5E40001330393039B132BBDDD4FF0FF33184628
:10D5F40005B05DF804FB00BF7C37002082B0034611
:10D604008DF807309DF90730132B03DC9DF90730A3
:10D61400002B02DA4FF0FF331AE09DF807300E4A70
:10D624001B0113441B78012B10D19DF807309DF882
:10D6340007201046084A1B01134404331A6806499C
:10D6440003010B4408331A60002301E04FF0FF3359
:10D65400184602B0704700BF7C37002082B00346F2
:10D664008DF807309DF90730132B03DC9DF9073043
:10D67400002B02DA4FF0FF3322E09DF80730124A04
:10D684001B0113441B78012B18D19DF807300E4A57
:10D694001B01134400221A709DF807300A4A1B012B
:10D6A4001344083300221A609DF80730064A1B0110
:10D6B40013440C3300221A60002301E04FF0FF33BF
:10D6C400184602B0704700BF7C37002082B0034682
:10D6D4008DF807309DF90730132B03DC9DF90730D3
:10D6E400002B02DA4FF0FF3316E09DF807300C4AA6
:10D6F4001B0113441B78012B0CD19DF80730084AF9
:10D704001B01134408331B68002B01D0002303E0E2
:10D71400012301E04FF0FF33184602B0704700BF09
:10D724007C37002082B003468DF807309DF907301E
:10D73400132B03DC9DF90730002B02DA4FF0FF3383
:10D7440011E09DF80730094A1B0113441B78012B93
:10D7540007D19DF80730054A1B01134408331B68A1
:10D7640001E04FF0FF33184602B070477C370020C9
:10D7740082B00190024A019B136000BF02B070475F
:10D7840060290020044B1B68002B0CBF01230023DD
:10D79400DBB21846704700BF60290020014B1B68AC
:10D7A400184670477835002008B52FF0D5FE03469B
:10D7B400002B01D103F090F800BF08BD08B501208B
:10D7C40018F080FE074B00221A80074B00221A80B3
:10D7D400064B00221A800648FFF772FC03461846DF
:10D7E40008BD00BFC6380020C4380020C838002057
:10D7F400B1D8010008B500F0C3FB012018F068FDA2
:10D804000A4B00221A80002018F062FD084B002207
:10D814001A80022018F05CFD064B00221A8006488C
:10D82400FFF7DCFC0346184608BD00BFC6380020DD
:10D83400C4380020C8380020B1D8010000B583B036
:10D84400034600918DF807309DF80730022B1CD059
:10D85400022B25DC002B02D0012B0BD020E0009BF7
:10D86400002B03D0012018F021FD1AE0012018F04C
:10D874002FFD16E0009B002B03D0002018F016FDAE
:10D884000FE0002018F024FD0BE0009B002B03D0D8
:10D89400022018F00BFD04E0022018F019FD00E04E
:10D8A40000BF00BF03B05DF804FB000000B583B007
:10D8B4006FF0010301932C4B1B889BB24FF6FF7250
:10D8C400934214D0284B1B889BB2002B0FD000230B
:10D8D4000193254B1B889BB2013B9BB2224A1946FC
:10D8E4001180002B03D100210020FFF7A7FF1F4B5D
:10D8F4001B889BB24FF6FF72934214D01B4B1B88BC
:10D904009BB2002B0FD000230193184B1B889BB2B2
:10D91400013B9BB2154A19461180002B03D100210B
:10D924000120FFF78BFF124B1B889BB24FF6FF724F
:10D93400934214D00E4B1B889BB2002B0FD00023B4
:10D9440001930B4B1B889BB2013B9BB2084A1946BF
:10D954001180002B03D100210220FFF76FFF019BF0
:10D96400184603B05DF804FBC6380020C438002014
:10D97400C838002000B585B003900291039B03F0E2
:10D984008073002B0AD0039B23F07F406423009311
:10D9940028233222029900F0A5F81EE0039B03F02D
:10D9A4000063002B0AD0039B23F07F4014230093D1
:10D9B40096230522029900F095F80EE0039B23F0CC
:10D9C4007F43002B09D0039B23F07F406423009303
:10D9D40000236422029900F085F800BF05B05DF8C9
:10D9E40004FB000082B000230193154B1B889BB2FB
:10D9F400002B03D0019B43F47F030193114B1B883D
:10DA04009BB2002B03D0019B43F47F4301930E4B45
:10DA14001B889BB2002B03D0019B43F0FF030193AF
:10DA24000A4B1B78DBB203F00203002B04D0084B33
:10DA34001A68019B13430193019B184602B0704777
:10DA4400C6380020C4380020C8380020CA38002056
:10DA5400CC38002000B583B003468DF8073000F0C1
:10DA64008FFA00BF03B05DF804FB000000B52DED94
:10DA7400028B83B08DED010ACDED000A019859F0B7
:10DA840089FA16A3D3E9002359F04EF902460B464E
:10DA940043EC182B009859F07DFA02460B4643ECF0
:10DAA400112BB0EE480AF0EE680A58F093FD51ECE1
:10DAB400100B0AA3D3E9002359F09EF802460B4643
:10DAC4001046194659F080FA034607EE903AB0EE34
:10DAD400670A03B0BDEC028B5DF804FB0000000094
:10DAE40000E06F4010B59EB00590049111461A46AF
:10DAF4000B468DF80F301346ADF80C30059B1B0C0C
:10DB04008DF87330059B1B0A8DF87230059B8DF8D8
:10DB14007130059B002B00F025824FF0FF331D93DD
:10DB2400049B002B0AD0209B002B07D0BDF80C309F
:10DB3400002B08D09DF80F30002B04D100231D9337
:10DB44000023049317E09DF80F30632B03D8BDF82E
:10DB54000C30002B0FD1209B642B0CD1059BB3F50B
:10DB64007F0F06D0059BB3F57F4F02D0059BFF2B9B
:10DB740001D101231D931D9B012B02D01D9B002B62
:10DB84002DD1BD4B1A68059B1340002B01D000F02A
:10DB9400F7F99DF87330002B07D01D990020FFF78B
:10DBA4004DFE049B9AB2B54B1A809DF87230002B3F
:10DBB40007D01D990120FFF741FE049B9AB2B04B98
:10DBC4001A809DF87130002B00F0CE811D9902203F
:10DBD400FFF734FE049B9AB2AA4B1A80C4E100F00A
:10DBE400CFF99DF80F30642B02D964238DF80F30E0
:10DBF40012AB00221A605A609A604FF0FF331293FE
:10DC040006238DF84C3006238DF84D3003238DF810
:10DC1400523040F2E243ADF850309DF8733007EED5
:10DC2400903AF8EE677ADFED980AB0EE670AFFF7EC
:10DC34001DFF8DED1B0A9DF8723007EE903AF8EE49
:10DC4400677ADFED910AB0EE670AFFF70FFF8DEDFB
:10DC54001A0A9DF8713007EE903AF8EE677ADFED14
:10DC64008A0AB0EE670AFFF701FF8DED190A209BBF
:10DC740007EE903AB8EEE77ADDED1B7A27EE277AC5
:10DC8400824B93F82630002B07D0804B93F8263034
:10DC940007EE903AF8EEE77A01E0DFED7D7A27EEC1
:10DCA400877ADFED7C6AC7EE267ACDED187A209B61
:10DCB40007EE903AB8EEE77ADDED1A7A27EE277A86
:10DCC400724B93F82730002B07D0704B93F8273012
:10DCD40007EE903AF8EEE77A01E0DFED6D7A27EE91
:10DCE400877ADFED6C6AC7EE267ACDED177A209B32
:10DCF40007EE903AB8EEE77ADDED197A27EE277A47
:10DD0400624B93F82830002B07D0604B93F82830EF
:10DD140007EE903AF8EEE77A01E0DFED5D7A27EE60
:10DD2400877ADFED5C6AC7EE267ACDED167ABDF808
:10DD3400503007EE903AB8EEE77ADDED187A67EEE8
:10DD4400277AFDEEE77A17EE903A1BB26FEA434367
:10DD54006FEA53431BB29AB24F4B1A80BDF850304E
:10DD640007EE903AB8EEE77ADDED177A67EE277A98
:10DD7400FDEEE77A17EE903A1BB26FEA43436FEA7F
:10DD840053431BB29AB2444B5A80BDF8503007EE4D
:10DD9400903AB8EEE77ADDED167A67EE277AFDEE73
:10DDA400E77A17EE903A1BB26FEA43436FEA5343A4
:10DDB4001BB29AB2384B9A80BDF85020364BDA80A9
:10DDC400BDF85020354B1A80BDF85020334B5A8093
:10DDD400BDF85020314B9A80BDF850202F4BDA808B
:10DDE4009DF87330002B02D02D4B5B7800E0FF23AD
:10DDF4008DF848309DF87230002B02D0284B1B78E8
:10DE040000E0FF238DF849309DF87130002B02D0DB
:10DE1400234B9B7800E0FF238DF84A3012AB214A54
:10DE24001946214801F08AF9204B1B78DBB243F0F4
:10DE34000203DAB21D4B1A700F4A059B1360BDF83A
:10DE44000C30002B03D09DF80F30642B3AD1184BC3
:10DE54000EAC0FCB84E80F00049B4FF6FF72934285
:10DE640003D0049BB3F1FF3F24D10EA91223012256
:10DE74000D4801F06BFA78E0CC380020C638002059
:10DE8400C4380020C8380020CDCC0C40543F0020BA
:10DE94000000C842C0A31B4AD0380020D838002054
:10DEA400E883070059DA010064290020CA380020F9
:10DEB400D8830700049B9AB20EA900232C4801F0D2
:10DEC40045FA52E02B4B0A930423ADF82C309DF80D
:10DED4000F30BDF80C2002FB03F3274A82FB031228
:10DEE4001211DB17D31A0C9300230D93234B0693C3
:10DEF4000423ADF81C309DF80F30C3F16403BDF862
:10DF04000C2002FB03F31C4A82FB0312D210DB1722
:10DF1400D31A089300230993049B4FF6FF7293428C
:10DF240003D0049BB3F1FF3F08D106AA0AA9122328
:10DF3400009302230E4801F06FFA16E0BDF80C209E
:10DF4400049B13445A1EBDF80C3092FBF3F3159353
:10DF5400159B9BB206AA0AA910200090044801F060
:10DF64005BFA02E000BF00E000BF1EB010BD00BFBE
:10DF740064290020D03800201F85EB51D8380020B8
:10DF840008B50B4B1B78DBB203F00203002B0DD05A
:10DF9400084801F055F9064B1B78DBB223F0020365
:10DFA400DAB2034B1A70044B00221A6000BF08BD9A
:10DFB400CA38002064290020CC380020BFF34F8FDA
:10DFC40000BF064BDB6803F4E0620449044B1343CF
:10DFD400CB60BFF34F8F00BF00BFFDE700ED00E053
:10DFE4000400FA0582B00190019B1B681F2B02D824
:10DFF4004FF0A04306E0019B1B6803F01F02019B46
:10E004001A60024B184602B0704700BF000300506C
:10E0140000B585B00190084611461A4603468DF8AE
:10E0240003300B468DF8023013468DF8013001ABF6
:10E034001846FFF7D7FF03909DF803209DF80230A0
:10E044005B001A439DF801309B001A439DF8183079
:10E054001B0242EA03019DF81C301B04019A194378
:10E06400039B02F5E07243F8221000BF05B05DF88F
:10E0740004FB00B587B003900B468DF80B309DF878
:10E084000B30002B0AD10398002301930023009343
:10E09400002300220021FFF7BBFF0AE003AB184670
:10E0A400FFF7A0FF0590039B01229A40059BC3F84C
:10E0B400182500BF07B05DF804FB00B585B00190DA
:10E0C40001AB1846FFF78EFF0390019B012202FA71
:10E0D40003F31946039800F02AF800BF05B05DF871
:10E0E40004FB00B585B0019001AB1846FFF77AFF39
:10E0F4000390019B012202FA03F31946039800F0EE
:10E1040020F800BF05B05DF804FB00B583B00190B2
:10E114000091009B002B03D10198FFF7E2FF02E07E
:10E124000198FFF7CAFF00BF03B05DF804FB82B09B
:10E1340001900091019B009AC3F8082500BF02B02A
:10E14400704782B001900091019B009AC3F80C259E
:10E1540000BF02B07047000000B583B015F034FB77
:10E164000346002B01D0052319E00023019312E09C
:10E174000D4A019B52F82330002B09D00A4A019B17
:10E1840052F8233098470346002B01D0012306E0C0
:10E19400019B01330193019B092BE9D90023184604
:10E1A40003B05DF804FB00BF9029002000B583B0E4
:10E1B4001C4B1B68002B02D16FF001032EE000F012
:10E1C400DDFB0346002B01D0002327E0FFF7C4FF4B
:10E1D40003460193019B002B0AD1124B1B68013BA0
:10E1E400104A1360002B18D10F482EF02BFA14E0BC
:10E1F400019B052B0DD109F0E1FA0346002B01D058
:10E2040000230BE0074B00221A6007482EF01AFA8D
:10E2140003E0064B1B68034A13600023184603B04F
:10E224005DF804FBEC38002089E40100F03800209C
:10E2340000B583B001900091019B002B02D0174AD6
:10E24400019B1360009B002B02D0154A009B1360B6
:10E25400144B00221A60144B00221A60134B002244
:10E264001A701348FEF72CFF0346002B02D04FF020
:10E27400FF330EE00F4A00210F4801F0A7FC0346CC
:10E28400002B02D04FF0FF3303E0084B01221A7039
:10E294000023184603B05DF804FB00BFE0380020FB
:10E2A400E4380020F0380020EC380020F838002052
:10E2B400B1E1010031E501000C84070000B583B031
:10E2C40001900091019B012B04D1009B002B01D1F3
:10E2D400002301935E4B1B78DBB2002B00F0AB8074
:10E2E400019B202B00F2A98001A252F823F000BF69
:10E2F40079E301008BE301003FE40100D7E301006F
:10E304003FE40100E9E3010023E401002BE4010000
:10E3140033E401003FE401003FE401003FE4010075
:10E324003FE401003FE401003FE401003FE4010059
:10E33400B3E301003FE401003FE401003FE40100D6
:10E344003FE401003FE401003FE401003FE4010039
:10E354003FE401003FE401003FE401003FE4010029
:10E364003FE401003FE401003FE401003FE4010019
:10E37400F7E301000023374A1360374A1360374B31
:10E3840000221A6060E0009B312B01D832230093F5
:10E39400009B334A934201D9314B0093009B2D4A91
:10E3A40013602D4A13602D4B00221A604CE0294B58
:10E3B40000221A60294B1B680133284A1360274B3B
:10E3C4001B68B3F57A7F3ADD244B4FF47A721A60F6
:10E3D40035E0224B1B68002B33D11F4B1B681D4AB1
:10E3E40013602EE01B4B01221A601C4B00221A60A2
:10E3F4002AE01A4B1B68012B07D1174B1B68154ADF
:10E404001360164B00221A601DE0144B1B68002B8E
:10E4140019DD124B1B68013B104A136013E0114ACB
:10E42400009B136010E00F4B00221A600CE00E48B2
:10E434002EF008F908E000BF06E000BF04E000BFCA
:10E4440002E000BF00E000BF03B05DF804FB00BFC2
:10E45400F8380020EC380020F0380020F438002090
:10E4640020BF0200FC38002095E4010008B501211A
:10E474002020FFF7FEFD01212020FFF746FE0023A8
:10E48400184608BD08B5002000F07CF900BF08BD9F
:10E4940008B500216FF07F40FFF76CFA4FF0FF31B1
:10E4A4000748FFF767FA1420FEF7DCFE0021044852
:10E4B400FFF760FA012000F065F900BF08BD00BF56
:10E4C4000002080008B5164B5B7C03F00103DBB2C5
:10E4D400002B02D06FF001031FE02EF0DFFC034697
:10E4E400012B16D12EF07CFC0346002B0DD10D4BD5
:10E4F4001B780133DAB20B4B1A700A4B1B780A2BC8
:10E504000AD909482EF09EF806E0064B00221A703C
:10E5140002E0044B00221A700023184608BD00BF15
:10E52400D82900200539002095E4010082B001902B
:10E53400084B1B68022B02D0042B04D007E0054BC8
:10E5440003221A6003E0034B05221A6000BF00BFD8
:10E5540002B0704700390020F0B583B00190019BF0
:10E56400002B03D12F4B1B68002B02D1019B002BE6
:10E5740051D0019B002B04D117F0BEFC0346002BA5
:10E5840002D12948FEF72AFE2EF071FC0346002B27
:10E5940002D0019B002B3AD0244B02221A60244B58
:10E5A4000093019B002B2AD1224B1A681D4B1B6838
:10E5B4009A4224D21B4B1A681E4B1B68D21A13466C
:10E5C4009B0013449B001A46002314461D464FF03B
:10E5D40000024FF00003EB0343EA5443E20312F555
:10E5E4007A7643F100074FF4FA624FF000033046A5
:10E5F400394658F00FFD02460B46134601E04FF42E
:10E60400005300221946009801F006FB06E0074B70
:10E6140001221A6002E0054B00221A60002318460A
:10E6240003B0F0BDFC380020C9E40100003900202B
:10E6340070290020F0380020F0B583B003468DF82F
:10E644000730FEF765FE0346002B01D12DF0B0FB29
:10E65400424B1B68032B2AD1404B06221A609DF8BB
:10E664000730002B0CD117F047FC0346002B09D1CF
:10E6740015F0AAF8034683F00103DBB2002B01D0A6
:10E684002DF096FB9DF80730002B0CD117F034FCCD
:10E694000346002B5FD115F097F8034683F001037E
:10E6A400DBB2002B57D0002002F066F953E02B4B6D
:10E6B4001B68012B4FD1FFF795F90346002B4AD174
:10E6C4002EF0D5FB0346002B45D101212020FFF776
:10E6D400D0FC00212020FFF718FD204B02221A60F5
:10E6E4001F4B00939DF8073083F00103DBB2002B2E
:10E6F4002AD01C4B1A681C4B1B689A4224D21A4B12
:10E704001A68184B1B68D21A13469B0013449B00CB
:10E714001A46002314461D464FF000024FF0000332
:10E72400EB0343EA5443E20312F57A7643F100071C
:10E734004FF4FA624FF000033046394658F06AFC51
:10E7440002460B46134601E04FF4005300221946DB
:10E75400009801F061FA00BF03B0F0BD0039002059
:10E7640070290020F0380020FC380020044B1B687E
:10E77400062B0CBF01230023DBB21846704700BFF1
:10E784000039002000B585B00190414B1B68002B77
:10E794000AD03F4B1B6898470346002B04D0002146
:10E7A4000320FFF78BFD70E03A4B01221A703A4BBD
:10E7B40001221A7015F008F803461A46374B1A70EE
:10E7C400364B1B78002B03D1019800F08FF802E040
:10E7D400334B05221A600198FFF7BEFE25E0019B2A
:10E7E400002B06D1039B052B03D02C4B1B78002B4D
:10E7F40025D1019B002B0BD1039B052B08D1274B63
:10E804001B78002B04D114F095FF244B01221A70BD
:10E81400019B002B14BF01230023DBB21846FFF732
:10E824000BFFFEF7C1FF2DF08CFE019B002BD6D110
:10E83400FFF792FC0390039B012BD0D100E000BFB3
:10E84400019B002B08D1039B052B05D0134B1B7890
:10E85400002B01D0FFF7B2FB0F4B00221A70114BB3
:10E86400184601F026FAFEF705FC0F48FEF728FCCF
:10E87400FFF77CFF0346184600F01AF80B4B1B68A1
:10E88400002B02D0094B1B68984705B05DF804FBC8
:10E89400E03800206C290020E838002004390020EA
:10E8A4000039002070290020C9E40100E438002068
:10E8B40000B583B001902DF051FE01212020FFF717
:10E8C400D8FB01212020FFF720FC00F076F82EF081
:10E8D4007FF930F007FC00210320FFF7EFFC012053
:10E8E4002EF09EFC00BF03B05DF804FB00B583B0BE
:10E8F40001900DF09DFA0346B3F1FF3F02D14FF0B2
:10E90400FF3336E00DF0B2F930F01AFD00F04FF8A5
:10E914002EF0ADFA0346002B09D114F07FFE034616
:10E92400002B02D0019B002B01D02EF04BF9019B50
:10E93400002B0ED0FEF725FAFEF75CFF0121202004
:10E94400FFF797FB00212020FFF7DFFB17F060FAA9
:10E954000CE0FFF747F80346002B07D101212020E4
:10E96400FFF787FB00212020FFF7CFFB2DF0EEFD02
:10E974000023184603B05DF804FB0000024B1B782B
:10E98400DBB21846704700BFE838002000B583B0FA
:10E99400019001982CF0E0F80346002B02D04FF0D0
:10E9A400FF3300E00023184603B05DF804FB08B50C
:10E9B4002CF0ECF80023184608BD08B52CF0F8F844
:10E9C4000023184608BD00B583B00190009100995A
:10E9D40001982CF0FFF80346184603B05DF804FBD9
:10E9E40000B583B001900091009901982CF00AF9C8
:10E9F4000346184603B05DF804FB00B585B00190EA
:10EA040003AB01991846FFF7EBFF0346184605B020
:10EA14005DF804FB00B585B0019003AB194601987D
:10EA2400FFF7DEFF0346184605B05DF804FB00005F
:10EA340086B003900291019200230593029B9B7878
:10EA44000493049B9B060493059A049B1343059328
:10EA5400029B5B780493049B1B050493059A049B17
:10EA640013430593029B1B780493049BDB030493D9
:10EA7400059A049B13430593039BDB780493049B3F
:10EA84009B020493059A049B13430593039B9B7871
:10EA94000493049B9B010493059A049B13430593DD
:10EAA400039B1B88214AA2FB03125209642101FB28
:10EAB40002F29B1A9BB20493059A049B1343059399
:10EAC400059B0493049B03F07F430493049B1B0E58
:10EAD4000493019B5A1C0192049AD2B21A70059BAA
:10EAE4000493049B03F47F030493049B1B0C04937F
:10EAF400019B5A1C0192049AD2B21A70059B04938A
:10EB0400049B03F47F430493049B1B0A0493019B1B
:10EB14005A1C0192049AD2B21A70019B5A1C019297
:10EB2400059AD2B21A7000BF06B070471F85EB5128
:10EB340008B513491348FFF753FF0346002B01D0D0
:10EB4400114B1AE00F4B1B88A3F2BC735B061A46E9
:10EB54000C4B9B785B051A430A4BDB781B041A4366
:10EB6400074B1B78DB021A43054B5B785B011343AD
:10EB7400034A92785208D2B21343184608BD00BF24
:10EB84000C390020083900200000215882B00346C7
:10EB94008DF807309DF90730002B0CDB9DF807300A
:10EBA40003F01F0205499DF907305B09012000FAB3
:10EBB40002F241F8232000BF02B0704700E100E0F8
:10EBC40082B003468DF807309DF90730002B13DB24
:10EBD4009DF8073003F01F0209499DF907305B09CE
:10EBE400012000FA02F2203341F82320BFF34F8FB3
:10EBF40000BFBFF36F8F00BF00BF02B0704700BFFC
:10EC040000E100E082B0034600918DF807309DF9E1
:10EC14000730002B0ADB009BDAB20C499DF9073060
:10EC24005201D2B20B4483F800230BE0009BDAB20A
:10EC340007499DF8073003F00F03043B5201D2B299
:10EC44000B441A7600BF02B0704700BF00E100E039
:10EC540000ED00E082B00190019B1B0B5BB21846F3
:10EC640002B0704700B583B003460A468DF80730FA
:10EC740013468DF806309DF806209DF9073011469D
:10EC84001846FFF7BFFF00BF03B05DF804FB00B5F3
:10EC940083B003468DF807309DF907301846FFF717
:10ECA40075FF00BF03B05DF804FB00B583B00346F5
:10ECB4008DF807309DF907301846FFF781FF00BF34
:10ECC40003B05DF804FB000082B00190019B1B6857
:10ECD4001F2B02D84FF0A04306E0019B1B6803F0F2
:10ECE4001F02019B1A60024B184602B0704700BF16
:10ECF4000003005000B585B00190084611461A463D
:10ED040003468DF803300B468DF8023013468DF818
:10ED1400013001AB1846FFF7D7FF03909DF803209D
:10ED24009DF802305B001A439DF801309B001A43A2
:10ED34009DF818301B0242EA03019DF81C301B04A5
:10ED4400019A1943039B02F5E07243F8221000BFB5
:10ED540005B05DF804FB00B585B003900023019372
:10ED6400002300930023012201210398FFF7C2FF2F
:10ED740000BF05B05DF804FB00B585B0019001ABA0
:10ED84001846FFF7A1FF0390019B012202FA03F347
:10ED94001946039800F018F800BF05B05DF804FBAD
:10EDA40000B585B0019001AB1846FFF78DFF0390C5
:10EDB400019B012202FA03F31946039800F00EF8AE
:10EDC40000BF05B05DF804FB82B001900091019B87
:10EDD400009AC3F8082500BF02B0704782B00190C2
:10EDE4000091019B009AC3F80C2500BF02B0704744
:10EDF40082B001900B468DF803309DF80330019AE0
:10EE0400134401221A6000BF02B0704782B001901F
:10EE14000B468DF803309DF80320019B13441846DC
:10EE240002B0704784B001900B46ADF80230BDF8D3
:10EE34000230019A134400221A60BDF80230019A8C
:10EE440013441B680393039B00BF04B0704782B054
:10EE540001900B46ADF80230BDF80230019A13441C
:10EE64001B68002B14BF01230023DBB2184602B039
:10EE7400704782B001900091019B009AC3F8002270
:10EE840000BF02B0704782B001900091019B009ACC
:10EE9400C3F8002300BF02B0704782B00190019B09
:10EEA4000122C3F8002500BF02B0704782B0019070
:10EEB400019B0022C3F8002500BF02B0704784B054
:10EEC4000190009100238DF80F3011E09DF80F3070
:10EED4009B00009A13449DF80F201968019B02F5CA
:10EEE400AC7243F822109DF80F3001338DF80F30C7
:10EEF4009DF80F30032BE9D900BF00BF04B0704761
:10EF040082B00190084611461A4603468DF8033034
:10EF14000B468DF802301346ADF800309DF80320FF
:10EF2400019BC3F80C259DF80220019BC3F804251E
:10EF3400BDF80020019BC3F8082500BF02B070474C
:10EF440000B585B003900B4601928DF80B30019B00
:10EF54001A689DF80B301946039800F01CF8019BC1
:10EF64009A889DF80B301946039800F025F8019B08
:10EF74009A689DF80B301946039800F032F8019B0B
:10EF8400DA689DF80B301946039800F03CF800BF8E
:10EF940005B05DF804FB84B003900B4601928DF834
:10EFA4000B309DF80B30019A039929335B010B4414
:10EFB4001A6000BF04B0704782B001900B468DF810
:10EFC40003301346ADF800309DF80330BDF800203F
:10EFD400019929335B010B4404331A6000BF02B06A
:10EFE400704784B003900B4601928DF80B309DF866
:10EFF4000B30039A5B01134403F5A563019A1A606D
:10F0040000BF04B0704784B003900B4601928DF8A2
:10F014000B309DF80B30039A5B01134403F22C531D
:10F02400019A1A6000BF04B0704782B001900B4689
:10F034008DF8033013468DF802309DF803209DF8B7
:10F0440002301B021A43019BC3F8102500BF02B013
:10F05400704782B001900B46ADF80230BDF8022033
:10F06400019BC3F8142500BF02B0704700B589B0F6
:10F074000190009100238DF81F3050E09DF81F305F
:10F08400009AD35C8DF81E309DF81E30FF2B38D0CB
:10F094009DF81E3003F08003002B14BF01230023CE
:10F0A4008DF81D309DF81E209DF81F3022F080023F
:10F0B4009B0020336B4443F8142C9DF81D30002B27
:10F0C4000AD09DF81F309B0020336B4453F8143C46
:10F0D4001846FFF751FE09E09DF81F309B002033CE
:10F0E4006B4453F8143C1846FFF75AFE9DF81F3042
:10F0F4009B0020336B4453F8143C1846FFF72BFE57
:10F1040008E09DF81F309B0020336B444FF0FF3222
:10F1140043F8142C9DF81F3001338DF81F309DF8EF
:10F124001F30032BAAD9019B1B6803AA114618465A
:10F13400FFF7C5FE00BF09B05DF804FB00B587B05A
:10F14400039002910192039B1B79DB003B4A134419
:10F154000593059B1B79DBB2002B03D00823049392
:10F16400049B66E0059B019A1A6002990398FFF7D5
:10F174007DFF039B1B681846FFF78FFE039B1868EF
:10F18400029B5979029B9A79029B1B89FFF7B8FE6F
:10F19400039B1868029B997A029BDB7A1A46FFF755
:10F1A40044FF039B1B6800211846FFF762FE039B84
:10F1B4001B6800211846FFF766FE039B1B684FF48B
:10F1C4008E711846FFF72EFE039B1B684FF488715F
:10F1D4001846FFF727FE039B1B684FF48A711846F5
:10F1E400FFF720FE039B1B684FF482711846FFF75C
:10F1F40019FE059B1B68002B15D0039B1B68184642
:10F20400FFF728FD03461A46029B1B791946104650
:10F21400FFF728FD039B1B681846FFF71BFD0346F9
:10F224001846FFF734FD059B01221A71002304934D
:10F23400049B184607B05DF804FB00BF103900209A
:10F2440000B585B00190019B1B79DB000E4A134485
:10F254000393039B1B79DBB2002B11D0019B1B682A
:10F264001846FFF7F7FC03461846FFF71EFD019BFF
:10F274001B681846FFF71AFE039B00221A7100E070
:10F2840000BF05B05DF804FB1039002000B587B05D
:10F294000390029111461A460B468DF80730134627
:10F2A4008DF80630029B02221A71029B9DF80720FA
:10F2B4005A71029B1B68002B25D0822305939DF86D
:10F2C400073003F00403002B03D0059B43F0100325
:10F2D40005939DF8073003F00803002B03D0059B2A
:10F2E40043F0200305939DF8073003F01003002B2F
:10F2F40003D0059B23F080030593039B1B680599AA
:10F304001846FFF7C0FD039B1B684FF48271184633
:10F31400FFF788FD9DF90730002B0ADA039B1B6871
:10F324009DF8062011461846FFF770FD0490049BD3
:10F3340008E0039B1B689DF8062011461846FFF75A
:10F3440057FD0023184607B05DF804FB00B589B0EB
:10F354000390029100931346ADF80630039B1B798A
:10F36400DB002C4A13440693039B1B68029A00217A
:10F374001846FFF7E5FD039B1B68029A0121184616
:10F38400FFF7DEFDBDF8063003F00103002B14BFC8
:10F39400012300238DF81730039B1A68BDF806304B
:10F3A4005B089BB29DF817100B449BB2194610469C
:10F3B400FFF74FFE009B03F00103002B02D0102344
:10F3C40007930FE0009B03F00203002B08D09DF885
:10F3D4001730002B01D0082300E00423079301E039
:10F3E40000230793039B1B6807991846FFF741FD09
:10F3F400009BDAB29DF81730002B01D00C2300E0FB
:10F40400082306990398FFF741FF0346184609B0FD
:10F414005DF804FB1039002000B587B00390029119
:10F424000192ADF80230039B1B79DB001E4A1344A2
:10F434000493039B1B68029A00211846FFF780FD82
:10F44400039B1B68019A01211846FFF779FD039B72
:10F454001B68BDF8022011461846FFF7FAFD089B09
:10F4640003F00103002B02D01023059309E0089B4D
:10F4740003F00203002B02D00423059301E00023D0
:10F484000593039B1B6805991846FFF7F2FC089B3C
:10F49400DAB2082304990398FFF7F8FE03461846E6
:10F4A40007B05DF804FB00BF1039002000B583B03D
:10F4B400019000914FF488710198FFF7C8FC03464E
:10F4C400002B12D04FF488710198FFF7ABFC009B1E
:10F4D4005B7903F00403002B07D0009B1B68002B0F
:10F4E40003D0009B1B68012098474FF48A71019850
:10F4F400FFF7ADFC0346002B12D04FF48A7101983C
:10F50400FFF790FC009B5B7903F00803002B07D006
:10F51400009B1B68002B03D0009B1B6802209847AC
:10F524004FF48E710198FFF792FC0346002B12D022
:10F534004FF48E710198FFF775FC009B5B7903F023
:10F544001003002B07D1009B1B68002B03D0009BEA
:10F554001B68002098474FF482710198FFF777FCED
:10F564000346002B0FD04FF482710198FFF75AFC29
:10F57400009B01221A71009B1B68002B03D0009B87
:10F584001B680320984700BF03B05DF804FB00002C
:10F5940008B503490348FFF789FF00BF08BD00BF52
:10F5A4001039002000C0014008B503490348FFF7A3
:10F5B4007DFF00BF08BD00BF1839002000100240C5
:10F5C40008B503490348FFF771FF00BF08BD00BF3A
:10F5D40020390020002002402DE9F04383B0144874
:10F5E40000F069FF034600221C461546114BD3E97F
:10F5F400002314EB020845EB0309CDE900890E4B07
:10F60400D3E90023DDE90001904271EB030307D243
:10F61400DDE9002312F1807643F10007CDE90067AC
:10F62400DDE900231046194603B0BDE8F08300BFAE
:10F63400B8290020303900203839002088B00190E2
:10F644000091019B0793009B0693079BD3E9022338
:10F65400CDE90423069BD3E90223CDE90223DDE9A6
:10F664000423DDE90201904271EB03032CBF012363
:10F674000023DBB2184608B070470000F0B585B02F
:10F68400019000238DF80F303F4B1B78002B75D071
:10F69400019B002B72D0FFF79FFF019BD3E902234C
:10F6A400904271EB030358D300238DF80D300DF114
:10F6B4000D03184600F0B6FB019B1B69002B06D115
:10F6C40001994FF0FF324FF0FF33C1E902239DF857
:10F6D4000D30184600F0B0FB019B5B69019A9269FA
:10F6E4001046984700238DF80C3003AB184600F001
:10F6F40099FB019B1B69002B1AD0019BD3E90223C0
:10F70400B3F1FF3F08BFB2F1FF3F11D0019BD3E932
:10F7140002230199096900200C460546161943EB9A
:10F724000507019BC3E9026701238DF80E3002E04F
:10F7340000238DF80E309DF80C30184600F07CFB49
:10F744009DF80E30002B19D0019B19460F4801F08B
:10F754007BF901238DF80F3010E0019BD3E90223DC
:10F76400B3F1FF3F08BFB2F1FF3F07D0019B194639
:10F77400064801F069F901238DF80F309DF80F3028
:10F78400184605B0F0BD00BF2C39002038840700AE
:10F7940030B58BB0019000910D230993009B00229A
:10F7A4001A70019BD3E90223CDE90623FFF714FF66
:10F7B400DDE90623141A63EB0105CDE90445DDE90F
:10F7C4000423012A73F1000318DB049BB3F5350FFE
:10F7D40005D300F0A9FA0246114B134400E0069B3E
:10F7E40003934FF49603039A00210E4800F06FFD33
:10F7F4000990099B002B05D101230EE00021094843
:10F8040000F033FE099B0D2B06D10198FFF736FF5C
:10F8140003461A46009B1A70002318460BB030BDED
:10F82400FFFFB400B829002000B583B0044801F0FC
:10F8340034F90190019B184603B05DF804FB00BF46
:10F844003884070000B583B0044801F03CF9019006
:10F85400019B184603B05DF804FB00BF3884070021
:10F8640000B583B0FFF7E0FF0190019B002B06D0A9
:10F8740001994FF0FF324FF0FF33C1E90223019B9E
:10F88400002BEFD100BF00BF03B05DF804FB000004
:10F89400054BD3E9002312F1807043F10001024BC0
:10F8A400C3E9000100BF70473039002000B583B0C0
:10F8B4000190084B1B68002B07D0064B1B681846A9
:10F8C400FFF7DCFE034B00221A6000BF03B05DF8B3
:10F8D40004FB00BF2839002000B583B00190FFF776
:10F8E4007BFE02460B460349C1E9002300BF03B077
:10F8F4005DF804FB3839002000B587B00190FFF7AC
:10F90400A1FF049000238DF81730049B002B51D0E5
:10F91400049BD3E90223B3F1FF3F08BFB2F1FF3FD9
:10F9240002D1FFF781FF44E0264B1B68002B03D173
:10F9340001238DF817301DE0049BD3E90201214B0C
:10F944001B68D3E90223904271EB030312D2012313
:10F954008DF817301B4B1B68D3E90223B3F1FF3F2B
:10F9640008BFB2F1FF3F05D0164B1B681946164875
:10F9740001F06AF89DF81730002B1DD0FFF754FFF3
:10F9840004900DF10F0319460498FFF701FF034695
:10F99400002B0BD00B4A049B13609DF80F3083F0AF
:10F9A4000103DBB2002BAAD000BF06E0054B002206
:10F9B4001A60A4E700BF00E000BF00BF07B05DF815
:10F9C40004FB00BF283900203884070000B587B045
:10F9D40001902B4A03AB1946104600F0A2FE059095
:10F9E40045E0059B1B78022B2BD0022B2FDC002B30
:10F9F40002D0012B11D02AE0059B5B68D3E90223D6
:10FA0400B3F1FF3F08BFB2F1FF3F22D0059B5B6813
:10FA140019461C4801F018F81BE0059B5A681A4B5C
:10FA24001B689A4203D1184B00221A6012E0059B0E
:10FA34005B681946134801F04EF803468DF81330FD
:10FA440008E0FFF70DFF114B01221A7002E000BF1E
:10FA540000E000BF0A4A03AB1946104600F07AFEE4
:10FA6400074A03AB1946104600F05BFE0590059B60
:10FA7400002BB6D100BF00BF07B05DF804FB00BF88
:10FA8400C029002038840700283900202C390020A0
:10FA940000B583B00190019800F0DAFC0346002B16
:10FAA40001D0FFF7F5FE0021019800F0EFFC0346BA
:10FAB400002B02D00198FFF7F9FE0121019800F014
:10FAC400E5FC0346002B02D00198FFF705FF0198DF
:10FAD400FFF77CFF0198FFF70FFF00BF03B05DF84D
:10FAE40004FB000008B5024800F0F2FC00BF08BDAA
:10FAF400B829002000B585B0034600918DF8073081
:10FB0400114A02AB1946104600F0DEFD0390039B38
:10FB1400002B13D0039B9DF807201A70039B009AB7
:10FB24005A60094A02AB1946104600F0E6FD034646
:10FB3400002B01D0FFF7D6FF002300E00423184672
:10FB440005B05DF804FB00BFC029002000B583B0F8
:10FB5400174B1B680093174808235822164900F0D6
:10FB64006CFD0190019B002B01D0019B1CE06B46B6
:10FB7400124A1946124800F08DFA0190019B002B9D
:10FB840001D0019B10E001210D4800F050FC01233D
:10FB94000C4A01210A4800F0FAFA094800F0EAFA8E
:10FBA400094B01221A70019B184603B05DF804FB4F
:10FBB40034840700C02900204039002095FA010050
:10FBC400B8290020FFFF7F002C39002086B0039065
:10FBD4000B4601928DF80B30019B002B01D10723BA
:10FBE40017E0039B1B68059305994FF0FF324FF014
:10FBF400FF33C1E90223059B019A5A619DF80B303A
:10FC0400012B0CBF01230023DBB21A46059B1A61AA
:10FC14000023184606B07047F0B589B003900291EE
:10FC24000192039B069300238DF817300DF11703FF
:10FC3400184600F0F7F8069BD3E90223B3F1FF3F1F
:10FC440008BFB2F1FF3F11D1FFF7C6FC02460B46D5
:10FC5400029900200C460546161943EB0507069B3E
:10FC6400C3E9026701238DF81F3002E000238DF8F9
:10FC74001F309DF81730184600F0DEF89DF81F304D
:10FC840083F00103DBB2002B01D000230EE0069BBE
:10FC9400019A9A61069B1B69002B02D0069B029A6B
:10FCA4001A6106990020FFF725FF0346184609B09C
:10FCB400F0BD00B587B00190019B049300238DF83B
:10FCC4000F300DF10F03184600F0ACF8049BD3E994
:10FCD4000223B3F1FF3F08BFB2F1FF3F03D100237A
:10FCE4008DF8173009E004994FF0FF324FF0FF33DD
:10FCF400C1E9022301238DF817309DF80F3018460F
:10FD040000F09AF89DF8173083F00103DBB2002B62
:10FD140001D0002304E004990120FFF7EBFE034621
:10FD2400184607B05DF804FB08B5034800F0C3FBB0
:10FD34000346184608BD00BFB829002082B0EFF37F
:10FD440010830093009B019372B600BF019B184679
:10FD540002B0704762B600BF00BF704700B585B0FF
:10FD64000190FFF7EBFF0390164B9B68002B1BD110
:10FD7400144B01229A60144BD3F88020134B134088
:10FD8400104A1360104B114AC3F880200E4BD3F86D
:10FD940084300C4A53600C4B4FF0FF32C3F884207C
:10FDA400019B00221A7002E0019B01221A70039B3E
:10FDB400002B01D1FFF7CEFF0023184605B05DF8F4
:10FDC40004FB00BF9C39002000E100E0FC06FFBDFD
:10FDD40000B585B003468DF80730104B9B68002BA7
:10FDE40016D09DF80730002B12D1FFF7A7FF039020
:10FDF4000B4A0A4B1B681360094A084B5B68536043
:10FE0400064B00229A60039B002B01D1FFF7A2FF4F
:10FE14000023184605B05DF804FB00BF9C390020A0
:10FE240000E100E000B583B001900198FFF796FF70
:10FE340000BF03B05DF804FB00B583B003468DF842
:10FE440007309DF807301846FFF7C2FF00BF03B024
:10FE54005DF804FB82B003468DF807309DF9073046
:10FE6400002B0CDB9DF8073003F01F0205499DF9B8
:10FE740007305B09012000FA02F241F8232000BF99
:10FE840002B0704700E100E082B003468DF807300D
:10FE94009DF90730002B0DDB9DF8073003F01F029E
:10FEA40006499DF907305B09012000FA02F240334C
:10FEB40041F8232000BF02B0704700BF00E100E01A
:10FEC40082B0034600918DF807309DF90730002B6E
:10FED4000ADB009BDAB20C499DF907305201D2B219
:10FEE4000B4483F800230BE0009BDAB207499DF82A
:10FEF400073003F00F03043B5201D2B20B441A76CD
:10FF040000BF02B0704700BF00E100E000ED00E078
:10FF140000B583B003460A468DF8073013468DF8C2
:10FF240006309DF806209DF9073011461846FFF764
:10FF3400C7FF00BF03B05DF804FB00B583B0034600
:10FF44008DF807309DF907301846FFF783FF00BF8F
:10FF540003B05DF804FB000000B585B00190019B7F
:10FF6400002B0AD0074B43F001030393019B9B0131
:10FF74000293039B0298984700E000BF05B05DF828
:10FF840004FB00BF9084070084B0039002910192A7
:10FF9400039B029A02F5A872019943F8221000BF4C
:10FFA40004B0704782B001900091019B009A02F561
:10FFB400A87253F82230184602B0704782B00190FC
:10FFC4000091019B009AC3F8042300BF02B070475C
:10FFD40082B001900091019B009AC3F8082300BFEE
:10FFE40002B0704782B001900B46ADF80230BDF804
:0CFFF4000230019A13441B68184602B04A
:020000022000DC
:10000000704784B001900B46ADF80230BDF8023065
:10001000019A134400221A60BDF80230019A134479
:100020001B680393039B00BF04B0704782B001902C
:10003000019BD3F80435184602B0704782B0019096
:100040000091019B009AC3F8082500BF02B07047D9
:1000500082B001900B468DF803309DF80320019B80
:1000600013441A460123136000BF02B0704782B0E8
:1000700001900091019B009AC3F8442300BF02B095
:10008000704782B001900091019B009AC3F8482309
:1000900000BF02B07047000000B587B00390029126
:1000A0000192039B5B7919462C4A019B42F821304F
:1000B000039B5B792A4ADB0013441B79002B12D087
:1000C00008230593274B5B88012B0AD9264A274B27
:1000D000D31ADB081B0443F002032549184600F03D
:1000E000E5FF059B36E0039B1A68029B1B881946B7
:1000F0001046FFF7A3FF039B93F90420029B9B7814
:1001000019461046FFF706FF039B93F90430184683
:10011000FFF715FF039B5B79114ADB0013440122B3
:100120001A71039B5B7919460D4A039B42F83130E3
:10013000002305930B4B5B88022B0AD90A4A0B4B11
:10014000D31ADB081B0443F003030A49184600F0E6
:10015000ADFF059B184607B05DF804FBA8390020E9
:10016000AC39002008280020A8800700488007003C
:10017000448407006884070000B583B00190019BA8
:100180001B6800211846FFF763FF00BF03B05DF84E
:1001900004FB00B587B00390029101928DF8033003
:1001A0004FF48032029B02FA03F30593029B503313
:1001B0009BB29B00ADF81230019B23F07F4301936B
:1001C000039B1B6805991846FFF704FF039B1B68F8
:1001D00005991846FFF755FF039B1B68BDF81220D1
:1001E00011461846FFF70DFF039B1B68019A029901
:1001F0001846FFF7CBFE039B1B6805991846FFF7CF
:1002000036FF9DF80330002B05D0039B1B68059932
:100210001846FFF7D5FE00BF07B05DF804FB00B538
:1002200085B00390029113468DF80730039B1B683D
:1002300002991846FFF71BFF9DF80730002B05D0E9
:10024000039B1B6802991846FFF7BAFE00BF05B072
:100250005DF804FB00B583B001900091019B1B6821
:1002600000991846FFF70DFF019B1B68009918467F
:10027000FFF7B0FE00BF03B05DF804FB00B583B02C
:1002800001900B46ADF80230019B1B68BDF80220BF
:1002900011461846FFF7A8FE0346002B09D0019B24
:1002A0001B68BDF8022011461846FFF7AAFE01237D
:1002B00000E00023184603B05DF804FB82B0019013
:1002C0000091019A009BD31A23F07F43184602B095
:1002D000704700B58BB003900291019200934FF4E8
:1002E0008032029B02FA03F30993029B50339BB2C4
:1002F0009B00ADF82230019B23F07F4301930999C5
:100300000398FFF7A7FF039B1B681846FFF78EFEB5
:100310000790039B1B6802991846FFF745FE06905D
:10032000039B1B68079A02991846FFF72FFE039B51
:100330001B68BDF8222011461846FFF762FE079998
:100340000698FFF7BBFF0346012B0AD11020FFF7E9
:1003500005FE039B1B68BDF8222011461846FFF7D7
:1003600050FE039B1B681846FFF760FE0790079935
:100370000198FFF7A3FF0590039B1B680999184696
:10038000FFF775FE059B012B15D1039B1868019B98
:1003900001331A460299FFF7F9FD1020FFF7DEFD41
:1003A000039B1B681846FFF741FE0246079B9342DA
:1003B00035D00D2339E0039B1B68019A029918463A
:1003C000FFF7E4FD039B1B681846FFF72FFE07901D
:1003D000019B013B07991846FFF770FF0590009BB2
:1003E000C3F1FF1303F57F43059A9A4201D90D2308
:1003F0001BE0059B002B12D1039B1868019B013366
:100400001A460299FFF7C2FD039B1B681846FFF7C7
:100410000DFE0246079B934201D00D2305E0012209
:1004200009990398FFF7FBFE002318460BB05DF80F
:1004300004FB00B583B001900B468DF803309DF8A6
:1004400003301A4602210198FFF7E9FE00BF03B00E
:100450005DF804FB00B583B001904FF48271019800
:10046000FFF70CFF0346184603B05DF804FB00B528
:1004700083B0019000914FF48032009B02FA03F3A5
:1004800019460198FFF7E6FE00BF03B05DF804FBD4
:1004900000B585B001900091009B50339BB29B004A
:1004A000ADF80E30BDF80E3019460198FFF7E6FEA4
:1004B0000346184605B05DF804FB00B583B0019013
:1004C000019B1B681846FFF7B1FD0346184603B0B1
:1004D0005DF804FB00B583B00190019B93F90430F3
:1004E0001846FFF7D3FC00BF03B05DF804FB000023
:1004F00008B5044B1B68044A12681046984700BFB1
:1005000008BD00BFA8390020AC39002086B001909A
:100510000091019B53E8011F8AB2D889024498894F
:10052000824228BF121A1889824202BFBFF32F8F5E
:10053000002307E0C2EA010243E801200028E9D1D4
:100540004FF001038DF80F30059002910492029A4A
:10055000009B1A609DF80F30DBB2184606B070475A
:1005600084B00190019951E8013FC3EA034341E897
:100570000132002AF7D10392029300BF04B0704702
:1005800086B001900091019B53E8021F1FFAA1F26F
:10059000D888824202BFBFF32F8F00230DE0D88995
:1005A00002449889824228BF121AC1EA024243E8F3
:1005B00002200028E8D14FF001038DF80F3005909C
:1005C00002910492029A009B1A609DF80F30DBB2F0
:1005D000184606B0704784B00190019951E8023F77
:1005E000C3EA234341E80232002AF7D1039202937F
:1005F00000BF04B0704786B00190019B53E8021F12
:10060000DA88B1EB314F4FF0000017BF89B242EAF0
:10061000024241EA024204E05968B1EB314F08BF9F
:10062000012043E802210029E8D18DF80F0005914F
:1006300004929DF80F30DBB2184606B0704784B0C4
:100640000390029111461A460B46ADF80630134648
:10065000ADF80430029B002B01D10E231FE0BDF842
:100660000630BDF80420B3FBF2F101FB02F29B1A45
:100670009BB2002B01D0092311E0039B029A1A6060
:10068000039B00225A60039B00229A60039BBDF8E3
:1006900006209A81039BBDF80420DA8100231846C6
:1006A00004B0704700B585B001900198FFF7A3FF33
:1006B00003468DF80F309DF80F30002B01D000233A
:1006C00000E01123184605B05DF804FB00B585B0C5
:1006D00001900091009B19460198FFF717FF034610
:1006E000002B07D0019B1B68009A128813440393C8
:1006F000039B00E00023184605B05DF804FB00B53D
:1007000083B001900091009B1A88009B5B889A42FD
:1007100004D10198FFF724FF012300E000231846CD
:1007200003B05DF804FB00B585B001900091009B1B
:1007300019460198FFF724FF0346002B07D0019BC1
:100740001B68009A528813440393039B00E0002324
:10075000184605B05DF804FB00B583B00190009128
:10076000009B1A88009B5B889A4204D10198FFF78E
:1007700032FF012300E00023184603B05DF804FBBC
:1007800082B003468DF807309DF90730002B0DDB52
:100790009DF8073003F01F0206499DF907305B09F9
:1007A000012000FA02F2603341F8232000BF02B0BA
:1007B000704700BF00E100E0BFF34F8F00BF064B62
:1007C000DB6803F4E0620449044B1343CB60BFF3DE
:1007D0004F8F00BF00BFFDE700ED00E00400FA0509
:1007E00082B00190019B5B68184602B0704782B0EE
:1007F0000190019B00221A60BFF35F8F00BF00BF12
:1008000002B0704700B585B001900121019843F016
:100810000FFC0390BFF35F8F00BF039B002B0CBF47
:1008200001230023DBB2184605B05DF804FB82B05B
:100830000190BFF35F8F00BF019B00221A6000BFD1
:1008400002B0704733DF704700BF184641DF704782
:1008500000BF18464FF080430122C3F80025BFF3C4
:100860004F8F00BF20BFFDE700B585B000238DF896
:1008700007300DF107031846FFF7D6FAF1EE103AEC
:100880000393039B23F09F030293029BE1EE103A34
:1008900000BFBFF35F8F00BF2620FFF771FF9DF8F9
:1008A00007301846FFF7CAFA00BF05B05DF804FB31
:1008B00008B5064B00221A700548FFF798FF054956
:1008C000054800F08DF80023184608BDBC3900200B
:1008D000B8390020A4840700C039002000B583B0D7
:1008E000FFF7C2FF01F0ACF90346002B03D0FFF77E
:1008F000ADFF019002E020BF40BF20BF00BF03B0AA
:100900005DF804FB00B583B00FE01A48FFF768FFFD
:100910000190019B1B68184A1278104698470346BD
:10092000002B23D0134800F073F81248FFF758FF4C
:100930000346002BE9D100F0D5FE00F0CBFC0346C6
:10094000002BFAD10C4B1B78032B03D00A4B1B78DE
:10095000022B01D1FFF730FF01F072F90346002BA3
:1009600001D0FFF76FFFFFF775FF00E000BF03B096
:100970005DF804FBC0390020B439002000B583B015
:1009800003468DF807301348FFF73CFF034683F01A
:100990000103DBB2002B18D19DF80730042B0ED0D9
:1009A0000D4B1B78002B03D00A48FFF740FF0DE0EA
:1009B0000A4A9DF807301370074B01221A70FFF79F
:1009C000A1FF0448FFF733FF00E000BF03B05DF86C
:1009D00004FB00BFB8390020BC390020B439002026
:1009E00082B001900091019B009A1A60019B1B68E4
:1009F0001A68019B5A60019B5A68019B1B685B68DF
:100A00009A4202D1019B00225A6000BF02B0704797
:100A100082B00190019B5B68002B14D0019B5B6846
:100A20001A46019B1B689B6813441A46019B5A6037
:100A3000019B5A68019B1B685B689A4204D1019B29
:100A400000225A6000E000BF02B0704700B585B0D8
:100A500001900091019B5B6803930FE0019B9B68F1
:100A6000039A1268009910469847034683F00103E1
:100A7000DBB2002B07D1039B1B680393039B1B680E
:100A8000002BEBD100E000BF039B1A68009B1A60AB
:100A9000039B009A1A6000BF05B05DF804FB84B0A8
:100AA0000190019B5B681B680393019B5B681B685B
:100AB000002B06D0019B5B681A68019B5B6812687B
:100AC0001A60039B184604B0704782B00190019BE6
:100AD0005B681B68184602B0704784B001900091B3
:100AE00000238DF80F30019B5B6802930FE0029B9F
:100AF0001B68009A9A4207D1009B1A68029B1A60F1
:100B000001238DF80F3006E0029B1B680293029BC5
:100B10001B68002BEBD19DF80F30184604B07047CE
:100B200000B583B001900091019B1B681B68009980
:100B30000198984700BF03B05DF804FB00B583B08F
:100B40000190019B1B685B680198984700BF03B048
:100B50005DF804FB00B583B00190019B1B689B68A6
:100B60000198984700BF03B05DF804FB82B0019084
:100B7000019BDB681B79184602B0704782B0019078
:100B8000019BDB6801225A7100BF02B0704782B03E
:100B90000190019BDB685B79184602B0704700004A
:100BA00000B58DB001900091364B00221A70364886
:100BB00045F0C0F90890089B002B01D0089B5CE031
:100BC000324845F011FB324A324BD31ADB08079307
:100BD00000230B9332E00023099300230A931DE0C6
:100BE0000B9A0A9B9A4216D00B9BDB00294A1344AE
:100BF0001B6803930A9BDB00264A13441B6802937D
:100C000014220299039856F039FF0346002B02DDA7
:100C1000099B013309930A9B01330A930A9A079BA4
:100C20009A42DDD30B9B9B001B4A13440493099B00
:100C30009AB2049B1A800B9B01330B930B9A079B70
:100C40009A42C8D300230B9312E00B9B9B00124ADD
:100C5000134406930B9B9B00104A13440593069B79
:100C600000225A80059B00221A600B9B01330B93D4
:100C70000B9A079B9A42E8D3002318460DB05DF803
:100C800004FB00BF303B00202C8007008485070058
:100C9000D081070048800700D82700209C2800202A
:100CA00084B00190009100238DF80F30019B1B78D8
:100CB00003F00403DBB2002B24D0019B1B78C3F3A9
:100CC0000103DBB2012B02D0022B0CD017E0009BFA
:100CD0001B68019A1288C2F38312D2B213449A1C81
:100CE000009B1A600BE0009B1B68019A5288C2F3BC
:100CF000891292B213449A1C009B1A6000BF012310
:100D00008DF80F309DF80F30184604B07047000082
:100D100000B58BB00023ADF826303B4843F053FAC2
:100D20003A4843F050FA3A4B9B680493394B1B689E
:100D30000693049A069B134002339B00344A1344E3
:100D40000433089304AB19460898FFF7A9FF03463C
:100D5000002B09D0049A069B134002339B002C4AB7
:100D6000134404330893EDE700BF0023079311E019
:100D7000049B5A1C0492069A1340079A920001A9F8
:100D80000A44234902339B000B445B681360079BB2
:100D900001330793079B012BEAD99DF80430C3F375
:100DA0000103DBB2012B10D0022B1CD1BDF80A309D
:100DB000ADF82630BDF80630C3F389139BB2033378
:100DC0009A08049B134404930EE0BDF80A30ADF872
:100DD0002630BDF80430C3F38313DBB21A46049BFC
:100DE0001344049300E000BF084843F0F8F905906D
:100DF000059B002B02D0049B054A9360BDF826306A
:100E000018460BB05DF804FB483F0020443F00202B
:100E1000303B0020D429002000B585B000210748D0
:100E200043F006F90390039B0293029B83F31003A4
:100E30000193019B184605B05DF804FB4C3F002070
:100E400000B589B00390029101920093039B1B0CA3
:100E50000693FFF7E1FF0790079B1904009B5A1CBC
:100E60000A9B1340069A0A431B4902339B000B441A
:100E70005A60009A0A9B134002339B00164A13449F
:100E800004330593039B03F00703D9B2059A137843
:100E900061F3C5031370019B03F00F03D9B2059AE8
:100EA000138861F389131380029BC3F31501059A1C
:100EB000136861F39F231360059A1378012161F38E
:100EC00001031370059A13786FF38203137000BF48
:100ED00009B05DF804FB00BF303B002000BF704745
:100EE00000B58DB00390029113468DF80730039B37
:100EF00002330A9301238DF8273000238DF81B302D
:100F00000DF11B031846FEF78FFF404B5A68029BFA
:100F10001A603F4B1A683D4B99683C4B5B68CB1A93
:100F2000134401330B9314E001213A4843F00FF9C5
:100F3000FFF7EEFE07900799364843F008F9344B67
:100F40001A68324B9968314B5B68CB1A13440133F2
:100F50000B930A9A0B9B9A42E6D89DF82730002BF8
:100F600048D0002305939DF80730002B17D09DF83B
:100F70001430012262F301038DF814309DF814300F
:100F800043F004038DF81430039B03F00F03DAB22F
:100F9000BDF8143062F38913ADF8143016E09DF8F3
:100FA0001430022262F301038DF814309DF81430DE
:100FB00043F004038DF81430039BC3F309039AB282
:100FC000BDF8163062F38F13ADF816300F4B5A6828
:100FD0000F4B1B68134002339B000C4A134404332D
:100FE0000893059A089B1A60084B5A680A9B134499
:100FF000064A53609DF81B301846FEF71FFF9DF808
:10100000273018460DB05DF804FB00BF303B0020D0
:10101000D42900204C3F002000B58BB005900491EE
:10102000039202931F4B1B68079306AB01221946DC
:101030000298FFF755FF0346002B24D0069B02338E
:1010400009930023089311E0089B9B00039A1A441C
:10105000099B591C099107990B40126812490233E8
:101060009B000B445A60089B01330893089A029B2B
:101070009A42E9D3069A079B00931346029A049971
:101080000598FFF7DDFE084B1B78002B04D000F01D
:1010900021F90346002BFAD1FFF720FF00BF0BB068
:1010A0005DF804FBD4290020303B002000B583B05C
:1010B000019000910023002200990198FFF7ACFFF6
:1010C00000BF03B05DF804FB00B587B00390029148
:1010D0000192019B059305AA012302990398FFF74A
:1010E0009BFF00BF07B05DF804FB00B587B003901D
:1010F000029101920093019B0493009B059304AA23
:10110000022302990398FFF787FF00BF07B05DF83D
:1011100004FB00B589B00390029101920093019BFA
:101120000593009B06930A9B079305AA0323029944
:101130000398FFF771FF00BF09B05DF804FB00B52D
:1011400089B00390029101920093019B0493009B4C
:1011500005930A9B06930B9B079304AA0423029909
:101160000398FFF759FF00BF09B05DF804FB0000CA
:1011700000B58DB0039002911346ADF806304B4B8D
:101180001B680B93BDF8063003339B0805A90022AA
:101190001846FFF7A5FE0346002B78D0059B0A935F
:1011A000059B02330593414B1A6805990B9B0B4035
:1011B000D31A01339B000993BDF80630099A9A426D
:1011C0000ED3059A0B9B134002339B00384A1344FD
:1011D0000433BDF806200299184656F03BFD17E08F
:1011E000059A0B9B134002339B00314A134404338E
:1011F000099A0299184656F02DFD029A099BD118BA
:10120000BDF80620099BD31A1A462A4856F022FD3B
:10121000039B1B0C0893FFF7FFFD0790079B190426
:101220000A9B5A1C0B9B1340089A0A43204902331D
:101230009B000B445A600A9A0B9B134002339B009D
:101240001B4A134404330693039B03F00703D9B2EC
:10125000069A137861F3C5031370069A13886FF327
:101260008F131380BDF80630C3F3090399B2069AB1
:10127000538861F38F135380069A1378022161F328
:1012800001031370069A13786FF382031370084BEF
:101290001B78002B04D000F01DF80346002BFAD178
:1012A000FFF71CFE00BF0DB05DF804FBD429002041
:1012B000303B00203C3B0020054B9A68044B5B68A8
:1012C0009A420CBF01230023DBB21846704700BFCF
:1012D000303B002000B59BB0FFF7EEFF0346002B2C
:1012E00001D00023EEE19B4B0022C3F81824BFF38A
:1012F0004F8F00BF974B9B680493974B1B681193CC
:10130000049A119B134002339B00924A1344043306
:10131000199300231893002317930023169304AB0B
:1013200019461998FFF7BCFC0346002B19D0894BCE
:10133000D3F81834002B14D1864B5A68049B9A4278
:1013400005D8844B5B68834A93600023BAE1049A12
:10135000119B134002339B007E4A134404331993BC
:10136000DDE70023159311E0049B5A1C0492119AA7
:101370001340159A920001A90A44764902339B0052
:101380000B445B681360159B01331593159B012B70
:10139000EAD99DF8043003F00303DBB2022B40F0DE
:1013A0009C80BDF80630C3F389139BB20F93BDF840
:1013B0000630C3F389139BB2502B28BF50239BB236
:1013C0000E930E9BC3F309039AB2BDF8063062F385
:1013D0008F13ADF806300E9B08330D939DF8043043
:1013E000C3F3C203DBB216930D995C4844F0ADFD24
:1013F0001890189B002B00F0D380189844F036FE0C
:1014000001A9179B0822189844F0DAFE179B0833AD
:101410001793049BDA43119B134001339B000C93F9
:101420000E9A0C9B9A4242D90C9B002B08D0049A2E
:10143000119B134002339B00464A1344043300E0DF
:10144000474B0A930C9B002B02D00C9BDBB201E0B4
:101450000E9BDBB28DF827300C9B002B01D0404B4C
:1014600000E0002308930C9B002B06D00E9BDAB201
:101470000C9BDBB2D31ADBB200E000238DF81F30E7
:101480009DF82720179B0A99189844F099FE9DF81B
:101490002730179A13441793089B002B16D09DF8FA
:1014A0001F20179B0899189844F08AFE0EE0049AB2
:1014B000119B134002339B00264A134404330B93C1
:1014C000179B0E9A0B99189844F07AFE0F9B0333E2
:1014D0009A08049B1344049362E09DF8043003F0DF
:1014E0000303DBB2012B5BD1BDF80430C3F38313DC
:1014F000DBB2062B28BF0623DAB2BDF8043062F354
:101500008913ADF80430BDF80430C3F38313DBB2A4
:10151000023310939DF80430C3F3C203DBB2169379
:10152000109B9B0019460D4844F00FFD1890189B26
:10153000002B35D0189844F099FD01A9179B08227B
:10154000189844F03DFE179B08331793002315931A
:101550001DE000BF303B0020D42900202C80070074
:101560003C3B0020049B5A1C0492119A1340023306
:101570009B00564A1344191D179B0422189844F0E7
:101580001FFE179B04331793159B01331593BDF86A
:101590000430C3F38313DBB21A46159B9342E1D3A5
:1015A000189B002B6AD0494BD3F810341493474B47
:1015B000D3F81834002B45D0189844F066FD7BE032
:1015C00000238DF84F301498FFF7E1FA0346002B03
:1015D0002CD01498FFF7CAFA03468DF81E30BDF8D8
:1015E00008309B003A4A13440693069B19689DF8FD
:1015F0001E2013465B001344072202FA03F319402E
:101600009DF81E2013465B00134421FA03F3059353
:10161000169B052B01D0169B00E003231693059A19
:10162000169B9A4202D301238DF84F309DF84F301C
:10163000002B03D018991498FFF772FA149BDB68FB
:101640001B681493149B002BBAD1189844F01DFD0D
:1016500000238DF803300DF103031846FEF7E4FB79
:101660001A4BD3F81834002B02D1049B174A93600D
:101670009DF803301846FEF7E1FB1DE0134BD3F84D
:101680001034129306E01298FFF764FA129BDB689D
:101690001B681293129B002BF5D10E4B5B88012B1C
:1016A0000AD90D4A0D4BD31ADB081B0443F0020381
:1016B0000B491846FFF7FAFCFFF7FEFD034683F0DF
:1016C0000103DBB218461BB05DF804FB303B002081
:1016D0009C280020002800209880070048800700F0
:1016E000E084070000B583B00C4BD3F810340193AD
:1016F0000A4B01221A7009E00198FFF73FFA01989E
:10170000FFF71CFA019BDB681B680193019B002B10
:10171000F2D100BF00BF03B05DF804FB303B0020F6
:101720000FB400B5A3B025AB009301A8009B249A89
:10173000802155F0AEFD2190219B802B05DD01AB72
:10174000802118462CF043FE08E0219B002B05DD8C
:10175000219A01AB114618462CF039FE219B184600
:1017600023B05DF804EB04B0704700B583B001907E
:1017700001982CF01CFE0346184603B05DF804FBEC
:1017800082B003468DF807309DF90730002B0CDB43
:101790009DF8073003F01F0205499DF907305B09EA
:1017A000012000FA02F241F8232000BF02B0704786
:1017B00000E100E082B003468DF807309DF9073064
:1017C000002B13DB9DF8073003F01F0209499DF938
:1017D00007305B09012000FA02F2203341F8232090
:1017E000BFF34F8F00BFBFF36F8F00BF00BF02B0CA
:1017F000704700BF00E100E082B003468DF807307B
:101800009DF90730002B09DB0B4A9DF90730134483
:1018100093F80033DBB25B09DBB20AE0074A9DF8BC
:10182000073003F00F03043B13441B7EDBB25B095C
:10183000DBB2184602B0704700E100E000ED00E0C6
:1018400082B00190019B5B68184602B0704710DFC0
:10185000704700BF184611DF704700BF18460000F0
:1018600082B003468DF807309DF907301F2B0CDC42
:101870009DF907300F4A22FA03F303F00103002B0E
:1018800014BF01230023DBB210E09DF907303F2B8A
:101890000BDC9DF90730203B012202FA03F3002BF9
:1018A00014BF01230023DBB200E00123184602B07D
:1018B000704700BFFC06FFBD82B00190019B072B63
:1018C00007D8EC22019B42FA03F303F00103002B3B
:1018D00001D1002300E00123184602B07047000048
:1018E00000B583B003468DF807309DF907301846E0
:1018F000FFF7B6FF0346002B02D142F201032EE0B0
:101900009DF907301846FFF777FF03461846FFF7A3
:10191000D3FF0346002B02D142F202031FE0124B19
:101920009B68002B15D09DF907305B090E4A52F8D1
:1019300023209DF8073003F01F03012101FA03F370
:1019400019469DF907305B090A43074941F82320EE
:1019500004E09DF907301846FFF712FF00231846F0
:1019600003B05DF804FB00BF9C39002000B583B0D4
:1019700003468DF807309DF907301846FFF770FFD2
:101980000346002B02D142F201031FE0114B9B687A
:10199000002B15D09DF907305B090E4A52F8231031
:1019A0009DF8073003F01F03012202FA03F3DA4324
:1019B0009DF907305B090A40064941F8232004E0FD
:1019C0009DF907301846FFF7F5FE0023184603B0CF
:1019D0005DF804FB9C39002000B587B003468DF804
:1019E000073002AB14491846FEF7FAFF17E002ABC6
:1019F0001846FFF725FF0590059B1B680493059B80
:101A000059689DF80720049B104698470346002B11
:101A100001D111230BE002AB1846FEF7F9FF02AB30
:101A20001846FFF70DFF0346002BE0D100231846B0
:101A300007B05DF804FB00BF9C85070000B587B0C8
:101A400003468DF8073002AB11491846FEF7C8FF70
:101A500012E002AB1846FFF7F3FE0490049B1B68EC
:101A60000593049B59689DF80720059B10469847ED
:101A700002AB1846FEF7CCFF02AB1846FFF7E0FEBC
:101A80000346002BE5D100BF00BF07B05DF804FBA3
:101A9000A885070000B583B01620FFF721FF01904D
:101AA000019B0093009B002B02D000983CF004FFA8
:101AB00000BF03B05DF804FB00B583B01620FFF74C
:101AC00055FF0190019B0093009B002B02D00098D2
